{
  "_format": "hh-sol-artifact-1",
  "contractName": "FootballGameBet",
  "sourceName": "contracts/FootballGameBet.sol",
  "abi": [
    {
      "inputs": [
        {
          "internalType": "string",
          "name": "_homeTeam",
          "type": "string"
        },
        {
          "internalType": "string",
          "name": "_awayTeam",
          "type": "string"
        },
        {
          "internalType": "uint256",
          "name": "_startTime",
          "type": "uint256"
        },
        {
          "internalType": "uint256",
          "name": "_stake",
          "type": "uint256"
        },
        {
          "internalType": "address payable",
          "name": "_organiser",
          "type": "address"
        }
      ],
      "stateMutability": "nonpayable",
      "type": "constructor"
    },
    {
      "inputs": [],
      "name": "awayTeam",
      "outputs": [
        {
          "internalType": "string",
          "name": "",
          "type": "string"
        }
      ],
      "stateMutability": "view",
      "type": "function"
    },
    {
      "inputs": [],
      "name": "awayTeamGoals",
      "outputs": [
        {
          "internalType": "uint8",
          "name": "",
          "type": "uint8"
        }
      ],
      "stateMutability": "view",
      "type": "function"
    },
    {
      "inputs": [],
      "name": "awayTeamPool",
      "outputs": [
        {
          "internalType": "uint256",
          "name": "",
          "type": "uint256"
        }
      ],
      "stateMutability": "view",
      "type": "function"
    },
    {
      "inputs": [],
      "name": "betOnAwayTeam",
      "outputs": [],
      "stateMutability": "payable",
      "type": "function"
    },
    {
      "inputs": [],
      "name": "betOnHomeTeam",
      "outputs": [],
      "stateMutability": "payable",
      "type": "function"
    },
    {
      "inputs": [
        {
          "internalType": "address",
          "name": "",
          "type": "address"
        }
      ],
      "name": "bets",
      "outputs": [
        {
          "internalType": "uint8",
          "name": "",
          "type": "uint8"
        }
      ],
      "stateMutability": "view",
      "type": "function"
    },
    {
      "inputs": [
        {
          "internalType": "uint8",
          "name": "homeGoals",
          "type": "uint8"
        },
        {
          "internalType": "uint8",
          "name": "awayGoals",
          "type": "uint8"
        }
      ],
      "name": "gameFinished",
      "outputs": [],
      "stateMutability": "nonpayable",
      "type": "function"
    },
    {
      "inputs": [],
      "name": "getIsSettled",
      "outputs": [
        {
          "internalType": "bool",
          "name": "",
          "type": "bool"
        }
      ],
      "stateMutability": "view",
      "type": "function"
    },
    {
      "inputs": [],
      "name": "homeTeam",
      "outputs": [
        {
          "internalType": "string",
          "name": "",
          "type": "string"
        }
      ],
      "stateMutability": "view",
      "type": "function"
    },
    {
      "inputs": [],
      "name": "homeTeamGoals",
      "outputs": [
        {
          "internalType": "uint8",
          "name": "",
          "type": "uint8"
        }
      ],
      "stateMutability": "view",
      "type": "function"
    },
    {
      "inputs": [],
      "name": "homeTeamPool",
      "outputs": [
        {
          "internalType": "uint256",
          "name": "",
          "type": "uint256"
        }
      ],
      "stateMutability": "view",
      "type": "function"
    },
    {
      "inputs": [],
      "name": "isSettled",
      "outputs": [
        {
          "internalType": "bool",
          "name": "",
          "type": "bool"
        }
      ],
      "stateMutability": "view",
      "type": "function"
    },
    {
      "inputs": [],
      "name": "organiser",
      "outputs": [
        {
          "internalType": "address payable",
          "name": "",
          "type": "address"
        }
      ],
      "stateMutability": "view",
      "type": "function"
    },
    {
      "inputs": [
        {
          "internalType": "uint256",
          "name": "",
          "type": "uint256"
        }
      ],
      "name": "players",
      "outputs": [
        {
          "internalType": "address payable",
          "name": "",
          "type": "address"
        }
      ],
      "stateMutability": "view",
      "type": "function"
    },
    {
      "inputs": [],
      "name": "stake",
      "outputs": [
        {
          "internalType": "uint256",
          "name": "",
          "type": "uint256"
        }
      ],
      "stateMutability": "view",
      "type": "function"
    },
    {
      "inputs": [],
      "name": "startTime",
      "outputs": [
        {
          "internalType": "uint256",
          "name": "",
          "type": "uint256"
        }
      ],
      "stateMutability": "view",
      "type": "function"
    },
    {
      "inputs": [],
      "name": "totalAwayBets",
      "outputs": [
        {
          "internalType": "uint256",
          "name": "count",
          "type": "uint256"
        }
      ],
      "stateMutability": "view",
      "type": "function"
    },
    {
      "inputs": [],
      "name": "totalHomeBets",
      "outputs": [
        {
          "internalType": "uint256",
          "name": "count",
          "type": "uint256"
        }
      ],
      "stateMutability": "view",
      "type": "function"
    }
  ],
  "bytecode": "0x60806040526000600660006101000a81548160ff02191690831515021790555034801561002b57600080fd5b50604051612348380380612348833981810160405281019061004d91906103dc565b42831161008f576040517f08c379a0000000000000000000000000000000000000000000000000000000008152600401610086906104ec565b60405180910390fd5b60008551116100d3576040517f08c379a00000000000000000000000000000000000000000000000000000000081526004016100ca90610558565b60405180910390fd5b6000845111610117576040517f08c379a000000000000000000000000000000000000000000000000000000000815260040161010e906105c4565b60405180910390fd5b6000821161015a576040517f08c379a000000000000000000000000000000000000000000000000000000000815260040161015190610630565b60405180910390fd5b84600090816101699190610867565b5083600190816101799190610867565b508260038190555080600460006101000a81548173ffffffffffffffffffffffffffffffffffffffff021916908373ffffffffffffffffffffffffffffffffffffffff160217905550816005819055505050505050610939565b6000604051905090565b600080fd5b600080fd5b600080fd5b600080fd5b6000601f19601f8301169050919050565b7f4e487b7100000000000000000000000000000000000000000000000000000000600052604160045260246000fd5b61023a826101f1565b810181811067ffffffffffffffff8211171561025957610258610202565b5b80604052505050565b600061026c6101d3565b90506102788282610231565b919050565b600067ffffffffffffffff82111561029857610297610202565b5b6102a1826101f1565b9050602081019050919050565b60005b838110156102cc5780820151818401526020810190506102b1565b60008484015250505050565b60006102eb6102e68461027d565b610262565b905082815260208101848484011115610307576103066101ec565b5b6103128482856102ae565b509392505050565b600082601f83011261032f5761032e6101e7565b5b815161033f8482602086016102d8565b91505092915050565b6000819050919050565b61035b81610348565b811461036657600080fd5b50565b60008151905061037881610352565b92915050565b600073ffffffffffffffffffffffffffffffffffffffff82169050919050565b60006103a98261037e565b9050919050565b6103b98161039e565b81146103c457600080fd5b50565b6000815190506103d6816103b0565b92915050565b600080600080600060a086880312156103f8576103f76101dd565b5b600086015167ffffffffffffffff811115610416576104156101e2565b5b6104228882890161031a565b955050602086015167ffffffffffffffff811115610443576104426101e2565b5b61044f8882890161031a565b945050604061046088828901610369565b935050606061047188828901610369565b9250506080610482888289016103c7565b9150509295509295909350565b600082825260208201905092915050565b7f496e76616c69642067616d652073746172742074696d652e0000000000000000600082015250565b60006104d660188361048f565b91506104e1826104a0565b602082019050919050565b60006020820190508181036000830152610505816104c9565b9050919050565b7f486f6d65207465616d2072657175697265642e00000000000000000000000000600082015250565b600061054260138361048f565b915061054d8261050c565b602082019050919050565b6000602082019050818103600083015261057181610535565b9050919050565b7f41776179207465616d2072657175697265642e00000000000000000000000000600082015250565b60006105ae60138361048f565b91506105b982610578565b602082019050919050565b600060208201905081810360008301526105dd816105a1565b9050919050565b7f5374616b65206d75737420626520706f7369746976652e000000000000000000600082015250565b600061061a60178361048f565b9150610625826105e4565b602082019050919050565b600060208201905081810360008301526106498161060d565b9050919050565b600081519050919050565b7f4e487b7100000000000000000000000000000000000000000000000000000000600052602260045260246000fd5b600060028204905060018216806106a257607f821691505b6020821081036106b5576106b461065b565b5b50919050565b60008190508160005260206000209050919050565b60006020601f8301049050919050565b600082821b905092915050565b60006008830261071d7fffffffffffffffffffffffffffffffffffffffffffffffffffffffffffffffff826106e0565b61072786836106e0565b95508019841693508086168417925050509392505050565b6000819050919050565b600061076461075f61075a84610348565b61073f565b610348565b9050919050565b6000819050919050565b61077e83610749565b61079261078a8261076b565b8484546106ed565b825550505050565b600090565b6107a761079a565b6107b2818484610775565b505050565b5b818110156107d6576107cb60008261079f565b6001810190506107b8565b5050565b601f82111561081b576107ec816106bb565b6107f5846106d0565b81016020851015610804578190505b610818610810856106d0565b8301826107b7565b50505b505050565b600082821c905092915050565b600061083e60001984600802610820565b1980831691505092915050565b6000610857838361082d565b9150826002028217905092915050565b61087082610650565b67ffffffffffffffff81111561088957610888610202565b5b610893825461068a565b61089e8282856107da565b600060209050601f8311600181146108d157600084156108bf578287015190505b6108c9858261084b565b865550610931565b601f1984166108df866106bb565b60005b82811015610907578489015182556001820191506020850194506020810190506108e2565b868310156109245784890151610920601f89168261082d565b8355505b6001600288020188555050505b505050505050565b611a00806109486000396000f3fe6080604052600436106101095760003560e01c8063883ba26b11610095578063b415f63311610064578063b415f6331461032e578063ba03c83b14610359578063f71d96cb14610384578063f842e50e146103c1578063ff5a7ef8146103ea57610109565b8063883ba26b1461027057806389a78f1a1461029b578063a937788b146102d8578063ae989d361461030357610109565b806378e97925116100dc57806378e97925146101995780637c968e73146101c45780637d79c192146101ef5780637e5374861461021a5780637f394e6f1461024557610109565b80632b6bfa281461010e5780633270bb5b146101395780633a4b66f1146101645780635fe8bbda1461018f575b600080fd5b34801561011a57600080fd5b506101236103f4565b604051610130919061117d565b60405180910390f35b34801561014557600080fd5b5061014e6104be565b60405161015b91906111b3565b60405180910390f35b34801561017057600080fd5b506101796104d1565b604051610186919061117d565b60405180910390f35b6101976104d7565b005b3480156101a557600080fd5b506101ae6106b0565b6040516101bb919061117d565b60405180910390f35b3480156101d057600080fd5b506101d96106b6565b6040516101e691906111ea565b60405180910390f35b3480156101fb57600080fd5b506102046106c9565b6040516102119190611295565b60405180910390f35b34801561022657600080fd5b5061022f610757565b60405161023c91906112f8565b60405180910390f35b34801561025157600080fd5b5061025a61077d565b60405161026791906111ea565b60405180910390f35b34801561027c57600080fd5b50610285610790565b60405161029291906111b3565b60405180910390f35b3480156102a757600080fd5b506102c260048036038101906102bd9190611356565b6107a7565b6040516102cf91906111ea565b60405180910390f35b3480156102e457600080fd5b506102ed6107c7565b6040516102fa919061117d565b60405180910390f35b34801561030f57600080fd5b506103186107e3565b6040516103259190611295565b60405180910390f35b34801561033a57600080fd5b50610343610871565b604051610350919061117d565b60405180910390f35b34801561036557600080fd5b5061036e61093b565b60405161037b919061117d565b60405180910390f35b34801561039057600080fd5b506103ab60048036038101906103a691906113af565b610957565b6040516103b891906112f8565b60405180910390f35b3480156103cd57600080fd5b506103e860048036038101906103e39190611408565b610996565b005b6103f2610f8b565b005b600080600090505b6008805490508110156104ba576002600760006008848154811061042357610422611448565b5b9060005260206000200160009054906101000a900473ffffffffffffffffffffffffffffffffffffffff1673ffffffffffffffffffffffffffffffffffffffff1673ffffffffffffffffffffffffffffffffffffffff16815260200190815260200160002060009054906101000a900460ff1660ff16036104ad5781806104a9906114a6565b9250505b80806001019150506103fc565b5090565b600660009054906101000a900460ff1681565b60055481565b6000600760003373ffffffffffffffffffffffffffffffffffffffff1673ffffffffffffffffffffffffffffffffffffffff16815260200190815260200160002060009054906101000a900460ff1660ff1614610569576040517f08c379a00000000000000000000000000000000000000000000000000000000081526004016105609061153a565b60405180910390fd5b6003544211156105ae576040517f08c379a00000000000000000000000000000000000000000000000000000000081526004016105a5906115a6565b60405180910390fd5b60055434146105f2576040517f08c379a00000000000000000000000000000000000000000000000000000000081526004016105e990611612565b60405180910390fd5b6002600760003373ffffffffffffffffffffffffffffffffffffffff1673ffffffffffffffffffffffffffffffffffffffff16815260200190815260200160002060006101000a81548160ff021916908360ff1602179055506008339080600181540180825580915050600190039060005260206000200160009091909190916101000a81548173ffffffffffffffffffffffffffffffffffffffff021916908373ffffffffffffffffffffffffffffffffffffffff160217905550565b60035481565b600260009054906101000a900460ff1681565b600180546106d690611661565b80601f016020809104026020016040519081016040528092919081815260200182805461070290611661565b801561074f5780601f106107245761010080835404028352916020019161074f565b820191906000526020600020905b81548152906001019060200180831161073257829003601f168201915b505050505081565b600460009054906101000a900473ffffffffffffffffffffffffffffffffffffffff1681565b600260019054906101000a900460ff1681565b6000600660009054906101000a900460ff16905090565b60076020528060005260406000206000915054906101000a900460ff1681565b60006107d1610871565b6005546107de9190611692565b905090565b600080546107f090611661565b80601f016020809104026020016040519081016040528092919081815260200182805461081c90611661565b80156108695780601f1061083e57610100808354040283529160200191610869565b820191906000526020600020905b81548152906001019060200180831161084c57829003601f168201915b505050505081565b600080600090505b60088054905081101561093757600160076000600884815481106108a05761089f611448565b5b9060005260206000200160009054906101000a900473ffffffffffffffffffffffffffffffffffffffff1673ffffffffffffffffffffffffffffffffffffffff1673ffffffffffffffffffffffffffffffffffffffff16815260200190815260200160002060009054906101000a900460ff1660ff160361092a578180610926906114a6565b9250505b8080600101915050610879565b5090565b60006109456103f4565b6005546109529190611692565b905090565b6008818154811061096757600080fd5b906000526020600020016000915054906101000a900473ffffffffffffffffffffffffffffffffffffffff1681565b600460009054906101000a900473ffffffffffffffffffffffffffffffffffffffff1673ffffffffffffffffffffffffffffffffffffffff163373ffffffffffffffffffffffffffffffffffffffff1614610a26576040517f08c379a0000000000000000000000000000000000000000000000000000000008152600401610a1d90611720565b60405180910390fd5b60004711610a69576040517f08c379a0000000000000000000000000000000000000000000000000000000008152600401610a609061178c565b60405180910390fd5b81600260006101000a81548160ff021916908360ff16021790555080600260016101000a81548160ff021916908360ff1602179055506001600660006101000a81548160ff02191690831515021790555060008160ff168360ff1611610ae5578260ff168260ff1611610add576000610ae0565b60025b610ae8565b60015b9050600047905060008260ff1603610c0a5760005b600880549050811015610c0457600060088281548110610b2057610b1f611448565b5b9060005260206000200160009054906101000a900473ffffffffffffffffffffffffffffffffffffffff1673ffffffffffffffffffffffffffffffffffffffff16600554604051610b70906117dd565b60006040518083038185875af1925050503d8060008114610bad576040519150601f19603f3d011682016040523d82523d6000602084013e610bb2565b606091505b5050905080610bf6576040517f08c379a0000000000000000000000000000000000000000000000000000000008152600401610bed9061183e565b60405180910390fd5b508080600101915050610afd565b50610f85565b60006064600583610c1b9190611692565b610c25919061188d565b905060008183610c3591906118be565b9050600080600090505b600880549050811015610cff578560ff166007600060088481548110610c6857610c67611448565b5b9060005260206000200160009054906101000a900473ffffffffffffffffffffffffffffffffffffffff1673ffffffffffffffffffffffffffffffffffffffff1673ffffffffffffffffffffffffffffffffffffffff16815260200190815260200160002060009054906101000a900460ff1660ff1603610cf2578180610cee906114a6565b9250505b8080600101915050610c3f565b5060008183610d0e919061188d565b905060005b600880549050811015610eb0578660ff166007600060088481548110610d3c57610d3b611448565b5b9060005260206000200160009054906101000a900473ffffffffffffffffffffffffffffffffffffffff1673ffffffffffffffffffffffffffffffffffffffff1673ffffffffffffffffffffffffffffffffffffffff16815260200190815260200160002060009054906101000a900460ff1660ff1603610ea357600060088281548110610dcd57610dcc611448565b5b9060005260206000200160009054906101000a900473ffffffffffffffffffffffffffffffffffffffff1673ffffffffffffffffffffffffffffffffffffffff1683604051610e1b906117dd565b60006040518083038185875af1925050503d8060008114610e58576040519150601f19603f3d011682016040523d82523d6000602084013e610e5d565b606091505b5050905080610ea1576040517f08c379a0000000000000000000000000000000000000000000000000000000008152600401610e989061193e565b60405180910390fd5b505b8080600101915050610d13565b506000600460009054906101000a900473ffffffffffffffffffffffffffffffffffffffff1673ffffffffffffffffffffffffffffffffffffffff1685604051610ef9906117dd565b60006040518083038185875af1925050503d8060008114610f36576040519150601f19603f3d011682016040523d82523d6000602084013e610f3b565b606091505b5050905080610f7f576040517f08c379a0000000000000000000000000000000000000000000000000000000008152600401610f76906119aa565b60405180910390fd5b50505050505b50505050565b6000600760003373ffffffffffffffffffffffffffffffffffffffff1673ffffffffffffffffffffffffffffffffffffffff16815260200190815260200160002060009054906101000a900460ff1660ff161461101d576040517f08c379a00000000000000000000000000000000000000000000000000000000081526004016110149061153a565b60405180910390fd5b600354421115611062576040517f08c379a0000000000000000000000000000000000000000000000000000000008152600401611059906115a6565b60405180910390fd5b60055434146110a6576040517f08c379a000000000000000000000000000000000000000000000000000000000815260040161109d90611612565b60405180910390fd5b6001600760003373ffffffffffffffffffffffffffffffffffffffff1673ffffffffffffffffffffffffffffffffffffffff16815260200190815260200160002060006101000a81548160ff021916908360ff1602179055506008339080600181540180825580915050600190039060005260206000200160009091909190916101000a81548173ffffffffffffffffffffffffffffffffffffffff021916908373ffffffffffffffffffffffffffffffffffffffff160217905550565b6000819050919050565b61117781611164565b82525050565b6000602082019050611192600083018461116e565b92915050565b60008115159050919050565b6111ad81611198565b82525050565b60006020820190506111c860008301846111a4565b92915050565b600060ff82169050919050565b6111e4816111ce565b82525050565b60006020820190506111ff60008301846111db565b92915050565b600081519050919050565b600082825260208201905092915050565b60005b8381101561123f578082015181840152602081019050611224565b60008484015250505050565b6000601f19601f8301169050919050565b600061126782611205565b6112718185611210565b9350611281818560208601611221565b61128a8161124b565b840191505092915050565b600060208201905081810360008301526112af818461125c565b905092915050565b600073ffffffffffffffffffffffffffffffffffffffff82169050919050565b60006112e2826112b7565b9050919050565b6112f2816112d7565b82525050565b600060208201905061130d60008301846112e9565b92915050565b600080fd5b6000611323826112b7565b9050919050565b61133381611318565b811461133e57600080fd5b50565b6000813590506113508161132a565b92915050565b60006020828403121561136c5761136b611313565b5b600061137a84828501611341565b91505092915050565b61138c81611164565b811461139757600080fd5b50565b6000813590506113a981611383565b92915050565b6000602082840312156113c5576113c4611313565b5b60006113d38482850161139a565b91505092915050565b6113e5816111ce565b81146113f057600080fd5b50565b600081359050611402816113dc565b92915050565b6000806040838503121561141f5761141e611313565b5b600061142d858286016113f3565b925050602061143e858286016113f3565b9150509250929050565b7f4e487b7100000000000000000000000000000000000000000000000000000000600052603260045260246000fd5b7f4e487b7100000000000000000000000000000000000000000000000000000000600052601160045260246000fd5b60006114b182611164565b91507fffffffffffffffffffffffffffffffffffffffffffffffffffffffffffffffff82036114e3576114e2611477565b5b600182019050919050565b7f42657420616c726561647920706c616365642e00000000000000000000000000600082015250565b6000611524601383611210565b915061152f826114ee565b602082019050919050565b6000602082019050818103600083015261155381611517565b9050919050565b7f42657474696e6720636c6f7365642e0000000000000000000000000000000000600082015250565b6000611590600f83611210565b915061159b8261155a565b602082019050919050565b600060208201905081810360008301526115bf81611583565b9050919050565b7f496e636f7272656374207374616b6520616d6f756e742e000000000000000000600082015250565b60006115fc601783611210565b9150611607826115c6565b602082019050919050565b6000602082019050818103600083015261162b816115ef565b9050919050565b7f4e487b7100000000000000000000000000000000000000000000000000000000600052602260045260246000fd5b6000600282049050600182168061167957607f821691505b60208210810361168c5761168b611632565b5b50919050565b600061169d82611164565b91506116a883611164565b92508282026116b681611164565b915082820484148315176116cd576116cc611477565b5b5092915050565b7f4f6e6c79206f7267616e6973657220616c6c6f7765642e000000000000000000600082015250565b600061170a601783611210565b9150611715826116d4565b602082019050919050565b60006020820190508181036000830152611739816116fd565b9050919050565b7f436f6e74726163742062616c616e636520656d7074792e000000000000000000600082015250565b6000611776601783611210565b915061178182611740565b602082019050919050565b600060208201905081810360008301526117a581611769565b9050919050565b600081905092915050565b50565b60006117c76000836117ac565b91506117d2826117b7565b600082019050919050565b60006117e8826117ba565b9150819050919050565b7f526566756e64206661696c65642e000000000000000000000000000000000000600082015250565b6000611828600e83611210565b9150611833826117f2565b602082019050919050565b600060208201905081810360008301526118578161181b565b9050919050565b7f4e487b7100000000000000000000000000000000000000000000000000000000600052601260045260246000fd5b600061189882611164565b91506118a383611164565b9250826118b3576118b261185e565b5b828204905092915050565b60006118c982611164565b91506118d483611164565b92508282039050818111156118ec576118eb611477565b5b92915050565b7f5061796f7574206661696c65642e000000000000000000000000000000000000600082015250565b6000611928600e83611210565b9150611933826118f2565b602082019050919050565b600060208201905081810360008301526119578161191b565b9050919050565b7f4f7267616e697a6572207061796f7574206661696c65642e0000000000000000600082015250565b6000611994601883611210565b915061199f8261195e565b602082019050919050565b600060208201905081810360008301526119c381611987565b905091905056fea264697066735822122041ff39ce68373266c27f40dfe2223ce2999d422130071e6196520b9c7fbc827a64736f6c634300081c0033",
  "linkReferences": {},
  "deployedLinkReferences": {}
}