{
  "_format": "hh-sol-artifact-1",
  "contractName": "FootballGameBet",
  "sourceName": "contracts/FootballGameBet.sol",
  "abi": [
    {
      "inputs": [
        {
          "internalType": "string",
          "name": "_homeTeam",
          "type": "string"
        },
        {
          "internalType": "string",
          "name": "_awayTeam",
          "type": "string"
        },
        {
          "internalType": "uint256",
          "name": "_startTime",
          "type": "uint256"
        },
        {
          "internalType": "uint256",
          "name": "_stake",
          "type": "uint256"
        },
        {
          "internalType": "address payable",
          "name": "_organiser",
          "type": "address"
        }
      ],
      "stateMutability": "nonpayable",
      "type": "constructor"
    },
    {
      "inputs": [],
      "name": "awayTeam",
      "outputs": [
        {
          "internalType": "string",
          "name": "",
          "type": "string"
        }
      ],
      "stateMutability": "view",
      "type": "function"
    },
    {
      "inputs": [],
      "name": "awayTeamGoals",
      "outputs": [
        {
          "internalType": "uint8",
          "name": "",
          "type": "uint8"
        }
      ],
      "stateMutability": "view",
      "type": "function"
    },
    {
      "inputs": [],
      "name": "awayTeamPool",
      "outputs": [
        {
          "internalType": "uint256",
          "name": "",
          "type": "uint256"
        }
      ],
      "stateMutability": "view",
      "type": "function"
    },
    {
      "inputs": [],
      "name": "betOnAwayTeam",
      "outputs": [],
      "stateMutability": "payable",
      "type": "function"
    },
    {
      "inputs": [],
      "name": "betOnHomeTeam",
      "outputs": [],
      "stateMutability": "payable",
      "type": "function"
    },
    {
      "inputs": [
        {
          "internalType": "address",
          "name": "",
          "type": "address"
        }
      ],
      "name": "bets",
      "outputs": [
        {
          "internalType": "uint8",
          "name": "",
          "type": "uint8"
        }
      ],
      "stateMutability": "view",
      "type": "function"
    },
    {
      "inputs": [],
      "name": "factory",
      "outputs": [
        {
          "internalType": "address",
          "name": "",
          "type": "address"
        }
      ],
      "stateMutability": "view",
      "type": "function"
    },
    {
      "inputs": [
        {
          "internalType": "uint8",
          "name": "homeGoals",
          "type": "uint8"
        },
        {
          "internalType": "uint8",
          "name": "awayGoals",
          "type": "uint8"
        }
      ],
      "name": "gameFinished",
      "outputs": [],
      "stateMutability": "nonpayable",
      "type": "function"
    },
    {
      "inputs": [],
      "name": "getIsSettled",
      "outputs": [
        {
          "internalType": "bool",
          "name": "",
          "type": "bool"
        }
      ],
      "stateMutability": "view",
      "type": "function"
    },
    {
      "inputs": [],
      "name": "homeTeam",
      "outputs": [
        {
          "internalType": "string",
          "name": "",
          "type": "string"
        }
      ],
      "stateMutability": "view",
      "type": "function"
    },
    {
      "inputs": [],
      "name": "homeTeamGoals",
      "outputs": [
        {
          "internalType": "uint8",
          "name": "",
          "type": "uint8"
        }
      ],
      "stateMutability": "view",
      "type": "function"
    },
    {
      "inputs": [],
      "name": "homeTeamPool",
      "outputs": [
        {
          "internalType": "uint256",
          "name": "",
          "type": "uint256"
        }
      ],
      "stateMutability": "view",
      "type": "function"
    },
    {
      "inputs": [],
      "name": "isSettled",
      "outputs": [
        {
          "internalType": "bool",
          "name": "",
          "type": "bool"
        }
      ],
      "stateMutability": "view",
      "type": "function"
    },
    {
      "inputs": [],
      "name": "markets",
      "outputs": [
        {
          "internalType": "address",
          "name": "",
          "type": "address"
        }
      ],
      "stateMutability": "view",
      "type": "function"
    },
    {
      "inputs": [],
      "name": "organiser",
      "outputs": [
        {
          "internalType": "address payable",
          "name": "",
          "type": "address"
        }
      ],
      "stateMutability": "view",
      "type": "function"
    },
    {
      "inputs": [
        {
          "internalType": "uint256",
          "name": "",
          "type": "uint256"
        }
      ],
      "name": "players",
      "outputs": [
        {
          "internalType": "address payable",
          "name": "",
          "type": "address"
        }
      ],
      "stateMutability": "view",
      "type": "function"
    },
    {
      "inputs": [
        {
          "internalType": "address",
          "name": "_markets",
          "type": "address"
        }
      ],
      "name": "setMarkets",
      "outputs": [],
      "stateMutability": "nonpayable",
      "type": "function"
    },
    {
      "inputs": [],
      "name": "stake",
      "outputs": [
        {
          "internalType": "uint256",
          "name": "",
          "type": "uint256"
        }
      ],
      "stateMutability": "view",
      "type": "function"
    },
    {
      "inputs": [],
      "name": "startTime",
      "outputs": [
        {
          "internalType": "uint256",
          "name": "",
          "type": "uint256"
        }
      ],
      "stateMutability": "view",
      "type": "function"
    },
    {
      "inputs": [],
      "name": "totalAwayBets",
      "outputs": [
        {
          "internalType": "uint256",
          "name": "count",
          "type": "uint256"
        }
      ],
      "stateMutability": "view",
      "type": "function"
    },
    {
      "inputs": [],
      "name": "totalHomeBets",
      "outputs": [
        {
          "internalType": "uint256",
          "name": "count",
          "type": "uint256"
        }
      ],
      "stateMutability": "view",
      "type": "function"
    }
  ],
  "bytecode": "0x60806040526000600660006101000a81548160ff02191690831515021790555034801561002b57600080fd5b5060405161292d38038061292d833981810160405281019061004d919061041d565b42831161008f576040517f08c379a00000000000000000000000000000000000000000000000000000000081526004016100869061052d565b60405180910390fd5b60008551116100d3576040517f08c379a00000000000000000000000000000000000000000000000000000000081526004016100ca90610599565b60405180910390fd5b6000845111610117576040517f08c379a000000000000000000000000000000000000000000000000000000000815260040161010e90610605565b60405180910390fd5b6000821161015a576040517f08c379a000000000000000000000000000000000000000000000000000000000815260040161015190610671565b60405180910390fd5b846000908161016991906108a8565b50836001908161017991906108a8565b508260038190555080600460006101000a81548173ffffffffffffffffffffffffffffffffffffffff021916908373ffffffffffffffffffffffffffffffffffffffff1602179055508160058190555033600660016101000a81548173ffffffffffffffffffffffffffffffffffffffff021916908373ffffffffffffffffffffffffffffffffffffffff160217905550505050505061097a565b6000604051905090565b600080fd5b600080fd5b600080fd5b600080fd5b6000601f19601f8301169050919050565b7f4e487b7100000000000000000000000000000000000000000000000000000000600052604160045260246000fd5b61027b82610232565b810181811067ffffffffffffffff8211171561029a57610299610243565b5b80604052505050565b60006102ad610214565b90506102b98282610272565b919050565b600067ffffffffffffffff8211156102d9576102d8610243565b5b6102e282610232565b9050602081019050919050565b60005b8381101561030d5780820151818401526020810190506102f2565b60008484015250505050565b600061032c610327846102be565b6102a3565b9050828152602081018484840111156103485761034761022d565b5b6103538482856102ef565b509392505050565b600082601f8301126103705761036f610228565b5b8151610380848260208601610319565b91505092915050565b6000819050919050565b61039c81610389565b81146103a757600080fd5b50565b6000815190506103b981610393565b92915050565b600073ffffffffffffffffffffffffffffffffffffffff82169050919050565b60006103ea826103bf565b9050919050565b6103fa816103df565b811461040557600080fd5b50565b600081519050610417816103f1565b92915050565b600080600080600060a086880312156104395761043861021e565b5b600086015167ffffffffffffffff81111561045757610456610223565b5b6104638882890161035b565b955050602086015167ffffffffffffffff81111561048457610483610223565b5b6104908882890161035b565b94505060406104a1888289016103aa565b93505060606104b2888289016103aa565b92505060806104c388828901610408565b9150509295509295909350565b600082825260208201905092915050565b7f496e76616c69642067616d652073746172742074696d652e0000000000000000600082015250565b60006105176018836104d0565b9150610522826104e1565b602082019050919050565b600060208201905081810360008301526105468161050a565b9050919050565b7f486f6d65207465616d2072657175697265642e00000000000000000000000000600082015250565b60006105836013836104d0565b915061058e8261054d565b602082019050919050565b600060208201905081810360008301526105b281610576565b9050919050565b7f41776179207465616d2072657175697265642e00000000000000000000000000600082015250565b60006105ef6013836104d0565b91506105fa826105b9565b602082019050919050565b6000602082019050818103600083015261061e816105e2565b9050919050565b7f5374616b65206d75737420626520706f7369746976652e000000000000000000600082015250565b600061065b6017836104d0565b915061066682610625565b602082019050919050565b6000602082019050818103600083015261068a8161064e565b9050919050565b600081519050919050565b7f4e487b7100000000000000000000000000000000000000000000000000000000600052602260045260246000fd5b600060028204905060018216806106e357607f821691505b6020821081036106f6576106f561069c565b5b50919050565b60008190508160005260206000209050919050565b60006020601f8301049050919050565b600082821b905092915050565b60006008830261075e7fffffffffffffffffffffffffffffffffffffffffffffffffffffffffffffffff82610721565b6107688683610721565b95508019841693508086168417925050509392505050565b6000819050919050565b60006107a56107a061079b84610389565b610780565b610389565b9050919050565b6000819050919050565b6107bf8361078a565b6107d36107cb826107ac565b84845461072e565b825550505050565b600090565b6107e86107db565b6107f38184846107b6565b505050565b5b818110156108175761080c6000826107e0565b6001810190506107f9565b5050565b601f82111561085c5761082d816106fc565b61083684610711565b81016020851015610845578190505b61085961085185610711565b8301826107f8565b50505b505050565b600082821c905092915050565b600061087f60001984600802610861565b1980831691505092915050565b6000610898838361086e565b9150826002028217905092915050565b6108b182610691565b67ffffffffffffffff8111156108ca576108c9610243565b5b6108d482546106cb565b6108df82828561081b565b600060209050601f8311600181146109125760008415610900578287015190505b61090a858261088c565b865550610972565b601f198416610920866106fc565b60005b8281101561094857848901518255600182019150602085019450602081019050610923565b868310156109655784890151610961601f89168261086e565b8355505b6001600288020188555050505b505050505050565b611fa4806109896000396000f3fe60806040526004361061012a5760003560e01c8063883ba26b116100ab578063ba03c83b1161006f578063ba03c83b146103a5578063c45a0155146103d0578063cc83f7fd146103fb578063f71d96cb14610424578063f842e50e14610461578063ff5a7ef81461048a5761012a565b8063883ba26b146102bc57806389a78f1a146102e7578063a937788b14610324578063ae989d361461034f578063b415f6331461037a5761012a565b806378e97925116100f257806378e97925146101e55780637c968e73146102105780637d79c1921461023b5780637e537486146102665780637f394e6f146102915761012a565b80632b6bfa281461012f5780633270bb5b1461015a5780633a4b66f1146101855780633ac2a032146101b05780635fe8bbda146101db575b600080fd5b34801561013b57600080fd5b50610144610494565b604051610151919061158a565b60405180910390f35b34801561016657600080fd5b5061016f61055e565b60405161017c91906115c0565b60405180910390f35b34801561019157600080fd5b5061019a610571565b6040516101a7919061158a565b60405180910390f35b3480156101bc57600080fd5b506101c5610577565b6040516101d2919061161c565b60405180910390f35b6101e361059d565b005b3480156101f157600080fd5b506101fa610776565b604051610207919061158a565b60405180910390f35b34801561021c57600080fd5b5061022561077c565b6040516102329190611653565b60405180910390f35b34801561024757600080fd5b5061025061078f565b60405161025d91906116fe565b60405180910390f35b34801561027257600080fd5b5061027b61081d565b6040516102889190611741565b60405180910390f35b34801561029d57600080fd5b506102a6610843565b6040516102b39190611653565b60405180910390f35b3480156102c857600080fd5b506102d1610856565b6040516102de91906115c0565b60405180910390f35b3480156102f357600080fd5b5061030e6004803603810190610309919061178d565b61086d565b60405161031b9190611653565b60405180910390f35b34801561033057600080fd5b5061033961088d565b604051610346919061158a565b60405180910390f35b34801561035b57600080fd5b506103646108a9565b60405161037191906116fe565b60405180910390f35b34801561038657600080fd5b5061038f610937565b60405161039c919061158a565b60405180910390f35b3480156103b157600080fd5b506103ba610a01565b6040516103c7919061158a565b60405180910390f35b3480156103dc57600080fd5b506103e5610a1d565b6040516103f2919061161c565b60405180910390f35b34801561040757600080fd5b50610422600480360381019061041d919061178d565b610a43565b005b34801561043057600080fd5b5061044b600480360381019061044691906117e6565b610c6f565b6040516104589190611741565b60405180910390f35b34801561046d57600080fd5b506104886004803603810190610483919061183f565b610cae565b005b610492611398565b005b600080600090505b60098054905081101561055a57600260086000600984815481106104c3576104c261187f565b5b9060005260206000200160009054906101000a900473ffffffffffffffffffffffffffffffffffffffff1673ffffffffffffffffffffffffffffffffffffffff1673ffffffffffffffffffffffffffffffffffffffff16815260200190815260200160002060009054906101000a900460ff1660ff160361054d578180610549906118dd565b9250505b808060010191505061049c565b5090565b600660009054906101000a900460ff1681565b60055481565b600760009054906101000a900473ffffffffffffffffffffffffffffffffffffffff1681565b6000600860003373ffffffffffffffffffffffffffffffffffffffff1673ffffffffffffffffffffffffffffffffffffffff16815260200190815260200160002060009054906101000a900460ff1660ff161461062f576040517f08c379a000000000000000000000000000000000000000000000000000000000815260040161062690611971565b60405180910390fd5b600354421115610674576040517f08c379a000000000000000000000000000000000000000000000000000000000815260040161066b906119dd565b60405180910390fd5b60055434146106b8576040517f08c379a00000000000000000000000000000000000000000000000000000000081526004016106af90611a49565b60405180910390fd5b6002600860003373ffffffffffffffffffffffffffffffffffffffff1673ffffffffffffffffffffffffffffffffffffffff16815260200190815260200160002060006101000a81548160ff021916908360ff1602179055506009339080600181540180825580915050600190039060005260206000200160009091909190916101000a81548173ffffffffffffffffffffffffffffffffffffffff021916908373ffffffffffffffffffffffffffffffffffffffff160217905550565b60035481565b600260009054906101000a900460ff1681565b6001805461079c90611a98565b80601f01602080910402602001604051908101604052809291908181526020018280546107c890611a98565b80156108155780601f106107ea57610100808354040283529160200191610815565b820191906000526020600020905b8154815290600101906020018083116107f857829003601f168201915b505050505081565b600460009054906101000a900473ffffffffffffffffffffffffffffffffffffffff1681565b600260019054906101000a900460ff1681565b6000600660009054906101000a900460ff16905090565b60086020528060005260406000206000915054906101000a900460ff1681565b6000610897610937565b6005546108a49190611ac9565b905090565b600080546108b690611a98565b80601f01602080910402602001604051908101604052809291908181526020018280546108e290611a98565b801561092f5780601f106109045761010080835404028352916020019161092f565b820191906000526020600020905b81548152906001019060200180831161091257829003601f168201915b505050505081565b600080600090505b6009805490508110156109fd57600160086000600984815481106109665761096561187f565b5b9060005260206000200160009054906101000a900473ffffffffffffffffffffffffffffffffffffffff1673ffffffffffffffffffffffffffffffffffffffff1673ffffffffffffffffffffffffffffffffffffffff16815260200190815260200160002060009054906101000a900460ff1660ff16036109f05781806109ec906118dd565b9250505b808060010191505061093f565b5090565b6000610a0b610494565b600554610a189190611ac9565b905090565b600660019054906101000a900473ffffffffffffffffffffffffffffffffffffffff1681565b600460009054906101000a900473ffffffffffffffffffffffffffffffffffffffff1673ffffffffffffffffffffffffffffffffffffffff163373ffffffffffffffffffffffffffffffffffffffff161480610aec5750600660019054906101000a900473ffffffffffffffffffffffffffffffffffffffff1673ffffffffffffffffffffffffffffffffffffffff163373ffffffffffffffffffffffffffffffffffffffff16145b610b2b576040517f08c379a0000000000000000000000000000000000000000000000000000000008152600401610b2290611b57565b60405180910390fd5b600073ffffffffffffffffffffffffffffffffffffffff16600760009054906101000a900473ffffffffffffffffffffffffffffffffffffffff1673ffffffffffffffffffffffffffffffffffffffff1614610bbc576040517f08c379a0000000000000000000000000000000000000000000000000000000008152600401610bb390611bc3565b60405180910390fd5b600073ffffffffffffffffffffffffffffffffffffffff168173ffffffffffffffffffffffffffffffffffffffff1603610c2b576040517f08c379a0000000000000000000000000000000000000000000000000000000008152600401610c2290611c2f565b60405180910390fd5b80600760006101000a81548173ffffffffffffffffffffffffffffffffffffffff021916908373ffffffffffffffffffffffffffffffffffffffff16021790555050565b60098181548110610c7f57600080fd5b906000526020600020016000915054906101000a900473ffffffffffffffffffffffffffffffffffffffff1681565b600460009054906101000a900473ffffffffffffffffffffffffffffffffffffffff1673ffffffffffffffffffffffffffffffffffffffff163373ffffffffffffffffffffffffffffffffffffffff1614610d3e576040517f08c379a0000000000000000000000000000000000000000000000000000000008152600401610d3590611c9b565b60405180910390fd5b60004711610d81576040517f08c379a0000000000000000000000000000000000000000000000000000000008152600401610d7890611d07565b60405180910390fd5b81600260006101000a81548160ff021916908360ff16021790555080600260016101000a81548160ff021916908360ff1602179055506001600660006101000a81548160ff02191690831515021790555060008160ff168360ff1611610dfd578260ff168260ff1611610df5576000610df8565b60025b610e00565b60015b9050600047905060008260ff1603610f225760005b600980549050811015610f1c57600060098281548110610e3857610e3761187f565b5b9060005260206000200160009054906101000a900473ffffffffffffffffffffffffffffffffffffffff1673ffffffffffffffffffffffffffffffffffffffff16600554604051610e8890611d58565b60006040518083038185875af1925050503d8060008114610ec5576040519150601f19603f3d011682016040523d82523d6000602084013e610eca565b606091505b5050905080610f0e576040517f08c379a0000000000000000000000000000000000000000000000000000000008152600401610f0590611db9565b60405180910390fd5b508080600101915050610e15565b506112ac565b60006064600583610f339190611ac9565b610f3d9190611e08565b905060008183610f4d9190611e39565b9050600080600090505b600980549050811015611017578560ff166008600060098481548110610f8057610f7f61187f565b5b9060005260206000200160009054906101000a900473ffffffffffffffffffffffffffffffffffffffff1673ffffffffffffffffffffffffffffffffffffffff1673ffffffffffffffffffffffffffffffffffffffff16815260200190815260200160002060009054906101000a900460ff1660ff160361100a578180611006906118dd565b9250505b8080600101915050610f57565b50600080821461103257818361102d9190611e08565b611035565b60005b905060005b6009805490508110156111d7578660ff1660086000600984815481106110635761106261187f565b5b9060005260206000200160009054906101000a900473ffffffffffffffffffffffffffffffffffffffff1673ffffffffffffffffffffffffffffffffffffffff1673ffffffffffffffffffffffffffffffffffffffff16815260200190815260200160002060009054906101000a900460ff1660ff16036111ca576000600982815481106110f4576110f361187f565b5b9060005260206000200160009054906101000a900473ffffffffffffffffffffffffffffffffffffffff1673ffffffffffffffffffffffffffffffffffffffff168360405161114290611d58565b60006040518083038185875af1925050503d806000811461117f576040519150601f19603f3d011682016040523d82523d6000602084013e611184565b606091505b50509050806111c8576040517f08c379a00000000000000000000000000000000000000000000000000000000081526004016111bf90611eb9565b60405180910390fd5b505b808060010191505061103a565b506000600460009054906101000a900473ffffffffffffffffffffffffffffffffffffffff1673ffffffffffffffffffffffffffffffffffffffff168560405161122090611d58565b60006040518083038185875af1925050503d806000811461125d576040519150601f19603f3d011682016040523d82523d6000602084013e611262565b606091505b50509050806112a6576040517f08c379a000000000000000000000000000000000000000000000000000000000815260040161129d90611f25565b60405180910390fd5b50505050505b600073ffffffffffffffffffffffffffffffffffffffff16600760009054906101000a900473ffffffffffffffffffffffffffffffffffffffff1673ffffffffffffffffffffffffffffffffffffffff161461139257600760009054906101000a900473ffffffffffffffffffffffffffffffffffffffff1673ffffffffffffffffffffffffffffffffffffffff16632cffdacb85856040518363ffffffff1660e01b815260040161135f929190611f45565b600060405180830381600087803b15801561137957600080fd5b505af115801561138d573d6000803e3d6000fd5b505050505b50505050565b6000600860003373ffffffffffffffffffffffffffffffffffffffff1673ffffffffffffffffffffffffffffffffffffffff16815260200190815260200160002060009054906101000a900460ff1660ff161461142a576040517f08c379a000000000000000000000000000000000000000000000000000000000815260040161142190611971565b60405180910390fd5b60035442111561146f576040517f08c379a0000000000000000000000000000000000000000000000000000000008152600401611466906119dd565b60405180910390fd5b60055434146114b3576040517f08c379a00000000000000000000000000000000000000000000000000000000081526004016114aa90611a49565b60405180910390fd5b6001600860003373ffffffffffffffffffffffffffffffffffffffff1673ffffffffffffffffffffffffffffffffffffffff16815260200190815260200160002060006101000a81548160ff021916908360ff1602179055506009339080600181540180825580915050600190039060005260206000200160009091909190916101000a81548173ffffffffffffffffffffffffffffffffffffffff021916908373ffffffffffffffffffffffffffffffffffffffff160217905550565b6000819050919050565b61158481611571565b82525050565b600060208201905061159f600083018461157b565b92915050565b60008115159050919050565b6115ba816115a5565b82525050565b60006020820190506115d560008301846115b1565b92915050565b600073ffffffffffffffffffffffffffffffffffffffff82169050919050565b6000611606826115db565b9050919050565b611616816115fb565b82525050565b6000602082019050611631600083018461160d565b92915050565b600060ff82169050919050565b61164d81611637565b82525050565b60006020820190506116686000830184611644565b92915050565b600081519050919050565b600082825260208201905092915050565b60005b838110156116a857808201518184015260208101905061168d565b60008484015250505050565b6000601f19601f8301169050919050565b60006116d08261166e565b6116da8185611679565b93506116ea81856020860161168a565b6116f3816116b4565b840191505092915050565b6000602082019050818103600083015261171881846116c5565b905092915050565b600061172b826115db565b9050919050565b61173b81611720565b82525050565b60006020820190506117566000830184611732565b92915050565b600080fd5b61176a816115fb565b811461177557600080fd5b50565b60008135905061178781611761565b92915050565b6000602082840312156117a3576117a261175c565b5b60006117b184828501611778565b91505092915050565b6117c381611571565b81146117ce57600080fd5b50565b6000813590506117e0816117ba565b92915050565b6000602082840312156117fc576117fb61175c565b5b600061180a848285016117d1565b91505092915050565b61181c81611637565b811461182757600080fd5b50565b60008135905061183981611813565b92915050565b600080604083850312156118565761185561175c565b5b60006118648582860161182a565b92505060206118758582860161182a565b9150509250929050565b7f4e487b7100000000000000000000000000000000000000000000000000000000600052603260045260246000fd5b7f4e487b7100000000000000000000000000000000000000000000000000000000600052601160045260246000fd5b60006118e882611571565b91507fffffffffffffffffffffffffffffffffffffffffffffffffffffffffffffffff820361191a576119196118ae565b5b600182019050919050565b7f42657420616c726561647920706c616365642e00000000000000000000000000600082015250565b600061195b601383611679565b915061196682611925565b602082019050919050565b6000602082019050818103600083015261198a8161194e565b9050919050565b7f42657474696e6720636c6f7365642e0000000000000000000000000000000000600082015250565b60006119c7600f83611679565b91506119d282611991565b602082019050919050565b600060208201905081810360008301526119f6816119ba565b9050919050565b7f496e636f7272656374207374616b6520616d6f756e742e000000000000000000600082015250565b6000611a33601783611679565b9150611a3e826119fd565b602082019050919050565b60006020820190508181036000830152611a6281611a26565b9050919050565b7f4e487b7100000000000000000000000000000000000000000000000000000000600052602260045260246000fd5b60006002820490506001821680611ab057607f821691505b602082108103611ac357611ac2611a69565b5b50919050565b6000611ad482611571565b9150611adf83611571565b9250828202611aed81611571565b91508282048414831517611b0457611b036118ae565b5b5092915050565b7f4e6f7420617574686f72697a6564000000000000000000000000000000000000600082015250565b6000611b41600e83611679565b9150611b4c82611b0b565b602082019050919050565b60006020820190508181036000830152611b7081611b34565b9050919050565b7f4d61726b65747320616c72656164792073657400000000000000000000000000600082015250565b6000611bad601383611679565b9150611bb882611b77565b602082019050919050565b60006020820190508181036000830152611bdc81611ba0565b9050919050565b7f496e76616c6964206d61726b6574730000000000000000000000000000000000600082015250565b6000611c19600f83611679565b9150611c2482611be3565b602082019050919050565b60006020820190508181036000830152611c4881611c0c565b9050919050565b7f4f6e6c79206f7267616e6973657220616c6c6f7765642e000000000000000000600082015250565b6000611c85601783611679565b9150611c9082611c4f565b602082019050919050565b60006020820190508181036000830152611cb481611c78565b9050919050565b7f436f6e74726163742062616c616e636520656d7074792e000000000000000000600082015250565b6000611cf1601783611679565b9150611cfc82611cbb565b602082019050919050565b60006020820190508181036000830152611d2081611ce4565b9050919050565b600081905092915050565b50565b6000611d42600083611d27565b9150611d4d82611d32565b600082019050919050565b6000611d6382611d35565b9150819050919050565b7f526566756e64206661696c65642e000000000000000000000000000000000000600082015250565b6000611da3600e83611679565b9150611dae82611d6d565b602082019050919050565b60006020820190508181036000830152611dd281611d96565b9050919050565b7f4e487b7100000000000000000000000000000000000000000000000000000000600052601260045260246000fd5b6000611e1382611571565b9150611e1e83611571565b925082611e2e57611e2d611dd9565b5b828204905092915050565b6000611e4482611571565b9150611e4f83611571565b9250828203905081811115611e6757611e666118ae565b5b92915050565b7f5061796f7574206661696c65642e000000000000000000000000000000000000600082015250565b6000611ea3600e83611679565b9150611eae82611e6d565b602082019050919050565b60006020820190508181036000830152611ed281611e96565b9050919050565b7f4f7267616e697a6572207061796f7574206661696c65642e0000000000000000600082015250565b6000611f0f601883611679565b9150611f1a82611ed9565b602082019050919050565b60006020820190508181036000830152611f3e81611f02565b9050919050565b6000604082019050611f5a6000830185611644565b611f676020830184611644565b939250505056fea2646970667358221220d108e4b93f5fb6f5a2eb9f08baaf317179a5f1783fcff4b142795a98c4b2b10b64736f6c634300081c0033",
  "linkReferences": {},
  "deployedLinkReferences": {}
}