{
  "_format": "hh-sol-artifact-1",
  "contractName": "FootballGameBet",
  "sourceName": "contracts/FootballGameBet.sol",
  "abi": [
    {
      "inputs": [
        {
          "internalType": "string",
          "name": "_homeTeam",
          "type": "string"
        },
        {
          "internalType": "string",
          "name": "_awayTeam",
          "type": "string"
        },
        {
          "internalType": "uint256",
          "name": "_startTime",
          "type": "uint256"
        },
        {
          "internalType": "uint256",
          "name": "_stake",
          "type": "uint256"
        },
        {
          "internalType": "address payable",
          "name": "_organiser",
          "type": "address"
        }
      ],
      "stateMutability": "nonpayable",
      "type": "constructor"
    },
    {
      "inputs": [],
      "name": "awayTeam",
      "outputs": [
        {
          "internalType": "string",
          "name": "",
          "type": "string"
        }
      ],
      "stateMutability": "view",
      "type": "function"
    },
    {
      "inputs": [],
      "name": "awayTeamGoals",
      "outputs": [
        {
          "internalType": "uint8",
          "name": "",
          "type": "uint8"
        }
      ],
      "stateMutability": "view",
      "type": "function"
    },
    {
      "inputs": [],
      "name": "awayTeamPool",
      "outputs": [
        {
          "internalType": "uint256",
          "name": "",
          "type": "uint256"
        }
      ],
      "stateMutability": "view",
      "type": "function"
    },
    {
      "inputs": [],
      "name": "betOnAwayTeam",
      "outputs": [],
      "stateMutability": "payable",
      "type": "function"
    },
    {
      "inputs": [],
      "name": "betOnHomeTeam",
      "outputs": [],
      "stateMutability": "payable",
      "type": "function"
    },
    {
      "inputs": [
        {
          "internalType": "address",
          "name": "",
          "type": "address"
        }
      ],
      "name": "bets",
      "outputs": [
        {
          "internalType": "uint8",
          "name": "",
          "type": "uint8"
        }
      ],
      "stateMutability": "view",
      "type": "function"
    },
    {
      "inputs": [],
      "name": "factory",
      "outputs": [
        {
          "internalType": "address",
          "name": "",
          "type": "address"
        }
      ],
      "stateMutability": "view",
      "type": "function"
    },
    {
      "inputs": [
        {
          "internalType": "uint8",
          "name": "homeGoals",
          "type": "uint8"
        },
        {
          "internalType": "uint8",
          "name": "awayGoals",
          "type": "uint8"
        }
      ],
      "name": "gameFinished",
      "outputs": [],
      "stateMutability": "nonpayable",
      "type": "function"
    },
    {
      "inputs": [],
      "name": "getIsSettled",
      "outputs": [
        {
          "internalType": "bool",
          "name": "",
          "type": "bool"
        }
      ],
      "stateMutability": "view",
      "type": "function"
    },
    {
      "inputs": [],
      "name": "homeTeam",
      "outputs": [
        {
          "internalType": "string",
          "name": "",
          "type": "string"
        }
      ],
      "stateMutability": "view",
      "type": "function"
    },
    {
      "inputs": [],
      "name": "homeTeamGoals",
      "outputs": [
        {
          "internalType": "uint8",
          "name": "",
          "type": "uint8"
        }
      ],
      "stateMutability": "view",
      "type": "function"
    },
    {
      "inputs": [],
      "name": "homeTeamPool",
      "outputs": [
        {
          "internalType": "uint256",
          "name": "",
          "type": "uint256"
        }
      ],
      "stateMutability": "view",
      "type": "function"
    },
    {
      "inputs": [],
      "name": "isSettled",
      "outputs": [
        {
          "internalType": "bool",
          "name": "",
          "type": "bool"
        }
      ],
      "stateMutability": "view",
      "type": "function"
    },
    {
      "inputs": [],
      "name": "markets",
      "outputs": [
        {
          "internalType": "address",
          "name": "",
          "type": "address"
        }
      ],
      "stateMutability": "view",
      "type": "function"
    },
    {
      "inputs": [],
      "name": "organiser",
      "outputs": [
        {
          "internalType": "address payable",
          "name": "",
          "type": "address"
        }
      ],
      "stateMutability": "view",
      "type": "function"
    },
    {
      "inputs": [
        {
          "internalType": "uint256",
          "name": "",
          "type": "uint256"
        }
      ],
      "name": "players",
      "outputs": [
        {
          "internalType": "address payable",
          "name": "",
          "type": "address"
        }
      ],
      "stateMutability": "view",
      "type": "function"
    },
    {
      "inputs": [
        {
          "internalType": "address",
          "name": "_markets",
          "type": "address"
        }
      ],
      "name": "setMarkets",
      "outputs": [],
      "stateMutability": "nonpayable",
      "type": "function"
    },
    {
      "inputs": [],
      "name": "stake",
      "outputs": [
        {
          "internalType": "uint256",
          "name": "",
          "type": "uint256"
        }
      ],
      "stateMutability": "view",
      "type": "function"
    },
    {
      "inputs": [],
      "name": "startTime",
      "outputs": [
        {
          "internalType": "uint256",
          "name": "",
          "type": "uint256"
        }
      ],
      "stateMutability": "view",
      "type": "function"
    },
    {
      "inputs": [],
      "name": "totalAwayBets",
      "outputs": [
        {
          "internalType": "uint256",
          "name": "count",
          "type": "uint256"
        }
      ],
      "stateMutability": "view",
      "type": "function"
    },
    {
      "inputs": [],
      "name": "totalHomeBets",
      "outputs": [
        {
          "internalType": "uint256",
          "name": "count",
          "type": "uint256"
        }
      ],
      "stateMutability": "view",
      "type": "function"
    }
  ],
  "bytecode": "0x60806040526000600660006101000a81548160ff02191690831515021790555034801561002b57600080fd5b50604051612883380380612883833981810160405281019061004d919061041d565b42831161008f576040517f08c379a00000000000000000000000000000000000000000000000000000000081526004016100869061052d565b60405180910390fd5b60008551116100d3576040517f08c379a00000000000000000000000000000000000000000000000000000000081526004016100ca90610599565b60405180910390fd5b6000845111610117576040517f08c379a000000000000000000000000000000000000000000000000000000000815260040161010e90610605565b60405180910390fd5b6000821161015a576040517f08c379a000000000000000000000000000000000000000000000000000000000815260040161015190610671565b60405180910390fd5b846000908161016991906108a8565b50836001908161017991906108a8565b508260038190555080600460006101000a81548173ffffffffffffffffffffffffffffffffffffffff021916908373ffffffffffffffffffffffffffffffffffffffff1602179055508160058190555033600660016101000a81548173ffffffffffffffffffffffffffffffffffffffff021916908373ffffffffffffffffffffffffffffffffffffffff160217905550505050505061097a565b6000604051905090565b600080fd5b600080fd5b600080fd5b600080fd5b6000601f19601f8301169050919050565b7f4e487b7100000000000000000000000000000000000000000000000000000000600052604160045260246000fd5b61027b82610232565b810181811067ffffffffffffffff8211171561029a57610299610243565b5b80604052505050565b60006102ad610214565b90506102b98282610272565b919050565b600067ffffffffffffffff8211156102d9576102d8610243565b5b6102e282610232565b9050602081019050919050565b60005b8381101561030d5780820151818401526020810190506102f2565b60008484015250505050565b600061032c610327846102be565b6102a3565b9050828152602081018484840111156103485761034761022d565b5b6103538482856102ef565b509392505050565b600082601f8301126103705761036f610228565b5b8151610380848260208601610319565b91505092915050565b6000819050919050565b61039c81610389565b81146103a757600080fd5b50565b6000815190506103b981610393565b92915050565b600073ffffffffffffffffffffffffffffffffffffffff82169050919050565b60006103ea826103bf565b9050919050565b6103fa816103df565b811461040557600080fd5b50565b600081519050610417816103f1565b92915050565b600080600080600060a086880312156104395761043861021e565b5b600086015167ffffffffffffffff81111561045757610456610223565b5b6104638882890161035b565b955050602086015167ffffffffffffffff81111561048457610483610223565b5b6104908882890161035b565b94505060406104a1888289016103aa565b93505060606104b2888289016103aa565b92505060806104c388828901610408565b9150509295509295909350565b600082825260208201905092915050565b7f496e76616c69642067616d652073746172742074696d652e0000000000000000600082015250565b60006105176018836104d0565b9150610522826104e1565b602082019050919050565b600060208201905081810360008301526105468161050a565b9050919050565b7f486f6d65207465616d2072657175697265642e00000000000000000000000000600082015250565b60006105836013836104d0565b915061058e8261054d565b602082019050919050565b600060208201905081810360008301526105b281610576565b9050919050565b7f41776179207465616d2072657175697265642e00000000000000000000000000600082015250565b60006105ef6013836104d0565b91506105fa826105b9565b602082019050919050565b6000602082019050818103600083015261061e816105e2565b9050919050565b7f5374616b65206d75737420626520706f7369746976652e000000000000000000600082015250565b600061065b6017836104d0565b915061066682610625565b602082019050919050565b6000602082019050818103600083015261068a8161064e565b9050919050565b600081519050919050565b7f4e487b7100000000000000000000000000000000000000000000000000000000600052602260045260246000fd5b600060028204905060018216806106e357607f821691505b6020821081036106f6576106f561069c565b5b50919050565b60008190508160005260206000209050919050565b60006020601f8301049050919050565b600082821b905092915050565b60006008830261075e7fffffffffffffffffffffffffffffffffffffffffffffffffffffffffffffffff82610721565b6107688683610721565b95508019841693508086168417925050509392505050565b6000819050919050565b60006107a56107a061079b84610389565b610780565b610389565b9050919050565b6000819050919050565b6107bf8361078a565b6107d36107cb826107ac565b84845461072e565b825550505050565b600090565b6107e86107db565b6107f38184846107b6565b505050565b5b818110156108175761080c6000826107e0565b6001810190506107f9565b5050565b601f82111561085c5761082d816106fc565b61083684610711565b81016020851015610845578190505b61085961085185610711565b8301826107f8565b50505b505050565b600082821c905092915050565b600061087f60001984600802610861565b1980831691505092915050565b6000610898838361086e565b9150826002028217905092915050565b6108b182610691565b67ffffffffffffffff8111156108ca576108c9610243565b5b6108d482546106cb565b6108df82828561081b565b600060209050601f8311600181146109125760008415610900578287015190505b61090a858261088c565b865550610972565b601f198416610920866106fc565b60005b8281101561094857848901518255600182019150602085019450602081019050610923565b868310156109655784890151610961601f89168261086e565b8355505b6001600288020188555050505b505050505050565b611efa806109896000396000f3fe60806040526004361061012a5760003560e01c8063883ba26b116100ab578063ba03c83b1161006f578063ba03c83b146103a5578063c45a0155146103d0578063cc83f7fd146103fb578063f71d96cb14610424578063f842e50e14610461578063ff5a7ef81461048a5761012a565b8063883ba26b146102bc57806389a78f1a146102e7578063a937788b14610324578063ae989d361461034f578063b415f6331461037a5761012a565b806378e97925116100f257806378e97925146101e55780637c968e73146102105780637d79c1921461023b5780637e537486146102665780637f394e6f146102915761012a565b80632b6bfa281461012f5780633270bb5b1461015a5780633a4b66f1146101855780633ac2a032146101b05780635fe8bbda146101db575b600080fd5b34801561013b57600080fd5b50610144610494565b604051610151919061154c565b60405180910390f35b34801561016657600080fd5b5061016f61055e565b60405161017c9190611582565b60405180910390f35b34801561019157600080fd5b5061019a610571565b6040516101a7919061154c565b60405180910390f35b3480156101bc57600080fd5b506101c5610577565b6040516101d291906115de565b60405180910390f35b6101e361059d565b005b3480156101f157600080fd5b506101fa610776565b604051610207919061154c565b60405180910390f35b34801561021c57600080fd5b5061022561077c565b6040516102329190611615565b60405180910390f35b34801561024757600080fd5b5061025061078f565b60405161025d91906116c0565b60405180910390f35b34801561027257600080fd5b5061027b61081d565b6040516102889190611703565b60405180910390f35b34801561029d57600080fd5b506102a6610843565b6040516102b39190611615565b60405180910390f35b3480156102c857600080fd5b506102d1610856565b6040516102de9190611582565b60405180910390f35b3480156102f357600080fd5b5061030e6004803603810190610309919061174f565b61086d565b60405161031b9190611615565b60405180910390f35b34801561033057600080fd5b5061033961088d565b604051610346919061154c565b60405180910390f35b34801561035b57600080fd5b506103646108a9565b60405161037191906116c0565b60405180910390f35b34801561038657600080fd5b5061038f610937565b60405161039c919061154c565b60405180910390f35b3480156103b157600080fd5b506103ba610a01565b6040516103c7919061154c565b60405180910390f35b3480156103dc57600080fd5b506103e5610a1d565b6040516103f291906115de565b60405180910390f35b34801561040757600080fd5b50610422600480360381019061041d919061174f565b610a43565b005b34801561043057600080fd5b5061044b600480360381019061044691906117a8565b610c6f565b6040516104589190611703565b60405180910390f35b34801561046d57600080fd5b5061048860048036038101906104839190611801565b610cae565b005b61049261135a565b005b600080600090505b60098054905081101561055a57600260086000600984815481106104c3576104c2611841565b5b9060005260206000200160009054906101000a900473ffffffffffffffffffffffffffffffffffffffff1673ffffffffffffffffffffffffffffffffffffffff1673ffffffffffffffffffffffffffffffffffffffff16815260200190815260200160002060009054906101000a900460ff1660ff160361054d5781806105499061189f565b9250505b808060010191505061049c565b5090565b600660009054906101000a900460ff1681565b60055481565b600760009054906101000a900473ffffffffffffffffffffffffffffffffffffffff1681565b6000600860003373ffffffffffffffffffffffffffffffffffffffff1673ffffffffffffffffffffffffffffffffffffffff16815260200190815260200160002060009054906101000a900460ff1660ff161461062f576040517f08c379a000000000000000000000000000000000000000000000000000000000815260040161062690611933565b60405180910390fd5b600354421115610674576040517f08c379a000000000000000000000000000000000000000000000000000000000815260040161066b9061199f565b60405180910390fd5b60055434146106b8576040517f08c379a00000000000000000000000000000000000000000000000000000000081526004016106af90611a0b565b60405180910390fd5b6002600860003373ffffffffffffffffffffffffffffffffffffffff1673ffffffffffffffffffffffffffffffffffffffff16815260200190815260200160002060006101000a81548160ff021916908360ff1602179055506009339080600181540180825580915050600190039060005260206000200160009091909190916101000a81548173ffffffffffffffffffffffffffffffffffffffff021916908373ffffffffffffffffffffffffffffffffffffffff160217905550565b60035481565b600260009054906101000a900460ff1681565b6001805461079c90611a5a565b80601f01602080910402602001604051908101604052809291908181526020018280546107c890611a5a565b80156108155780601f106107ea57610100808354040283529160200191610815565b820191906000526020600020905b8154815290600101906020018083116107f857829003601f168201915b505050505081565b600460009054906101000a900473ffffffffffffffffffffffffffffffffffffffff1681565b600260019054906101000a900460ff1681565b6000600660009054906101000a900460ff16905090565b60086020528060005260406000206000915054906101000a900460ff1681565b6000610897610937565b6005546108a49190611a8b565b905090565b600080546108b690611a5a565b80601f01602080910402602001604051908101604052809291908181526020018280546108e290611a5a565b801561092f5780601f106109045761010080835404028352916020019161092f565b820191906000526020600020905b81548152906001019060200180831161091257829003601f168201915b505050505081565b600080600090505b6009805490508110156109fd576001600860006009848154811061096657610965611841565b5b9060005260206000200160009054906101000a900473ffffffffffffffffffffffffffffffffffffffff1673ffffffffffffffffffffffffffffffffffffffff1673ffffffffffffffffffffffffffffffffffffffff16815260200190815260200160002060009054906101000a900460ff1660ff16036109f05781806109ec9061189f565b9250505b808060010191505061093f565b5090565b6000610a0b610494565b600554610a189190611a8b565b905090565b600660019054906101000a900473ffffffffffffffffffffffffffffffffffffffff1681565b600460009054906101000a900473ffffffffffffffffffffffffffffffffffffffff1673ffffffffffffffffffffffffffffffffffffffff163373ffffffffffffffffffffffffffffffffffffffff161480610aec5750600660019054906101000a900473ffffffffffffffffffffffffffffffffffffffff1673ffffffffffffffffffffffffffffffffffffffff163373ffffffffffffffffffffffffffffffffffffffff16145b610b2b576040517f08c379a0000000000000000000000000000000000000000000000000000000008152600401610b2290611b19565b60405180910390fd5b600073ffffffffffffffffffffffffffffffffffffffff16600760009054906101000a900473ffffffffffffffffffffffffffffffffffffffff1673ffffffffffffffffffffffffffffffffffffffff1614610bbc576040517f08c379a0000000000000000000000000000000000000000000000000000000008152600401610bb390611b85565b60405180910390fd5b600073ffffffffffffffffffffffffffffffffffffffff168173ffffffffffffffffffffffffffffffffffffffff1603610c2b576040517f08c379a0000000000000000000000000000000000000000000000000000000008152600401610c2290611bf1565b60405180910390fd5b80600760006101000a81548173ffffffffffffffffffffffffffffffffffffffff021916908373ffffffffffffffffffffffffffffffffffffffff16021790555050565b60098181548110610c7f57600080fd5b906000526020600020016000915054906101000a900473ffffffffffffffffffffffffffffffffffffffff1681565b600460009054906101000a900473ffffffffffffffffffffffffffffffffffffffff1673ffffffffffffffffffffffffffffffffffffffff163373ffffffffffffffffffffffffffffffffffffffff1614610d3e576040517f08c379a0000000000000000000000000000000000000000000000000000000008152600401610d3590611c5d565b60405180910390fd5b81600260006101000a81548160ff021916908360ff16021790555080600260016101000a81548160ff021916908360ff1602179055506001600660006101000a81548160ff02191690831515021790555060008160ff168360ff1611610dba578260ff168260ff1611610db2576000610db5565b60025b610dbd565b60015b90506000479050600081111561126e5760008260ff1603610ee85760005b600980549050811015610ee257600060098281548110610dfe57610dfd611841565b5b9060005260206000200160009054906101000a900473ffffffffffffffffffffffffffffffffffffffff1673ffffffffffffffffffffffffffffffffffffffff16600554604051610e4e90611cae565b60006040518083038185875af1925050503d8060008114610e8b576040519150601f19603f3d011682016040523d82523d6000602084013e610e90565b606091505b5050905080610ed4576040517f08c379a0000000000000000000000000000000000000000000000000000000008152600401610ecb90611d0f565b60405180910390fd5b508080600101915050610ddb565b5061126d565b60006064600583610ef99190611a8b565b610f039190611d5e565b905060008183610f139190611d8f565b9050600080600090505b600980549050811015610fdd578560ff166008600060098481548110610f4657610f45611841565b5b9060005260206000200160009054906101000a900473ffffffffffffffffffffffffffffffffffffffff1673ffffffffffffffffffffffffffffffffffffffff1673ffffffffffffffffffffffffffffffffffffffff16815260200190815260200160002060009054906101000a900460ff1660ff1603610fd0578180610fcc9061189f565b9250505b8080600101915050610f1d565b50600081111561119a5760008183610ff59190611d5e565b905060005b600980549050811015611197578660ff16600860006009848154811061102357611022611841565b5b9060005260206000200160009054906101000a900473ffffffffffffffffffffffffffffffffffffffff1673ffffffffffffffffffffffffffffffffffffffff1673ffffffffffffffffffffffffffffffffffffffff16815260200190815260200160002060009054906101000a900460ff1660ff160361118a576000600982815481106110b4576110b3611841565b5b9060005260206000200160009054906101000a900473ffffffffffffffffffffffffffffffffffffffff1673ffffffffffffffffffffffffffffffffffffffff168360405161110290611cae565b60006040518083038185875af1925050503d806000811461113f576040519150601f19603f3d011682016040523d82523d6000602084013e611144565b606091505b5050905080611188576040517f08c379a000000000000000000000000000000000000000000000000000000000815260040161117f90611e0f565b60405180910390fd5b505b8080600101915050610ffa565b50505b6000600460009054906101000a900473ffffffffffffffffffffffffffffffffffffffff1673ffffffffffffffffffffffffffffffffffffffff16846040516111e290611cae565b60006040518083038185875af1925050503d806000811461121f576040519150601f19603f3d011682016040523d82523d6000602084013e611224565b606091505b5050905080611268576040517f08c379a000000000000000000000000000000000000000000000000000000000815260040161125f90611e7b565b60405180910390fd5b505050505b5b600073ffffffffffffffffffffffffffffffffffffffff16600760009054906101000a900473ffffffffffffffffffffffffffffffffffffffff1673ffffffffffffffffffffffffffffffffffffffff161461135457600760009054906101000a900473ffffffffffffffffffffffffffffffffffffffff1673ffffffffffffffffffffffffffffffffffffffff16632cffdacb85856040518363ffffffff1660e01b8152600401611321929190611e9b565b600060405180830381600087803b15801561133b57600080fd5b505af115801561134f573d6000803e3d6000fd5b505050505b50505050565b6000600860003373ffffffffffffffffffffffffffffffffffffffff1673ffffffffffffffffffffffffffffffffffffffff16815260200190815260200160002060009054906101000a900460ff1660ff16146113ec576040517f08c379a00000000000000000000000000000000000000000000000000000000081526004016113e390611933565b60405180910390fd5b600354421115611431576040517f08c379a00000000000000000000000000000000000000000000000000000000081526004016114289061199f565b60405180910390fd5b6005543414611475576040517f08c379a000000000000000000000000000000000000000000000000000000000815260040161146c90611a0b565b60405180910390fd5b6001600860003373ffffffffffffffffffffffffffffffffffffffff1673ffffffffffffffffffffffffffffffffffffffff16815260200190815260200160002060006101000a81548160ff021916908360ff1602179055506009339080600181540180825580915050600190039060005260206000200160009091909190916101000a81548173ffffffffffffffffffffffffffffffffffffffff021916908373ffffffffffffffffffffffffffffffffffffffff160217905550565b6000819050919050565b61154681611533565b82525050565b6000602082019050611561600083018461153d565b92915050565b60008115159050919050565b61157c81611567565b82525050565b60006020820190506115976000830184611573565b92915050565b600073ffffffffffffffffffffffffffffffffffffffff82169050919050565b60006115c88261159d565b9050919050565b6115d8816115bd565b82525050565b60006020820190506115f360008301846115cf565b92915050565b600060ff82169050919050565b61160f816115f9565b82525050565b600060208201905061162a6000830184611606565b92915050565b600081519050919050565b600082825260208201905092915050565b60005b8381101561166a57808201518184015260208101905061164f565b60008484015250505050565b6000601f19601f8301169050919050565b600061169282611630565b61169c818561163b565b93506116ac81856020860161164c565b6116b581611676565b840191505092915050565b600060208201905081810360008301526116da8184611687565b905092915050565b60006116ed8261159d565b9050919050565b6116fd816116e2565b82525050565b600060208201905061171860008301846116f4565b92915050565b600080fd5b61172c816115bd565b811461173757600080fd5b50565b60008135905061174981611723565b92915050565b6000602082840312156117655761176461171e565b5b60006117738482850161173a565b91505092915050565b61178581611533565b811461179057600080fd5b50565b6000813590506117a28161177c565b92915050565b6000602082840312156117be576117bd61171e565b5b60006117cc84828501611793565b91505092915050565b6117de816115f9565b81146117e957600080fd5b50565b6000813590506117fb816117d5565b92915050565b600080604083850312156118185761181761171e565b5b6000611826858286016117ec565b9250506020611837858286016117ec565b9150509250929050565b7f4e487b7100000000000000000000000000000000000000000000000000000000600052603260045260246000fd5b7f4e487b7100000000000000000000000000000000000000000000000000000000600052601160045260246000fd5b60006118aa82611533565b91507fffffffffffffffffffffffffffffffffffffffffffffffffffffffffffffffff82036118dc576118db611870565b5b600182019050919050565b7f42657420616c726561647920706c616365642e00000000000000000000000000600082015250565b600061191d60138361163b565b9150611928826118e7565b602082019050919050565b6000602082019050818103600083015261194c81611910565b9050919050565b7f42657474696e6720636c6f7365642e0000000000000000000000000000000000600082015250565b6000611989600f8361163b565b915061199482611953565b602082019050919050565b600060208201905081810360008301526119b88161197c565b9050919050565b7f496e636f7272656374207374616b6520616d6f756e742e000000000000000000600082015250565b60006119f560178361163b565b9150611a00826119bf565b602082019050919050565b60006020820190508181036000830152611a24816119e8565b9050919050565b7f4e487b7100000000000000000000000000000000000000000000000000000000600052602260045260246000fd5b60006002820490506001821680611a7257607f821691505b602082108103611a8557611a84611a2b565b5b50919050565b6000611a9682611533565b9150611aa183611533565b9250828202611aaf81611533565b91508282048414831517611ac657611ac5611870565b5b5092915050565b7f4e6f7420617574686f72697a6564000000000000000000000000000000000000600082015250565b6000611b03600e8361163b565b9150611b0e82611acd565b602082019050919050565b60006020820190508181036000830152611b3281611af6565b9050919050565b7f4d61726b65747320616c72656164792073657400000000000000000000000000600082015250565b6000611b6f60138361163b565b9150611b7a82611b39565b602082019050919050565b60006020820190508181036000830152611b9e81611b62565b9050919050565b7f496e76616c6964206d61726b6574730000000000000000000000000000000000600082015250565b6000611bdb600f8361163b565b9150611be682611ba5565b602082019050919050565b60006020820190508181036000830152611c0a81611bce565b9050919050565b7f4f6e6c79206f7267616e6973657220616c6c6f7765642e000000000000000000600082015250565b6000611c4760178361163b565b9150611c5282611c11565b602082019050919050565b60006020820190508181036000830152611c7681611c3a565b9050919050565b600081905092915050565b50565b6000611c98600083611c7d565b9150611ca382611c88565b600082019050919050565b6000611cb982611c8b565b9150819050919050565b7f526566756e64206661696c65642e000000000000000000000000000000000000600082015250565b6000611cf9600e8361163b565b9150611d0482611cc3565b602082019050919050565b60006020820190508181036000830152611d2881611cec565b9050919050565b7f4e487b7100000000000000000000000000000000000000000000000000000000600052601260045260246000fd5b6000611d6982611533565b9150611d7483611533565b925082611d8457611d83611d2f565b5b828204905092915050565b6000611d9a82611533565b9150611da583611533565b9250828203905081811115611dbd57611dbc611870565b5b92915050565b7f5061796f7574206661696c65642e000000000000000000000000000000000000600082015250565b6000611df9600e8361163b565b9150611e0482611dc3565b602082019050919050565b60006020820190508181036000830152611e2881611dec565b9050919050565b7f4f7267616e697a6572207061796f7574206661696c65642e0000000000000000600082015250565b6000611e6560188361163b565b9150611e7082611e2f565b602082019050919050565b60006020820190508181036000830152611e9481611e58565b9050919050565b6000604082019050611eb06000830185611606565b611ebd6020830184611606565b939250505056fea26469706673582212209069b33897fb5570c1c039a186bc52d7e7bb7d7568378650424a0993ca35c73364736f6c634300081c0033",
  "linkReferences": {},
  "deployedLinkReferences": {}
}