{
  "_format": "hh-sol-artifact-1",
  "contractName": "FootballGameBet",
  "sourceName": "contracts/FootballGameBet.sol",
  "abi": [
    {
      "inputs": [
        {
          "internalType": "string",
          "name": "_homeTeam",
          "type": "string"
        },
        {
          "internalType": "string",
          "name": "_awayTeam",
          "type": "string"
        },
        {
          "internalType": "uint256",
          "name": "_startTime",
          "type": "uint256"
        },
        {
          "internalType": "uint256",
          "name": "_stake",
          "type": "uint256"
        },
        {
          "internalType": "address payable",
          "name": "_organiser",
          "type": "address"
        }
      ],
      "stateMutability": "nonpayable",
      "type": "constructor"
    },
    {
      "inputs": [],
      "name": "awayTeam",
      "outputs": [
        {
          "internalType": "string",
          "name": "",
          "type": "string"
        }
      ],
      "stateMutability": "view",
      "type": "function"
    },
    {
      "inputs": [],
      "name": "awayTeamGoals",
      "outputs": [
        {
          "internalType": "uint8",
          "name": "",
          "type": "uint8"
        }
      ],
      "stateMutability": "view",
      "type": "function"
    },
    {
      "inputs": [],
      "name": "betOnAwayTeam",
      "outputs": [],
      "stateMutability": "payable",
      "type": "function"
    },
    {
      "inputs": [],
      "name": "betOnHomeTeam",
      "outputs": [],
      "stateMutability": "payable",
      "type": "function"
    },
    {
      "inputs": [
        {
          "internalType": "address",
          "name": "",
          "type": "address"
        }
      ],
      "name": "bets",
      "outputs": [
        {
          "internalType": "uint8",
          "name": "",
          "type": "uint8"
        }
      ],
      "stateMutability": "view",
      "type": "function"
    },
    {
      "inputs": [
        {
          "internalType": "uint8",
          "name": "homeGoals",
          "type": "uint8"
        },
        {
          "internalType": "uint8",
          "name": "awayGoals",
          "type": "uint8"
        }
      ],
      "name": "gameFinished",
      "outputs": [],
      "stateMutability": "nonpayable",
      "type": "function"
    },
    {
      "inputs": [],
      "name": "homeTeam",
      "outputs": [
        {
          "internalType": "string",
          "name": "",
          "type": "string"
        }
      ],
      "stateMutability": "view",
      "type": "function"
    },
    {
      "inputs": [],
      "name": "homeTeamGoals",
      "outputs": [
        {
          "internalType": "uint8",
          "name": "",
          "type": "uint8"
        }
      ],
      "stateMutability": "view",
      "type": "function"
    },
    {
      "inputs": [],
      "name": "organiser",
      "outputs": [
        {
          "internalType": "address payable",
          "name": "",
          "type": "address"
        }
      ],
      "stateMutability": "view",
      "type": "function"
    },
    {
      "inputs": [
        {
          "internalType": "uint256",
          "name": "",
          "type": "uint256"
        }
      ],
      "name": "players",
      "outputs": [
        {
          "internalType": "address payable",
          "name": "",
          "type": "address"
        }
      ],
      "stateMutability": "view",
      "type": "function"
    },
    {
      "inputs": [],
      "name": "stake",
      "outputs": [
        {
          "internalType": "uint256",
          "name": "",
          "type": "uint256"
        }
      ],
      "stateMutability": "view",
      "type": "function"
    },
    {
      "inputs": [],
      "name": "startTime",
      "outputs": [
        {
          "internalType": "uint256",
          "name": "",
          "type": "uint256"
        }
      ],
      "stateMutability": "view",
      "type": "function"
    }
  ],
  "bytecode": "0x608060405234801561001057600080fd5b50604051611f82380380611f82833981810160405281019061003291906103c1565b428311610074576040517f08c379a000000000000000000000000000000000000000000000000000000000815260040161006b906104d1565b60405180910390fd5b60008551116100b8576040517f08c379a00000000000000000000000000000000000000000000000000000000081526004016100af9061053d565b60405180910390fd5b60008451116100fc576040517f08c379a00000000000000000000000000000000000000000000000000000000081526004016100f3906105a9565b60405180910390fd5b6000821161013f576040517f08c379a000000000000000000000000000000000000000000000000000000000815260040161013690610615565b60405180910390fd5b846000908161014e919061084c565b50836001908161015e919061084c565b508260038190555080600460006101000a81548173ffffffffffffffffffffffffffffffffffffffff021916908373ffffffffffffffffffffffffffffffffffffffff16021790555081600581905550505050505061091e565b6000604051905090565b600080fd5b600080fd5b600080fd5b600080fd5b6000601f19601f8301169050919050565b7f4e487b7100000000000000000000000000000000000000000000000000000000600052604160045260246000fd5b61021f826101d6565b810181811067ffffffffffffffff8211171561023e5761023d6101e7565b5b80604052505050565b60006102516101b8565b905061025d8282610216565b919050565b600067ffffffffffffffff82111561027d5761027c6101e7565b5b610286826101d6565b9050602081019050919050565b60005b838110156102b1578082015181840152602081019050610296565b60008484015250505050565b60006102d06102cb84610262565b610247565b9050828152602081018484840111156102ec576102eb6101d1565b5b6102f7848285610293565b509392505050565b600082601f830112610314576103136101cc565b5b81516103248482602086016102bd565b91505092915050565b6000819050919050565b6103408161032d565b811461034b57600080fd5b50565b60008151905061035d81610337565b92915050565b600073ffffffffffffffffffffffffffffffffffffffff82169050919050565b600061038e82610363565b9050919050565b61039e81610383565b81146103a957600080fd5b50565b6000815190506103bb81610395565b92915050565b600080600080600060a086880312156103dd576103dc6101c2565b5b600086015167ffffffffffffffff8111156103fb576103fa6101c7565b5b610407888289016102ff565b955050602086015167ffffffffffffffff811115610428576104276101c7565b5b610434888289016102ff565b94505060406104458882890161034e565b93505060606104568882890161034e565b9250506080610467888289016103ac565b9150509295509295909350565b600082825260208201905092915050565b7f496e76616c69642067616d652073746172742074696d652e0000000000000000600082015250565b60006104bb601883610474565b91506104c682610485565b602082019050919050565b600060208201905081810360008301526104ea816104ae565b9050919050565b7f486f6d65207465616d2072657175697265642e00000000000000000000000000600082015250565b6000610527601383610474565b9150610532826104f1565b602082019050919050565b600060208201905081810360008301526105568161051a565b9050919050565b7f41776179207465616d2072657175697265642e00000000000000000000000000600082015250565b6000610593601383610474565b915061059e8261055d565b602082019050919050565b600060208201905081810360008301526105c281610586565b9050919050565b7f5374616b65206d75737420626520706f7369746976652e000000000000000000600082015250565b60006105ff601783610474565b915061060a826105c9565b602082019050919050565b6000602082019050818103600083015261062e816105f2565b9050919050565b600081519050919050565b7f4e487b7100000000000000000000000000000000000000000000000000000000600052602260045260246000fd5b6000600282049050600182168061068757607f821691505b60208210810361069a57610699610640565b5b50919050565b60008190508160005260206000209050919050565b60006020601f8301049050919050565b600082821b905092915050565b6000600883026107027fffffffffffffffffffffffffffffffffffffffffffffffffffffffffffffffff826106c5565b61070c86836106c5565b95508019841693508086168417925050509392505050565b6000819050919050565b600061074961074461073f8461032d565b610724565b61032d565b9050919050565b6000819050919050565b6107638361072e565b61077761076f82610750565b8484546106d2565b825550505050565b600090565b61078c61077f565b61079781848461075a565b505050565b5b818110156107bb576107b0600082610784565b60018101905061079d565b5050565b601f821115610800576107d1816106a0565b6107da846106b5565b810160208510156107e9578190505b6107fd6107f5856106b5565b83018261079c565b50505b505050565b600082821c905092915050565b600061082360001984600802610805565b1980831691505092915050565b600061083c8383610812565b9150826002028217905092915050565b61085582610635565b67ffffffffffffffff81111561086e5761086d6101e7565b5b610878825461066f565b6108838282856107bf565b600060209050601f8311600181146108b657600084156108a4578287015190505b6108ae8582610830565b865550610916565b601f1984166108c4866106a0565b60005b828110156108ec578489015182556001820191506020850194506020810190506108c7565b868310156109095784890151610905601f891682610812565b8355505b6001600288020188555050505b505050505050565b6116558061092d6000396000f3fe6080604052600436106100a75760003560e01c80637f394e6f116100645780637f394e6f1461018d57806389a78f1a146101b8578063ae989d36146101f5578063f71d96cb14610220578063f842e50e1461025d578063ff5a7ef814610286576100a7565b80633a4b66f1146100ac5780635fe8bbda146100d757806378e97925146100e15780637c968e731461010c5780637d79c192146101375780637e53748614610162575b600080fd5b3480156100b857600080fd5b506100c1610290565b6040516100ce9190610e08565b60405180910390f35b6100df610296565b005b3480156100ed57600080fd5b506100f661046f565b6040516101039190610e08565b60405180910390f35b34801561011857600080fd5b50610121610475565b60405161012e9190610e3f565b60405180910390f35b34801561014357600080fd5b5061014c610488565b6040516101599190610eea565b60405180910390f35b34801561016e57600080fd5b50610177610516565b6040516101849190610f4d565b60405180910390f35b34801561019957600080fd5b506101a261053c565b6040516101af9190610e3f565b60405180910390f35b3480156101c457600080fd5b506101df60048036038101906101da9190610fab565b61054f565b6040516101ec9190610e3f565b60405180910390f35b34801561020157600080fd5b5061020a61056f565b6040516102179190610eea565b60405180910390f35b34801561022c57600080fd5b5061024760048036038101906102429190611004565b6105fd565b6040516102549190610f4d565b60405180910390f35b34801561026957600080fd5b50610284600480360381019061027f919061105d565b61063c565b005b61028e610c16565b005b60055481565b6000600660003373ffffffffffffffffffffffffffffffffffffffff1673ffffffffffffffffffffffffffffffffffffffff16815260200190815260200160002060009054906101000a900460ff1660ff1614610328576040517f08c379a000000000000000000000000000000000000000000000000000000000815260040161031f906110e9565b60405180910390fd5b60035442111561036d576040517f08c379a000000000000000000000000000000000000000000000000000000000815260040161036490611155565b60405180910390fd5b60055434146103b1576040517f08c379a00000000000000000000000000000000000000000000000000000000081526004016103a8906111c1565b60405180910390fd5b6002600660003373ffffffffffffffffffffffffffffffffffffffff1673ffffffffffffffffffffffffffffffffffffffff16815260200190815260200160002060006101000a81548160ff021916908360ff1602179055506007339080600181540180825580915050600190039060005260206000200160009091909190916101000a81548173ffffffffffffffffffffffffffffffffffffffff021916908373ffffffffffffffffffffffffffffffffffffffff160217905550565b60035481565b600260009054906101000a900460ff1681565b6001805461049590611210565b80601f01602080910402602001604051908101604052809291908181526020018280546104c190611210565b801561050e5780601f106104e35761010080835404028352916020019161050e565b820191906000526020600020905b8154815290600101906020018083116104f157829003601f168201915b505050505081565b600460009054906101000a900473ffffffffffffffffffffffffffffffffffffffff1681565b600260019054906101000a900460ff1681565b60066020528060005260406000206000915054906101000a900460ff1681565b6000805461057c90611210565b80601f01602080910402602001604051908101604052809291908181526020018280546105a890611210565b80156105f55780601f106105ca576101008083540402835291602001916105f5565b820191906000526020600020905b8154815290600101906020018083116105d857829003601f168201915b505050505081565b6007818154811061060d57600080fd5b906000526020600020016000915054906101000a900473ffffffffffffffffffffffffffffffffffffffff1681565b600460009054906101000a900473ffffffffffffffffffffffffffffffffffffffff1673ffffffffffffffffffffffffffffffffffffffff163373ffffffffffffffffffffffffffffffffffffffff16146106cc576040517f08c379a00000000000000000000000000000000000000000000000000000000081526004016106c39061128d565b60405180910390fd5b6000471161070f576040517f08c379a0000000000000000000000000000000000000000000000000000000008152600401610706906112f9565b60405180910390fd5b81600260006101000a81548160ff021916908360ff16021790555080600260016101000a81548160ff021916908360ff16021790555060008160ff168360ff1611610770578260ff168260ff161161076857600061076b565b60025b610773565b60015b9050600047905060008260ff16036108955760005b60078054905081101561088f576000600782815481106107ab576107aa611319565b5b9060005260206000200160009054906101000a900473ffffffffffffffffffffffffffffffffffffffff1673ffffffffffffffffffffffffffffffffffffffff166005546040516107fb90611379565b60006040518083038185875af1925050503d8060008114610838576040519150601f19603f3d011682016040523d82523d6000602084013e61083d565b606091505b5050905080610881576040517f08c379a0000000000000000000000000000000000000000000000000000000008152600401610878906113da565b60405180910390fd5b508080600101915050610788565b50610c10565b600060646005836108a69190611429565b6108b0919061149a565b9050600081836108c091906114cb565b9050600080600090505b60078054905081101561098a578560ff1660066000600784815481106108f3576108f2611319565b5b9060005260206000200160009054906101000a900473ffffffffffffffffffffffffffffffffffffffff1673ffffffffffffffffffffffffffffffffffffffff1673ffffffffffffffffffffffffffffffffffffffff16815260200190815260200160002060009054906101000a900460ff1660ff160361097d578180610979906114ff565b9250505b80806001019150506108ca565b5060008183610999919061149a565b905060005b600780549050811015610b3b578660ff1660066000600784815481106109c7576109c6611319565b5b9060005260206000200160009054906101000a900473ffffffffffffffffffffffffffffffffffffffff1673ffffffffffffffffffffffffffffffffffffffff1673ffffffffffffffffffffffffffffffffffffffff16815260200190815260200160002060009054906101000a900460ff1660ff1603610b2e57600060078281548110610a5857610a57611319565b5b9060005260206000200160009054906101000a900473ffffffffffffffffffffffffffffffffffffffff1673ffffffffffffffffffffffffffffffffffffffff1683604051610aa690611379565b60006040518083038185875af1925050503d8060008114610ae3576040519150601f19603f3d011682016040523d82523d6000602084013e610ae8565b606091505b5050905080610b2c576040517f08c379a0000000000000000000000000000000000000000000000000000000008152600401610b2390611593565b60405180910390fd5b505b808060010191505061099e565b506000600460009054906101000a900473ffffffffffffffffffffffffffffffffffffffff1673ffffffffffffffffffffffffffffffffffffffff1685604051610b8490611379565b60006040518083038185875af1925050503d8060008114610bc1576040519150601f19603f3d011682016040523d82523d6000602084013e610bc6565b606091505b5050905080610c0a576040517f08c379a0000000000000000000000000000000000000000000000000000000008152600401610c01906115ff565b60405180910390fd5b50505050505b50505050565b6000600660003373ffffffffffffffffffffffffffffffffffffffff1673ffffffffffffffffffffffffffffffffffffffff16815260200190815260200160002060009054906101000a900460ff1660ff1614610ca8576040517f08c379a0000000000000000000000000000000000000000000000000000000008152600401610c9f906110e9565b60405180910390fd5b600354421115610ced576040517f08c379a0000000000000000000000000000000000000000000000000000000008152600401610ce490611155565b60405180910390fd5b6005543414610d31576040517f08c379a0000000000000000000000000000000000000000000000000000000008152600401610d28906111c1565b60405180910390fd5b6001600660003373ffffffffffffffffffffffffffffffffffffffff1673ffffffffffffffffffffffffffffffffffffffff16815260200190815260200160002060006101000a81548160ff021916908360ff1602179055506007339080600181540180825580915050600190039060005260206000200160009091909190916101000a81548173ffffffffffffffffffffffffffffffffffffffff021916908373ffffffffffffffffffffffffffffffffffffffff160217905550565b6000819050919050565b610e0281610def565b82525050565b6000602082019050610e1d6000830184610df9565b92915050565b600060ff82169050919050565b610e3981610e23565b82525050565b6000602082019050610e546000830184610e30565b92915050565b600081519050919050565b600082825260208201905092915050565b60005b83811015610e94578082015181840152602081019050610e79565b60008484015250505050565b6000601f19601f8301169050919050565b6000610ebc82610e5a565b610ec68185610e65565b9350610ed6818560208601610e76565b610edf81610ea0565b840191505092915050565b60006020820190508181036000830152610f048184610eb1565b905092915050565b600073ffffffffffffffffffffffffffffffffffffffff82169050919050565b6000610f3782610f0c565b9050919050565b610f4781610f2c565b82525050565b6000602082019050610f626000830184610f3e565b92915050565b600080fd5b6000610f7882610f0c565b9050919050565b610f8881610f6d565b8114610f9357600080fd5b50565b600081359050610fa581610f7f565b92915050565b600060208284031215610fc157610fc0610f68565b5b6000610fcf84828501610f96565b91505092915050565b610fe181610def565b8114610fec57600080fd5b50565b600081359050610ffe81610fd8565b92915050565b60006020828403121561101a57611019610f68565b5b600061102884828501610fef565b91505092915050565b61103a81610e23565b811461104557600080fd5b50565b60008135905061105781611031565b92915050565b6000806040838503121561107457611073610f68565b5b600061108285828601611048565b925050602061109385828601611048565b9150509250929050565b7f42657420616c726561647920706c616365642e00000000000000000000000000600082015250565b60006110d3601383610e65565b91506110de8261109d565b602082019050919050565b60006020820190508181036000830152611102816110c6565b9050919050565b7f42657474696e6720636c6f7365642e0000000000000000000000000000000000600082015250565b600061113f600f83610e65565b915061114a82611109565b602082019050919050565b6000602082019050818103600083015261116e81611132565b9050919050565b7f496e636f7272656374207374616b6520616d6f756e742e000000000000000000600082015250565b60006111ab601783610e65565b91506111b682611175565b602082019050919050565b600060208201905081810360008301526111da8161119e565b9050919050565b7f4e487b7100000000000000000000000000000000000000000000000000000000600052602260045260246000fd5b6000600282049050600182168061122857607f821691505b60208210810361123b5761123a6111e1565b5b50919050565b7f4f6e6c79206f7267616e6973657220616c6c6f7765642e000000000000000000600082015250565b6000611277601783610e65565b915061128282611241565b602082019050919050565b600060208201905081810360008301526112a68161126a565b9050919050565b7f436f6e74726163742062616c616e636520656d7074792e000000000000000000600082015250565b60006112e3601783610e65565b91506112ee826112ad565b602082019050919050565b60006020820190508181036000830152611312816112d6565b9050919050565b7f4e487b7100000000000000000000000000000000000000000000000000000000600052603260045260246000fd5b600081905092915050565b50565b6000611363600083611348565b915061136e82611353565b600082019050919050565b600061138482611356565b9150819050919050565b7f526566756e64206661696c65642e000000000000000000000000000000000000600082015250565b60006113c4600e83610e65565b91506113cf8261138e565b602082019050919050565b600060208201905081810360008301526113f3816113b7565b9050919050565b7f4e487b7100000000000000000000000000000000000000000000000000000000600052601160045260246000fd5b600061143482610def565b915061143f83610def565b925082820261144d81610def565b91508282048414831517611464576114636113fa565b5b5092915050565b7f4e487b7100000000000000000000000000000000000000000000000000000000600052601260045260246000fd5b60006114a582610def565b91506114b083610def565b9250826114c0576114bf61146b565b5b828204905092915050565b60006114d682610def565b91506114e183610def565b92508282039050818111156114f9576114f86113fa565b5b92915050565b600061150a82610def565b91507fffffffffffffffffffffffffffffffffffffffffffffffffffffffffffffffff820361153c5761153b6113fa565b5b600182019050919050565b7f5061796f7574206661696c65642e000000000000000000000000000000000000600082015250565b600061157d600e83610e65565b915061158882611547565b602082019050919050565b600060208201905081810360008301526115ac81611570565b9050919050565b7f4f7267616e697a6572207061796f7574206661696c65642e0000000000000000600082015250565b60006115e9601883610e65565b91506115f4826115b3565b602082019050919050565b60006020820190508181036000830152611618816115dc565b905091905056fea26469706673582212204b9c2fdd1c76ffd2bf439126f794bfd1436ae6d5bfa21088cdac58caecd44a1164736f6c634300081c0033",
  "linkReferences": {},
  "deployedLinkReferences": {}
}