{
  "_format": "hh-sol-artifact-1",
  "contractName": "GameBet",
  "sourceName": "contracts/GameBet.sol",
  "abi": [
    {
      "inputs": [
        {
          "internalType": "uint256",
          "name": "",
          "type": "uint256"
        }
      ],
      "name": "allBets",
      "outputs": [
        {
          "internalType": "address",
          "name": "",
          "type": "address"
        }
      ],
      "stateMutability": "view",
      "type": "function"
    },
    {
      "inputs": [
        {
          "internalType": "address",
          "name": "organiser",
          "type": "address"
        },
        {
          "internalType": "address",
          "name": "bet",
          "type": "address"
        }
      ],
      "name": "canVote",
      "outputs": [
        {
          "internalType": "bool",
          "name": "",
          "type": "bool"
        }
      ],
      "stateMutability": "view",
      "type": "function"
    },
    {
      "inputs": [
        {
          "internalType": "string",
          "name": "homeTeam",
          "type": "string"
        },
        {
          "internalType": "string",
          "name": "awayTeam",
          "type": "string"
        },
        {
          "internalType": "uint256",
          "name": "startTime",
          "type": "uint256"
        },
        {
          "internalType": "uint256",
          "name": "stake",
          "type": "uint256"
        }
      ],
      "name": "createFootballBet",
      "outputs": [],
      "stateMutability": "payable",
      "type": "function"
    },
    {
      "inputs": [],
      "name": "getBets",
      "outputs": [
        {
          "internalType": "address[]",
          "name": "",
          "type": "address[]"
        }
      ],
      "stateMutability": "view",
      "type": "function"
    },
    {
      "inputs": [],
      "name": "getOrganisers",
      "outputs": [
        {
          "internalType": "address[]",
          "name": "",
          "type": "address[]"
        }
      ],
      "stateMutability": "view",
      "type": "function"
    },
    {
      "inputs": [
        {
          "internalType": "address",
          "name": "",
          "type": "address"
        },
        {
          "internalType": "address",
          "name": "",
          "type": "address"
        },
        {
          "internalType": "address",
          "name": "",
          "type": "address"
        }
      ],
      "name": "hasVoted",
      "outputs": [
        {
          "internalType": "bool",
          "name": "",
          "type": "bool"
        }
      ],
      "stateMutability": "view",
      "type": "function"
    },
    {
      "inputs": [
        {
          "internalType": "uint256",
          "name": "",
          "type": "uint256"
        }
      ],
      "name": "organisers",
      "outputs": [
        {
          "internalType": "address",
          "name": "",
          "type": "address"
        }
      ],
      "stateMutability": "view",
      "type": "function"
    },
    {
      "inputs": [
        {
          "internalType": "address",
          "name": "",
          "type": "address"
        }
      ],
      "name": "ratings",
      "outputs": [
        {
          "internalType": "bool",
          "name": "active",
          "type": "bool"
        },
        {
          "internalType": "uint256",
          "name": "totalRate",
          "type": "uint256"
        },
        {
          "internalType": "uint256",
          "name": "numberOfTimesRated",
          "type": "uint256"
        }
      ],
      "stateMutability": "view",
      "type": "function"
    },
    {
      "inputs": [
        {
          "internalType": "address",
          "name": "organiser",
          "type": "address"
        },
        {
          "internalType": "address",
          "name": "bet",
          "type": "address"
        },
        {
          "internalType": "uint8",
          "name": "rate",
          "type": "uint8"
        }
      ],
      "name": "vote",
      "outputs": [],
      "stateMutability": "nonpayable",
      "type": "function"
    }
  ],
  "bytecode": "0x6080604052348015600f57600080fd5b50615d4d8061001f6000396000f3fe6080604052600436106100865760003560e01c80639e01dfbb116100595780639e01dfbb14610138578063a44f83e514610177578063a6afd5fd146101b4578063e0ced0e1146101df578063f69371451461021c57610086565b806329222d981461008b57806338ff13aa146100b65780634873d68d146100d2578063565d75391461010f575b600080fd5b34801561009757600080fd5b506100a0610259565b6040516100ad9190610d2c565b60405180910390f35b6100d060048036038101906100cb9190610ede565b6102e7565b005b3480156100de57600080fd5b506100f960048036038101906100f49190610fa9565b61054d565b6040516101069190611004565b60405180910390f35b34801561011b57600080fd5b5061013660048036038101906101319190611058565b610888565b005b34801561014457600080fd5b5061015f600480360381019061015a91906110ab565b610aa3565b60405161016e939291906110e7565b60405180910390f35b34801561018357600080fd5b5061019e6004803603810190610199919061111e565b610ada565b6040516101ab9190611004565b60405180910390f35b3480156101c057600080fd5b506101c9610b16565b6040516101d69190610d2c565b60405180910390f35b3480156101eb57600080fd5b5061020660048036038101906102019190611171565b610ba4565b60405161021391906111ad565b60405180910390f35b34801561022857600080fd5b50610243600480360381019061023e9190611171565b610be3565b60405161025091906111ad565b60405180910390f35b606060008054806020026020016040519081016040528092919081815260200182805480156102dd57602002820191906000526020600020905b8160009054906101000a900473ffffffffffffffffffffffffffffffffffffffff1673ffffffffffffffffffffffffffffffffffffffff1681526020019060010190808311610293575b5050505050905090565b600084848484336040516102fa90610c22565b610308959493929190611268565b604051809103906000f080158015610324573d6000803e3d6000fd5b5090506003819080600181540180825580915050600190039060005260206000200160009091909190916101000a81548173ffffffffffffffffffffffffffffffffffffffff021916908373ffffffffffffffffffffffffffffffffffffffff16021790555060003384848460405161039c90610c2f565b6103a994939291906112c9565b604051809103906000f0801580156103c5573d6000803e3d6000fd5b5090508173ffffffffffffffffffffffffffffffffffffffff1663cc83f7fd826040518263ffffffff1660e01b815260040161040191906111ad565b600060405180830381600087803b15801561041b57600080fd5b505af115801561042f573d6000803e3d6000fd5b50505050600160003373ffffffffffffffffffffffffffffffffffffffff1673ffffffffffffffffffffffffffffffffffffffff16815260200190815260200160002060000160009054906101000a900460ff166105455760018060003373ffffffffffffffffffffffffffffffffffffffff1673ffffffffffffffffffffffffffffffffffffffff16815260200190815260200160002060000160006101000a81548160ff0219169083151502179055506000339080600181540180825580915050600190039060005260206000200160009091909190916101000a81548173ffffffffffffffffffffffffffffffffffffffff021916908373ffffffffffffffffffffffffffffffffffffffff1602179055505b505050505050565b60008273ffffffffffffffffffffffffffffffffffffffff163373ffffffffffffffffffffffffffffffffffffffff160361058b5760009050610882565b600160008473ffffffffffffffffffffffffffffffffffffffff1673ffffffffffffffffffffffffffffffffffffffff16815260200190815260200160002060000160009054906101000a900460ff166105e85760009050610882565b60008290508073ffffffffffffffffffffffffffffffffffffffff166378e979256040518163ffffffff1660e01b8152600401602060405180830381865afa158015610638573d6000803e3d6000fd5b505050506040513d601f19601f8201168201806040525081019061065c9190611323565b42101561066d576000915050610882565b8373ffffffffffffffffffffffffffffffffffffffff168173ffffffffffffffffffffffffffffffffffffffff16637e5374866040518163ffffffff1660e01b8152600401602060405180830381865afa1580156106cf573d6000803e3d6000fd5b505050506040513d601f19601f820116820180604052508101906106f3919061137c565b73ffffffffffffffffffffffffffffffffffffffff1614610718576000915050610882565b60008173ffffffffffffffffffffffffffffffffffffffff166389a78f1a336040518263ffffffff1660e01b815260040161075391906111ad565b602060405180830381865afa158015610770573d6000803e3d6000fd5b505050506040513d601f19601f8201168201806040525081019061079491906113be565b60ff16036107a6576000915050610882565b600260008573ffffffffffffffffffffffffffffffffffffffff1673ffffffffffffffffffffffffffffffffffffffff16815260200190815260200160002060008473ffffffffffffffffffffffffffffffffffffffff1673ffffffffffffffffffffffffffffffffffffffff16815260200190815260200160002060003373ffffffffffffffffffffffffffffffffffffffff1673ffffffffffffffffffffffffffffffffffffffff16815260200190815260200160002060009054906101000a900460ff161561087c576000915050610882565b60019150505b92915050565b60058160ff1611156108cf576040517f08c379a00000000000000000000000000000000000000000000000000000000081526004016108c690611437565b60405180910390fd5b6108d9838361054d565b610918576040517f08c379a000000000000000000000000000000000000000000000000000000000815260040161090f906114a3565b60405180910390fd5b6001600260008573ffffffffffffffffffffffffffffffffffffffff1673ffffffffffffffffffffffffffffffffffffffff16815260200190815260200160002060008473ffffffffffffffffffffffffffffffffffffffff1673ffffffffffffffffffffffffffffffffffffffff16815260200190815260200160002060003373ffffffffffffffffffffffffffffffffffffffff1673ffffffffffffffffffffffffffffffffffffffff16815260200190815260200160002060006101000a81548160ff0219169083151502179055508060ff16600160008573ffffffffffffffffffffffffffffffffffffffff1673ffffffffffffffffffffffffffffffffffffffff1681526020019081526020016000206001016000828254610a3f91906114f2565b92505081905550600160008473ffffffffffffffffffffffffffffffffffffffff1673ffffffffffffffffffffffffffffffffffffffff1681526020019081526020016000206002016000815480929190610a9990611526565b9190505550505050565b60016020528060005260406000206000915090508060000160009054906101000a900460ff16908060010154908060020154905083565b6002602052826000526040600020602052816000526040600020602052806000526040600020600092509250509054906101000a900460ff1681565b60606003805480602002602001604051908101604052809291908181526020018280548015610b9a57602002820191906000526020600020905b8160009054906101000a900473ffffffffffffffffffffffffffffffffffffffff1673ffffffffffffffffffffffffffffffffffffffff1681526020019060010190808311610b50575b5050505050905090565b60038181548110610bb457600080fd5b906000526020600020016000915054906101000a900473ffffffffffffffffffffffffffffffffffffffff1681565b60008181548110610bf357600080fd5b906000526020600020016000915054906101000a900473ffffffffffffffffffffffffffffffffffffffff1681565b6128838061156f83390190565b611f2680613df283390190565b600081519050919050565b600082825260208201905092915050565b6000819050602082019050919050565b600073ffffffffffffffffffffffffffffffffffffffff82169050919050565b6000610c9382610c68565b9050919050565b610ca381610c88565b82525050565b6000610cb58383610c9a565b60208301905092915050565b6000602082019050919050565b6000610cd982610c3c565b610ce38185610c47565b9350610cee83610c58565b8060005b83811015610d1f578151610d068882610ca9565b9750610d1183610cc1565b925050600181019050610cf2565b5085935050505092915050565b60006020820190508181036000830152610d468184610cce565b905092915050565b6000604051905090565b600080fd5b600080fd5b600080fd5b600080fd5b6000601f19601f8301169050919050565b7f4e487b7100000000000000000000000000000000000000000000000000000000600052604160045260246000fd5b610db582610d6c565b810181811067ffffffffffffffff82111715610dd457610dd3610d7d565b5b80604052505050565b6000610de7610d4e565b9050610df38282610dac565b919050565b600067ffffffffffffffff821115610e1357610e12610d7d565b5b610e1c82610d6c565b9050602081019050919050565b82818337600083830152505050565b6000610e4b610e4684610df8565b610ddd565b905082815260208101848484011115610e6757610e66610d67565b5b610e72848285610e29565b509392505050565b600082601f830112610e8f57610e8e610d62565b5b8135610e9f848260208601610e38565b91505092915050565b6000819050919050565b610ebb81610ea8565b8114610ec657600080fd5b50565b600081359050610ed881610eb2565b92915050565b60008060008060808587031215610ef857610ef7610d58565b5b600085013567ffffffffffffffff811115610f1657610f15610d5d565b5b610f2287828801610e7a565b945050602085013567ffffffffffffffff811115610f4357610f42610d5d565b5b610f4f87828801610e7a565b9350506040610f6087828801610ec9565b9250506060610f7187828801610ec9565b91505092959194509250565b610f8681610c88565b8114610f9157600080fd5b50565b600081359050610fa381610f7d565b92915050565b60008060408385031215610fc057610fbf610d58565b5b6000610fce85828601610f94565b9250506020610fdf85828601610f94565b9150509250929050565b60008115159050919050565b610ffe81610fe9565b82525050565b60006020820190506110196000830184610ff5565b92915050565b600060ff82169050919050565b6110358161101f565b811461104057600080fd5b50565b6000813590506110528161102c565b92915050565b60008060006060848603121561107157611070610d58565b5b600061107f86828701610f94565b935050602061109086828701610f94565b92505060406110a186828701611043565b9150509250925092565b6000602082840312156110c1576110c0610d58565b5b60006110cf84828501610f94565b91505092915050565b6110e181610ea8565b82525050565b60006060820190506110fc6000830186610ff5565b61110960208301856110d8565b61111660408301846110d8565b949350505050565b60008060006060848603121561113757611136610d58565b5b600061114586828701610f94565b935050602061115686828701610f94565b925050604061116786828701610f94565b9150509250925092565b60006020828403121561118757611186610d58565b5b600061119584828501610ec9565b91505092915050565b6111a781610c88565b82525050565b60006020820190506111c2600083018461119e565b92915050565b600081519050919050565b600082825260208201905092915050565b60005b838110156112025780820151818401526020810190506111e7565b60008484015250505050565b6000611219826111c8565b61122381856111d3565b93506112338185602086016111e4565b61123c81610d6c565b840191505092915050565b600061125282610c68565b9050919050565b61126281611247565b82525050565b600060a0820190508181036000830152611282818861120e565b90508181036020830152611296818761120e565b90506112a560408301866110d8565b6112b260608301856110d8565b6112bf6080830184611259565b9695505050505050565b60006080820190506112de6000830187611259565b6112eb60208301866110d8565b6112f860408301856110d8565b611305606083018461119e565b95945050505050565b60008151905061131d81610eb2565b92915050565b60006020828403121561133957611338610d58565b5b60006113478482850161130e565b91505092915050565b61135981611247565b811461136457600080fd5b50565b60008151905061137681611350565b92915050565b60006020828403121561139257611391610d58565b5b60006113a084828501611367565b91505092915050565b6000815190506113b88161102c565b92915050565b6000602082840312156113d4576113d3610d58565b5b60006113e2848285016113a9565b91505092915050565b7f52617465206d757374206265206265747765656e203020616e6420352e000000600082015250565b6000611421601d836111d3565b915061142c826113eb565b602082019050919050565b6000602082019050818103600083015261145081611414565b9050919050565b7f596f752063616e277420766f74652e0000000000000000000000000000000000600082015250565b600061148d600f836111d3565b915061149882611457565b602082019050919050565b600060208201905081810360008301526114bc81611480565b9050919050565b7f4e487b7100000000000000000000000000000000000000000000000000000000600052601160045260246000fd5b60006114fd82610ea8565b915061150883610ea8565b92508282019050808211156115205761151f6114c3565b5b92915050565b600061153182610ea8565b91507fffffffffffffffffffffffffffffffffffffffffffffffffffffffffffffffff8203611563576115626114c3565b5b60018201905091905056fe60806040526000600660006101000a81548160ff02191690831515021790555034801561002b57600080fd5b50604051612883380380612883833981810160405281019061004d919061041d565b42831161008f576040517f08c379a00000000000000000000000000000000000000000000000000000000081526004016100869061052d565b60405180910390fd5b60008551116100d3576040517f08c379a00000000000000000000000000000000000000000000000000000000081526004016100ca90610599565b60405180910390fd5b6000845111610117576040517f08c379a000000000000000000000000000000000000000000000000000000000815260040161010e90610605565b60405180910390fd5b6000821161015a576040517f08c379a000000000000000000000000000000000000000000000000000000000815260040161015190610671565b60405180910390fd5b846000908161016991906108a8565b50836001908161017991906108a8565b508260038190555080600460006101000a81548173ffffffffffffffffffffffffffffffffffffffff021916908373ffffffffffffffffffffffffffffffffffffffff1602179055508160058190555033600660016101000a81548173ffffffffffffffffffffffffffffffffffffffff021916908373ffffffffffffffffffffffffffffffffffffffff160217905550505050505061097a565b6000604051905090565b600080fd5b600080fd5b600080fd5b600080fd5b6000601f19601f8301169050919050565b7f4e487b7100000000000000000000000000000000000000000000000000000000600052604160045260246000fd5b61027b82610232565b810181811067ffffffffffffffff8211171561029a57610299610243565b5b80604052505050565b60006102ad610214565b90506102b98282610272565b919050565b600067ffffffffffffffff8211156102d9576102d8610243565b5b6102e282610232565b9050602081019050919050565b60005b8381101561030d5780820151818401526020810190506102f2565b60008484015250505050565b600061032c610327846102be565b6102a3565b9050828152602081018484840111156103485761034761022d565b5b6103538482856102ef565b509392505050565b600082601f8301126103705761036f610228565b5b8151610380848260208601610319565b91505092915050565b6000819050919050565b61039c81610389565b81146103a757600080fd5b50565b6000815190506103b981610393565b92915050565b600073ffffffffffffffffffffffffffffffffffffffff82169050919050565b60006103ea826103bf565b9050919050565b6103fa816103df565b811461040557600080fd5b50565b600081519050610417816103f1565b92915050565b600080600080600060a086880312156104395761043861021e565b5b600086015167ffffffffffffffff81111561045757610456610223565b5b6104638882890161035b565b955050602086015167ffffffffffffffff81111561048457610483610223565b5b6104908882890161035b565b94505060406104a1888289016103aa565b93505060606104b2888289016103aa565b92505060806104c388828901610408565b9150509295509295909350565b600082825260208201905092915050565b7f496e76616c69642067616d652073746172742074696d652e0000000000000000600082015250565b60006105176018836104d0565b9150610522826104e1565b602082019050919050565b600060208201905081810360008301526105468161050a565b9050919050565b7f486f6d65207465616d2072657175697265642e00000000000000000000000000600082015250565b60006105836013836104d0565b915061058e8261054d565b602082019050919050565b600060208201905081810360008301526105b281610576565b9050919050565b7f41776179207465616d2072657175697265642e00000000000000000000000000600082015250565b60006105ef6013836104d0565b91506105fa826105b9565b602082019050919050565b6000602082019050818103600083015261061e816105e2565b9050919050565b7f5374616b65206d75737420626520706f7369746976652e000000000000000000600082015250565b600061065b6017836104d0565b915061066682610625565b602082019050919050565b6000602082019050818103600083015261068a8161064e565b9050919050565b600081519050919050565b7f4e487b7100000000000000000000000000000000000000000000000000000000600052602260045260246000fd5b600060028204905060018216806106e357607f821691505b6020821081036106f6576106f561069c565b5b50919050565b60008190508160005260206000209050919050565b60006020601f8301049050919050565b600082821b905092915050565b60006008830261075e7fffffffffffffffffffffffffffffffffffffffffffffffffffffffffffffffff82610721565b6107688683610721565b95508019841693508086168417925050509392505050565b6000819050919050565b60006107a56107a061079b84610389565b610780565b610389565b9050919050565b6000819050919050565b6107bf8361078a565b6107d36107cb826107ac565b84845461072e565b825550505050565b600090565b6107e86107db565b6107f38184846107b6565b505050565b5b818110156108175761080c6000826107e0565b6001810190506107f9565b5050565b601f82111561085c5761082d816106fc565b61083684610711565b81016020851015610845578190505b61085961085185610711565b8301826107f8565b50505b505050565b600082821c905092915050565b600061087f60001984600802610861565b1980831691505092915050565b6000610898838361086e565b9150826002028217905092915050565b6108b182610691565b67ffffffffffffffff8111156108ca576108c9610243565b5b6108d482546106cb565b6108df82828561081b565b600060209050601f8311600181146109125760008415610900578287015190505b61090a858261088c565b865550610972565b601f198416610920866106fc565b60005b8281101561094857848901518255600182019150602085019450602081019050610923565b868310156109655784890151610961601f89168261086e565b8355505b6001600288020188555050505b505050505050565b611efa806109896000396000f3fe60806040526004361061012a5760003560e01c8063883ba26b116100ab578063ba03c83b1161006f578063ba03c83b146103a5578063c45a0155146103d0578063cc83f7fd146103fb578063f71d96cb14610424578063f842e50e14610461578063ff5a7ef81461048a5761012a565b8063883ba26b146102bc57806389a78f1a146102e7578063a937788b14610324578063ae989d361461034f578063b415f6331461037a5761012a565b806378e97925116100f257806378e97925146101e55780637c968e73146102105780637d79c1921461023b5780637e537486146102665780637f394e6f146102915761012a565b80632b6bfa281461012f5780633270bb5b1461015a5780633a4b66f1146101855780633ac2a032146101b05780635fe8bbda146101db575b600080fd5b34801561013b57600080fd5b50610144610494565b604051610151919061154c565b60405180910390f35b34801561016657600080fd5b5061016f61055e565b60405161017c9190611582565b60405180910390f35b34801561019157600080fd5b5061019a610571565b6040516101a7919061154c565b60405180910390f35b3480156101bc57600080fd5b506101c5610577565b6040516101d291906115de565b60405180910390f35b6101e361059d565b005b3480156101f157600080fd5b506101fa610776565b604051610207919061154c565b60405180910390f35b34801561021c57600080fd5b5061022561077c565b6040516102329190611615565b60405180910390f35b34801561024757600080fd5b5061025061078f565b60405161025d91906116c0565b60405180910390f35b34801561027257600080fd5b5061027b61081d565b6040516102889190611703565b60405180910390f35b34801561029d57600080fd5b506102a6610843565b6040516102b39190611615565b60405180910390f35b3480156102c857600080fd5b506102d1610856565b6040516102de9190611582565b60405180910390f35b3480156102f357600080fd5b5061030e6004803603810190610309919061174f565b61086d565b60405161031b9190611615565b60405180910390f35b34801561033057600080fd5b5061033961088d565b604051610346919061154c565b60405180910390f35b34801561035b57600080fd5b506103646108a9565b60405161037191906116c0565b60405180910390f35b34801561038657600080fd5b5061038f610937565b60405161039c919061154c565b60405180910390f35b3480156103b157600080fd5b506103ba610a01565b6040516103c7919061154c565b60405180910390f35b3480156103dc57600080fd5b506103e5610a1d565b6040516103f291906115de565b60405180910390f35b34801561040757600080fd5b50610422600480360381019061041d919061174f565b610a43565b005b34801561043057600080fd5b5061044b600480360381019061044691906117a8565b610c6f565b6040516104589190611703565b60405180910390f35b34801561046d57600080fd5b5061048860048036038101906104839190611801565b610cae565b005b61049261135a565b005b600080600090505b60098054905081101561055a57600260086000600984815481106104c3576104c2611841565b5b9060005260206000200160009054906101000a900473ffffffffffffffffffffffffffffffffffffffff1673ffffffffffffffffffffffffffffffffffffffff1673ffffffffffffffffffffffffffffffffffffffff16815260200190815260200160002060009054906101000a900460ff1660ff160361054d5781806105499061189f565b9250505b808060010191505061049c565b5090565b600660009054906101000a900460ff1681565b60055481565b600760009054906101000a900473ffffffffffffffffffffffffffffffffffffffff1681565b6000600860003373ffffffffffffffffffffffffffffffffffffffff1673ffffffffffffffffffffffffffffffffffffffff16815260200190815260200160002060009054906101000a900460ff1660ff161461062f576040517f08c379a000000000000000000000000000000000000000000000000000000000815260040161062690611933565b60405180910390fd5b600354421115610674576040517f08c379a000000000000000000000000000000000000000000000000000000000815260040161066b9061199f565b60405180910390fd5b60055434146106b8576040517f08c379a00000000000000000000000000000000000000000000000000000000081526004016106af90611a0b565b60405180910390fd5b6002600860003373ffffffffffffffffffffffffffffffffffffffff1673ffffffffffffffffffffffffffffffffffffffff16815260200190815260200160002060006101000a81548160ff021916908360ff1602179055506009339080600181540180825580915050600190039060005260206000200160009091909190916101000a81548173ffffffffffffffffffffffffffffffffffffffff021916908373ffffffffffffffffffffffffffffffffffffffff160217905550565b60035481565b600260009054906101000a900460ff1681565b6001805461079c90611a5a565b80601f01602080910402602001604051908101604052809291908181526020018280546107c890611a5a565b80156108155780601f106107ea57610100808354040283529160200191610815565b820191906000526020600020905b8154815290600101906020018083116107f857829003601f168201915b505050505081565b600460009054906101000a900473ffffffffffffffffffffffffffffffffffffffff1681565b600260019054906101000a900460ff1681565b6000600660009054906101000a900460ff16905090565b60086020528060005260406000206000915054906101000a900460ff1681565b6000610897610937565b6005546108a49190611a8b565b905090565b600080546108b690611a5a565b80601f01602080910402602001604051908101604052809291908181526020018280546108e290611a5a565b801561092f5780601f106109045761010080835404028352916020019161092f565b820191906000526020600020905b81548152906001019060200180831161091257829003601f168201915b505050505081565b600080600090505b6009805490508110156109fd576001600860006009848154811061096657610965611841565b5b9060005260206000200160009054906101000a900473ffffffffffffffffffffffffffffffffffffffff1673ffffffffffffffffffffffffffffffffffffffff1673ffffffffffffffffffffffffffffffffffffffff16815260200190815260200160002060009054906101000a900460ff1660ff16036109f05781806109ec9061189f565b9250505b808060010191505061093f565b5090565b6000610a0b610494565b600554610a189190611a8b565b905090565b600660019054906101000a900473ffffffffffffffffffffffffffffffffffffffff1681565b600460009054906101000a900473ffffffffffffffffffffffffffffffffffffffff1673ffffffffffffffffffffffffffffffffffffffff163373ffffffffffffffffffffffffffffffffffffffff161480610aec5750600660019054906101000a900473ffffffffffffffffffffffffffffffffffffffff1673ffffffffffffffffffffffffffffffffffffffff163373ffffffffffffffffffffffffffffffffffffffff16145b610b2b576040517f08c379a0000000000000000000000000000000000000000000000000000000008152600401610b2290611b19565b60405180910390fd5b600073ffffffffffffffffffffffffffffffffffffffff16600760009054906101000a900473ffffffffffffffffffffffffffffffffffffffff1673ffffffffffffffffffffffffffffffffffffffff1614610bbc576040517f08c379a0000000000000000000000000000000000000000000000000000000008152600401610bb390611b85565b60405180910390fd5b600073ffffffffffffffffffffffffffffffffffffffff168173ffffffffffffffffffffffffffffffffffffffff1603610c2b576040517f08c379a0000000000000000000000000000000000000000000000000000000008152600401610c2290611bf1565b60405180910390fd5b80600760006101000a81548173ffffffffffffffffffffffffffffffffffffffff021916908373ffffffffffffffffffffffffffffffffffffffff16021790555050565b60098181548110610c7f57600080fd5b906000526020600020016000915054906101000a900473ffffffffffffffffffffffffffffffffffffffff1681565b600460009054906101000a900473ffffffffffffffffffffffffffffffffffffffff1673ffffffffffffffffffffffffffffffffffffffff163373ffffffffffffffffffffffffffffffffffffffff1614610d3e576040517f08c379a0000000000000000000000000000000000000000000000000000000008152600401610d3590611c5d565b60405180910390fd5b81600260006101000a81548160ff021916908360ff16021790555080600260016101000a81548160ff021916908360ff1602179055506001600660006101000a81548160ff02191690831515021790555060008160ff168360ff1611610dba578260ff168260ff1611610db2576000610db5565b60025b610dbd565b60015b90506000479050600081111561126e5760008260ff1603610ee85760005b600980549050811015610ee257600060098281548110610dfe57610dfd611841565b5b9060005260206000200160009054906101000a900473ffffffffffffffffffffffffffffffffffffffff1673ffffffffffffffffffffffffffffffffffffffff16600554604051610e4e90611cae565b60006040518083038185875af1925050503d8060008114610e8b576040519150601f19603f3d011682016040523d82523d6000602084013e610e90565b606091505b5050905080610ed4576040517f08c379a0000000000000000000000000000000000000000000000000000000008152600401610ecb90611d0f565b60405180910390fd5b508080600101915050610ddb565b5061126d565b60006064600583610ef99190611a8b565b610f039190611d5e565b905060008183610f139190611d8f565b9050600080600090505b600980549050811015610fdd578560ff166008600060098481548110610f4657610f45611841565b5b9060005260206000200160009054906101000a900473ffffffffffffffffffffffffffffffffffffffff1673ffffffffffffffffffffffffffffffffffffffff1673ffffffffffffffffffffffffffffffffffffffff16815260200190815260200160002060009054906101000a900460ff1660ff1603610fd0578180610fcc9061189f565b9250505b8080600101915050610f1d565b50600081111561119a5760008183610ff59190611d5e565b905060005b600980549050811015611197578660ff16600860006009848154811061102357611022611841565b5b9060005260206000200160009054906101000a900473ffffffffffffffffffffffffffffffffffffffff1673ffffffffffffffffffffffffffffffffffffffff1673ffffffffffffffffffffffffffffffffffffffff16815260200190815260200160002060009054906101000a900460ff1660ff160361118a576000600982815481106110b4576110b3611841565b5b9060005260206000200160009054906101000a900473ffffffffffffffffffffffffffffffffffffffff1673ffffffffffffffffffffffffffffffffffffffff168360405161110290611cae565b60006040518083038185875af1925050503d806000811461113f576040519150601f19603f3d011682016040523d82523d6000602084013e611144565b606091505b5050905080611188576040517f08c379a000000000000000000000000000000000000000000000000000000000815260040161117f90611e0f565b60405180910390fd5b505b8080600101915050610ffa565b50505b6000600460009054906101000a900473ffffffffffffffffffffffffffffffffffffffff1673ffffffffffffffffffffffffffffffffffffffff16846040516111e290611cae565b60006040518083038185875af1925050503d806000811461121f576040519150601f19603f3d011682016040523d82523d6000602084013e611224565b606091505b5050905080611268576040517f08c379a000000000000000000000000000000000000000000000000000000000815260040161125f90611e7b565b60405180910390fd5b505050505b5b600073ffffffffffffffffffffffffffffffffffffffff16600760009054906101000a900473ffffffffffffffffffffffffffffffffffffffff1673ffffffffffffffffffffffffffffffffffffffff161461135457600760009054906101000a900473ffffffffffffffffffffffffffffffffffffffff1673ffffffffffffffffffffffffffffffffffffffff16632cffdacb85856040518363ffffffff1660e01b8152600401611321929190611e9b565b600060405180830381600087803b15801561133b57600080fd5b505af115801561134f573d6000803e3d6000fd5b505050505b50505050565b6000600860003373ffffffffffffffffffffffffffffffffffffffff1673ffffffffffffffffffffffffffffffffffffffff16815260200190815260200160002060009054906101000a900460ff1660ff16146113ec576040517f08c379a00000000000000000000000000000000000000000000000000000000081526004016113e390611933565b60405180910390fd5b600354421115611431576040517f08c379a00000000000000000000000000000000000000000000000000000000081526004016114289061199f565b60405180910390fd5b6005543414611475576040517f08c379a000000000000000000000000000000000000000000000000000000000815260040161146c90611a0b565b60405180910390fd5b6001600860003373ffffffffffffffffffffffffffffffffffffffff1673ffffffffffffffffffffffffffffffffffffffff16815260200190815260200160002060006101000a81548160ff021916908360ff1602179055506009339080600181540180825580915050600190039060005260206000200160009091909190916101000a81548173ffffffffffffffffffffffffffffffffffffffff021916908373ffffffffffffffffffffffffffffffffffffffff160217905550565b6000819050919050565b61154681611533565b82525050565b6000602082019050611561600083018461153d565b92915050565b60008115159050919050565b61157c81611567565b82525050565b60006020820190506115976000830184611573565b92915050565b600073ffffffffffffffffffffffffffffffffffffffff82169050919050565b60006115c88261159d565b9050919050565b6115d8816115bd565b82525050565b60006020820190506115f360008301846115cf565b92915050565b600060ff82169050919050565b61160f816115f9565b82525050565b600060208201905061162a6000830184611606565b92915050565b600081519050919050565b600082825260208201905092915050565b60005b8381101561166a57808201518184015260208101905061164f565b60008484015250505050565b6000601f19601f8301169050919050565b600061169282611630565b61169c818561163b565b93506116ac81856020860161164c565b6116b581611676565b840191505092915050565b600060208201905081810360008301526116da8184611687565b905092915050565b60006116ed8261159d565b9050919050565b6116fd816116e2565b82525050565b600060208201905061171860008301846116f4565b92915050565b600080fd5b61172c816115bd565b811461173757600080fd5b50565b60008135905061174981611723565b92915050565b6000602082840312156117655761176461171e565b5b60006117738482850161173a565b91505092915050565b61178581611533565b811461179057600080fd5b50565b6000813590506117a28161177c565b92915050565b6000602082840312156117be576117bd61171e565b5b60006117cc84828501611793565b91505092915050565b6117de816115f9565b81146117e957600080fd5b50565b6000813590506117fb816117d5565b92915050565b600080604083850312156118185761181761171e565b5b6000611826858286016117ec565b9250506020611837858286016117ec565b9150509250929050565b7f4e487b7100000000000000000000000000000000000000000000000000000000600052603260045260246000fd5b7f4e487b7100000000000000000000000000000000000000000000000000000000600052601160045260246000fd5b60006118aa82611533565b91507fffffffffffffffffffffffffffffffffffffffffffffffffffffffffffffffff82036118dc576118db611870565b5b600182019050919050565b7f42657420616c726561647920706c616365642e00000000000000000000000000600082015250565b600061191d60138361163b565b9150611928826118e7565b602082019050919050565b6000602082019050818103600083015261194c81611910565b9050919050565b7f42657474696e6720636c6f7365642e0000000000000000000000000000000000600082015250565b6000611989600f8361163b565b915061199482611953565b602082019050919050565b600060208201905081810360008301526119b88161197c565b9050919050565b7f496e636f7272656374207374616b6520616d6f756e742e000000000000000000600082015250565b60006119f560178361163b565b9150611a00826119bf565b602082019050919050565b60006020820190508181036000830152611a24816119e8565b9050919050565b7f4e487b7100000000000000000000000000000000000000000000000000000000600052602260045260246000fd5b60006002820490506001821680611a7257607f821691505b602082108103611a8557611a84611a2b565b5b50919050565b6000611a9682611533565b9150611aa183611533565b9250828202611aaf81611533565b91508282048414831517611ac657611ac5611870565b5b5092915050565b7f4e6f7420617574686f72697a6564000000000000000000000000000000000000600082015250565b6000611b03600e8361163b565b9150611b0e82611acd565b602082019050919050565b60006020820190508181036000830152611b3281611af6565b9050919050565b7f4d61726b65747320616c72656164792073657400000000000000000000000000600082015250565b6000611b6f60138361163b565b9150611b7a82611b39565b602082019050919050565b60006020820190508181036000830152611b9e81611b62565b9050919050565b7f496e76616c6964206d61726b6574730000000000000000000000000000000000600082015250565b6000611bdb600f8361163b565b9150611be682611ba5565b602082019050919050565b60006020820190508181036000830152611c0a81611bce565b9050919050565b7f4f6e6c79206f7267616e6973657220616c6c6f7765642e000000000000000000600082015250565b6000611c4760178361163b565b9150611c5282611c11565b602082019050919050565b60006020820190508181036000830152611c7681611c3a565b9050919050565b600081905092915050565b50565b6000611c98600083611c7d565b9150611ca382611c88565b600082019050919050565b6000611cb982611c8b565b9150819050919050565b7f526566756e64206661696c65642e000000000000000000000000000000000000600082015250565b6000611cf9600e8361163b565b9150611d0482611cc3565b602082019050919050565b60006020820190508181036000830152611d2881611cec565b9050919050565b7f4e487b7100000000000000000000000000000000000000000000000000000000600052601260045260246000fd5b6000611d6982611533565b9150611d7483611533565b925082611d8457611d83611d2f565b5b828204905092915050565b6000611d9a82611533565b9150611da583611533565b9250828203905081811115611dbd57611dbc611870565b5b92915050565b7f5061796f7574206661696c65642e000000000000000000000000000000000000600082015250565b6000611df9600e8361163b565b9150611e0482611dc3565b602082019050919050565b60006020820190508181036000830152611e2881611dec565b9050919050565b7f4f7267616e697a6572207061796f7574206661696c65642e0000000000000000600082015250565b6000611e6560188361163b565b9150611e7082611e2f565b602082019050919050565b60006020820190508181036000830152611e9481611e58565b9050919050565b6000604082019050611eb06000830185611606565b611ebd6020830184611606565b939250505056fea26469706673582212209069b33897fb5570c1c039a186bc52d7e7bb7d7568378650424a0993ca35c73364736f6c634300081c0033608060405234801561001057600080fd5b50604051611f26380380611f2683398181016040528101906100329190610304565b600073ffffffffffffffffffffffffffffffffffffffff168473ffffffffffffffffffffffffffffffffffffffff16036100a1576040517f08c379a0000000000000000000000000000000000000000000000000000000008152600401610098906103c8565b60405180910390fd5b600073ffffffffffffffffffffffffffffffffffffffff168173ffffffffffffffffffffffffffffffffffffffff1603610110576040517f08c379a000000000000000000000000000000000000000000000000000000000815260040161010790610434565b60405180910390fd5b428311610152576040517f08c379a0000000000000000000000000000000000000000000000000000000008152600401610149906104a0565b60405180910390fd5b60008211610195576040517f08c379a000000000000000000000000000000000000000000000000000000000815260040161018c9061050c565b60405180910390fd5b836000806101000a81548173ffffffffffffffffffffffffffffffffffffffff021916908373ffffffffffffffffffffffffffffffffffffffff160217905550826002819055508160038190555080600160006101000a81548173ffffffffffffffffffffffffffffffffffffffff021916908373ffffffffffffffffffffffffffffffffffffffff1602179055505050505061052c565b600080fd5b600073ffffffffffffffffffffffffffffffffffffffff82169050919050565b600061025d82610232565b9050919050565b61026d81610252565b811461027857600080fd5b50565b60008151905061028a81610264565b92915050565b6000819050919050565b6102a381610290565b81146102ae57600080fd5b50565b6000815190506102c08161029a565b92915050565b60006102d182610232565b9050919050565b6102e1816102c6565b81146102ec57600080fd5b50565b6000815190506102fe816102d8565b92915050565b6000806000806080858703121561031e5761031d61022d565b5b600061032c8782880161027b565b945050602061033d878288016102b1565b935050604061034e878288016102b1565b925050606061035f878288016102ef565b91505092959194509250565b600082825260208201905092915050565b7f496e76616c6964206f7267616e69736572000000000000000000000000000000600082015250565b60006103b260118361036b565b91506103bd8261037c565b602082019050919050565b600060208201905081810360008301526103e1816103a5565b9050919050565b7f496e76616c6964206d6174636800000000000000000000000000000000000000600082015250565b600061041e600d8361036b565b9150610429826103e8565b602082019050919050565b6000602082019050818103600083015261044d81610411565b9050919050565b7f496e76616c696420737461727454696d65000000000000000000000000000000600082015250565b600061048a60118361036b565b915061049582610454565b602082019050919050565b600060208201905081810360008301526104b98161047d565b9050919050565b7f5374616b65206d75737420626520706f73697469766500000000000000000000600082015250565b60006104f660168361036b565b9150610501826104c0565b602082019050919050565b60006020820190508181036000830152610525816104e9565b9050919050565b6119eb8061053b6000396000f3fe6080604052600436106100c25760003560e01c80637e5374861161007f578063a3a3503711610059578063a3a35037146101f7578063c8c3316b14610222578063cb7d65af1461025f578063db3838221461029c576100c2565b80637e537486146101855780637f4580a9146101b057806397d4d76f146101ba576100c2565b8063143e5551146100c75780632cffdacb146100d15780633270bb5b146100fa5780633a4b66f1146101255780634b5703381461015057806378e979251461015a575b600080fd5b6100cf6102d9565b005b3480156100dd57600080fd5b506100f860048036038101906100f391906110d9565b610433565b005b34801561010657600080fd5b5061010f610635565b60405161011c9190611134565b60405180910390f35b34801561013157600080fd5b5061013a610648565b6040516101479190611168565b60405180910390f35b61015861064e565b005b34801561016657600080fd5b5061016f6107a8565b60405161017c9190611168565b60405180910390f35b34801561019157600080fd5b5061019a6107ae565b6040516101a791906111c4565b60405180910390f35b6101b86107d2565b005b3480156101c657600080fd5b506101e160048036038101906101dc9190611242565b61092c565b6040516101ee9190611134565b60405180910390f35b34801561020357600080fd5b5061020c61095b565b6040516102199190611291565b60405180910390f35b34801561022e57600080fd5b50610249600480360381019061024491906112ac565b610981565b6040516102569190611168565b60405180910390f35b34801561026b57600080fd5b5061028660048036038101906102819190611305565b6109c5565b6040516102939190611291565b60405180910390f35b3480156102a857600080fd5b506102c360048036038101906102be91906112ac565b610a43565b6040516102d09190611168565b60405180910390f35b60025442111561031e576040517f08c379a0000000000000000000000000000000000000000000000000000000008152600401610315906113a2565b60405180910390fd5b6003543414610362576040517f08c379a00000000000000000000000000000000000000000000000000000000081526004016103599061140e565b60405180910390fd5b60006006600082600281111561037b5761037a61142e565b5b600281111561038d5761038c61142e565b5b815260200190815260200160002060003373ffffffffffffffffffffffffffffffffffffffff1673ffffffffffffffffffffffffffffffffffffffff16815260200190815260200160002060009054906101000a900460ff1615610426576040517f08c379a000000000000000000000000000000000000000000000000000000000815260040161041d906114a9565b60405180910390fd5b6104306000610a94565b50565b60008054906101000a900473ffffffffffffffffffffffffffffffffffffffff1673ffffffffffffffffffffffffffffffffffffffff163373ffffffffffffffffffffffffffffffffffffffff1614806104da5750600160009054906101000a900473ffffffffffffffffffffffffffffffffffffffff1673ffffffffffffffffffffffffffffffffffffffff163373ffffffffffffffffffffffffffffffffffffffff16145b610519576040517f08c379a000000000000000000000000000000000000000000000000000000000815260040161051090611515565b60405180910390fd5b600460009054906101000a900460ff1615610569576040517f08c379a000000000000000000000000000000000000000000000000000000000815260040161056090611581565b60405180910390fd5b600060028260ff168460ff1661057f91906115d0565b11159050600060038360ff168560ff1661059991906115d0565b10159050600060018560ff16101580156105b7575060018460ff1610155b90506105c4600084610c12565b6105cf600183610c12565b6105da600282610c12565b6001600460006101000a81548160ff0219169083151502179055507f2431acea335c9bd068c85b6a12a16f924cf40a59966376fa24121f0700d8af948585604051610626929190611613565b60405180910390a15050505050565b600460009054906101000a900460ff1681565b60035481565b600254421115610693576040517f08c379a000000000000000000000000000000000000000000000000000000000815260040161068a906113a2565b60405180910390fd5b60035434146106d7576040517f08c379a00000000000000000000000000000000000000000000000000000000081526004016106ce9061140e565b60405180910390fd5b6002600660008260028111156106f0576106ef61142e565b5b60028111156107025761070161142e565b5b815260200190815260200160002060003373ffffffffffffffffffffffffffffffffffffffff1673ffffffffffffffffffffffffffffffffffffffff16815260200190815260200160002060009054906101000a900460ff161561079b576040517f08c379a0000000000000000000000000000000000000000000000000000000008152600401610792906114a9565b60405180910390fd5b6107a56002610a94565b50565b60025481565b60008054906101000a900473ffffffffffffffffffffffffffffffffffffffff1681565b600254421115610817576040517f08c379a000000000000000000000000000000000000000000000000000000000815260040161080e906113a2565b60405180910390fd5b600354341461085b576040517f08c379a00000000000000000000000000000000000000000000000000000000081526004016108529061140e565b60405180910390fd5b6001600660008260028111156108745761087361142e565b5b60028111156108865761088561142e565b5b815260200190815260200160002060003373ffffffffffffffffffffffffffffffffffffffff1673ffffffffffffffffffffffffffffffffffffffff16815260200190815260200160002060009054906101000a900460ff161561091f576040517f08c379a0000000000000000000000000000000000000000000000000000000008152600401610916906114a9565b60405180910390fd5b6109296001610a94565b50565b60066020528160005260406000206020528060005260406000206000915091509054906101000a900460ff1681565b600160009054906101000a900473ffffffffffffffffffffffffffffffffffffffff1681565b60006005600083600281111561099a5761099961142e565b5b60028111156109ac576109ab61142e565b5b8152602001908152602001600020805490509050919050565b6000600560008460028111156109de576109dd61142e565b5b60028111156109f0576109ef61142e565b5b81526020019081526020016000208281548110610a1057610a0f61163c565b5b9060005260206000200160009054906101000a900473ffffffffffffffffffffffffffffffffffffffff16905092915050565b600060035460056000846002811115610a5f57610a5e61142e565b5b6002811115610a7157610a7061142e565b5b815260200190815260200160002080549050610a8d919061166b565b9050919050565b600160066000836002811115610aad57610aac61142e565b5b6002811115610abf57610abe61142e565b5b815260200190815260200160002060003373ffffffffffffffffffffffffffffffffffffffff1673ffffffffffffffffffffffffffffffffffffffff16815260200190815260200160002060006101000a81548160ff02191690831515021790555060056000826002811115610b3857610b3761142e565b5b6002811115610b4a57610b4961142e565b5b8152602001908152602001600020339080600181540180825580915050600190039060005260206000200160009091909190916101000a81548173ffffffffffffffffffffffffffffffffffffffff021916908373ffffffffffffffffffffffffffffffffffffffff1602179055503373ffffffffffffffffffffffffffffffffffffffff16816002811115610be357610be261142e565b5b7fd9bbce0a0620a8f7d5d81d2db9bd5dae7fd507bb4fd85e13303f0dcc38c4699d60405160405180910390a350565b600060056000846002811115610c2b57610c2a61142e565b5b6002811115610c3d57610c3c61142e565b5b8152602001908152602001600020905060006003548280549050610c61919061166b565b905060008103610cc257836002811115610c7e57610c7d61142e565b5b7fdb82ce5eee0c2ebb9da7702452b407287f59157eb70ae8fe5cc0838c2aeb6f1a6000806000604051610cb3939291906116f2565b60405180910390a25050611097565b82610e275760005b8280549050811015610dcf576000838281548110610ceb57610cea61163c565b5b9060005260206000200160009054906101000a900473ffffffffffffffffffffffffffffffffffffffff1673ffffffffffffffffffffffffffffffffffffffff16600354604051610d3b9061175a565b60006040518083038185875af1925050503d8060008114610d78576040519150601f19603f3d011682016040523d82523d6000602084013e610d7d565b606091505b5050905080610dc1576040517f08c379a0000000000000000000000000000000000000000000000000000000008152600401610db8906117bb565b60405180910390fd5b508080600101915050610cca565b50836002811115610de357610de261142e565b5b7fdb82ce5eee0c2ebb9da7702452b407287f59157eb70ae8fe5cc0838c2aeb6f1a6000836000604051610e18939291906117db565b60405180910390a25050611097565b60008280549050905060006064600584610e41919061166b565b610e4b9190611841565b905060008184610e5b9190611872565b905060008382610e6b9190611841565b905060005b8680549050811015610f73576000878281548110610e9157610e9061163c565b5b9060005260206000200160009054906101000a900473ffffffffffffffffffffffffffffffffffffffff1673ffffffffffffffffffffffffffffffffffffffff1683604051610edf9061175a565b60006040518083038185875af1925050503d8060008114610f1c576040519150601f19603f3d011682016040523d82523d6000602084013e610f21565b606091505b5050905080610f65576040517f08c379a0000000000000000000000000000000000000000000000000000000008152600401610f5c906118f2565b60405180910390fd5b508080600101915050610e70565b5060008060009054906101000a900473ffffffffffffffffffffffffffffffffffffffff1673ffffffffffffffffffffffffffffffffffffffff1684604051610fbb9061175a565b60006040518083038185875af1925050503d8060008114610ff8576040519150601f19603f3d011682016040523d82523d6000602084013e610ffd565b606091505b5050905080611041576040517f08c379a00000000000000000000000000000000000000000000000000000000081526004016110389061195e565b60405180910390fd5b8860028111156110545761105361142e565b5b7fdb82ce5eee0c2ebb9da7702452b407287f59157eb70ae8fe5cc0838c2aeb6f1a8688876040516110879392919061197e565b60405180910390a2505050505050505b5050565b600080fd5b600060ff82169050919050565b6110b6816110a0565b81146110c157600080fd5b50565b6000813590506110d3816110ad565b92915050565b600080604083850312156110f0576110ef61109b565b5b60006110fe858286016110c4565b925050602061110f858286016110c4565b9150509250929050565b60008115159050919050565b61112e81611119565b82525050565b60006020820190506111496000830184611125565b92915050565b6000819050919050565b6111628161114f565b82525050565b600060208201905061117d6000830184611159565b92915050565b600073ffffffffffffffffffffffffffffffffffffffff82169050919050565b60006111ae82611183565b9050919050565b6111be816111a3565b82525050565b60006020820190506111d960008301846111b5565b92915050565b600381106111ec57600080fd5b50565b6000813590506111fe816111df565b92915050565b600061120f82611183565b9050919050565b61121f81611204565b811461122a57600080fd5b50565b60008135905061123c81611216565b92915050565b600080604083850312156112595761125861109b565b5b6000611267858286016111ef565b92505060206112788582860161122d565b9150509250929050565b61128b81611204565b82525050565b60006020820190506112a66000830184611282565b92915050565b6000602082840312156112c2576112c161109b565b5b60006112d0848285016111ef565b91505092915050565b6112e28161114f565b81146112ed57600080fd5b50565b6000813590506112ff816112d9565b92915050565b6000806040838503121561131c5761131b61109b565b5b600061132a858286016111ef565b925050602061133b858286016112f0565b9150509250929050565b600082825260208201905092915050565b7f42657474696e6720636c6f736564000000000000000000000000000000000000600082015250565b600061138c600e83611345565b915061139782611356565b602082019050919050565b600060208201905081810360008301526113bb8161137f565b9050919050565b7f496e636f7272656374207374616b6520616d6f756e7400000000000000000000600082015250565b60006113f8601683611345565b9150611403826113c2565b602082019050919050565b60006020820190508181036000830152611427816113eb565b9050919050565b7f4e487b7100000000000000000000000000000000000000000000000000000000600052602160045260246000fd5b7f416c7265616479206265742074686973206d61726b6574000000000000000000600082015250565b6000611493601783611345565b915061149e8261145d565b602082019050919050565b600060208201905081810360008301526114c281611486565b9050919050565b7f4e6f7420617574686f7269736564000000000000000000000000000000000000600082015250565b60006114ff600e83611345565b915061150a826114c9565b602082019050919050565b6000602082019050818103600083015261152e816114f2565b9050919050565b7f4d61726b65747320616c726561647920736574746c6564000000000000000000600082015250565b600061156b601783611345565b915061157682611535565b602082019050919050565b6000602082019050818103600083015261159a8161155e565b9050919050565b7f4e487b7100000000000000000000000000000000000000000000000000000000600052601160045260246000fd5b60006115db8261114f565b91506115e68361114f565b92508282019050808211156115fe576115fd6115a1565b5b92915050565b61160d816110a0565b82525050565b60006040820190506116286000830185611604565b6116356020830184611604565b9392505050565b7f4e487b7100000000000000000000000000000000000000000000000000000000600052603260045260246000fd5b60006116768261114f565b91506116818361114f565b925082820261168f8161114f565b915082820484148315176116a6576116a56115a1565b5b5092915050565b6000819050919050565b6000819050919050565b60006116dc6116d76116d2846116ad565b6116b7565b61114f565b9050919050565b6116ec816116c1565b82525050565b600060608201905061170760008301866116e3565b61171460208301856116e3565b61172160408301846116e3565b949350505050565b600081905092915050565b50565b6000611744600083611729565b915061174f82611734565b600082019050919050565b600061176582611737565b9150819050919050565b7f526566756e64206661696c656400000000000000000000000000000000000000600082015250565b60006117a5600d83611345565b91506117b08261176f565b602082019050919050565b600060208201905081810360008301526117d481611798565b9050919050565b60006060820190506117f060008301866116e3565b6117fd6020830185611159565b61180a60408301846116e3565b949350505050565b7f4e487b7100000000000000000000000000000000000000000000000000000000600052601260045260246000fd5b600061184c8261114f565b91506118578361114f565b92508261186757611866611812565b5b828204905092915050565b600061187d8261114f565b91506118888361114f565b92508282039050818111156118a05761189f6115a1565b5b92915050565b7f5061796f7574206661696c656400000000000000000000000000000000000000600082015250565b60006118dc600d83611345565b91506118e7826118a6565b602082019050919050565b6000602082019050818103600083015261190b816118cf565b9050919050565b7f4f7267616e6973657220666565206661696c6564000000000000000000000000600082015250565b6000611948601483611345565b915061195382611912565b602082019050919050565b600060208201905081810360008301526119778161193b565b9050919050565b60006060820190506119936000830186611159565b6119a06020830185611159565b6119ad6040830184611159565b94935050505056fea2646970667358221220a5bf6d1a1dbfef147ede663dad33ccdcc549f1fadee7ba804b3f35bd4743c5ab64736f6c634300081c0033a2646970667358221220737a4b5cb635e5edec9cb53a946aba708d492baf12d9658a3ee228e894c170c364736f6c634300081c0033",
  "linkReferences": {},
  "deployedLinkReferences": {}
}