{
  "_format": "hh-sol-artifact-1",
  "contractName": "GameBet",
  "sourceName": "contracts/GameBet.sol",
  "abi": [
    {
      "inputs": [
        {
          "internalType": "uint256",
          "name": "",
          "type": "uint256"
        }
      ],
      "name": "allBets",
      "outputs": [
        {
          "internalType": "address",
          "name": "",
          "type": "address"
        }
      ],
      "stateMutability": "view",
      "type": "function"
    },
    {
      "inputs": [
        {
          "internalType": "address",
          "name": "organiser",
          "type": "address"
        },
        {
          "internalType": "address",
          "name": "bet",
          "type": "address"
        }
      ],
      "name": "canVote",
      "outputs": [
        {
          "internalType": "bool",
          "name": "",
          "type": "bool"
        }
      ],
      "stateMutability": "view",
      "type": "function"
    },
    {
      "inputs": [
        {
          "internalType": "string",
          "name": "homeTeam",
          "type": "string"
        },
        {
          "internalType": "string",
          "name": "awayTeam",
          "type": "string"
        },
        {
          "internalType": "uint256",
          "name": "startTime",
          "type": "uint256"
        },
        {
          "internalType": "uint256",
          "name": "stake",
          "type": "uint256"
        }
      ],
      "name": "createFootballBet",
      "outputs": [],
      "stateMutability": "payable",
      "type": "function"
    },
    {
      "inputs": [],
      "name": "getBets",
      "outputs": [
        {
          "internalType": "address[]",
          "name": "",
          "type": "address[]"
        }
      ],
      "stateMutability": "view",
      "type": "function"
    },
    {
      "inputs": [],
      "name": "getOrganisers",
      "outputs": [
        {
          "internalType": "address[]",
          "name": "",
          "type": "address[]"
        }
      ],
      "stateMutability": "view",
      "type": "function"
    },
    {
      "inputs": [
        {
          "internalType": "address",
          "name": "",
          "type": "address"
        },
        {
          "internalType": "address",
          "name": "",
          "type": "address"
        },
        {
          "internalType": "address",
          "name": "",
          "type": "address"
        }
      ],
      "name": "hasVoted",
      "outputs": [
        {
          "internalType": "bool",
          "name": "",
          "type": "bool"
        }
      ],
      "stateMutability": "view",
      "type": "function"
    },
    {
      "inputs": [
        {
          "internalType": "uint256",
          "name": "",
          "type": "uint256"
        }
      ],
      "name": "organisers",
      "outputs": [
        {
          "internalType": "address",
          "name": "",
          "type": "address"
        }
      ],
      "stateMutability": "view",
      "type": "function"
    },
    {
      "inputs": [
        {
          "internalType": "address",
          "name": "",
          "type": "address"
        }
      ],
      "name": "ratings",
      "outputs": [
        {
          "internalType": "bool",
          "name": "active",
          "type": "bool"
        },
        {
          "internalType": "uint256",
          "name": "totalRate",
          "type": "uint256"
        },
        {
          "internalType": "uint256",
          "name": "numberOfTimesRated",
          "type": "uint256"
        }
      ],
      "stateMutability": "view",
      "type": "function"
    },
    {
      "inputs": [
        {
          "internalType": "address",
          "name": "organiser",
          "type": "address"
        },
        {
          "internalType": "address",
          "name": "bet",
          "type": "address"
        },
        {
          "internalType": "uint8",
          "name": "rate",
          "type": "uint8"
        }
      ],
      "name": "vote",
      "outputs": [],
      "stateMutability": "nonpayable",
      "type": "function"
    }
  ],
  "bytecode": "0x6080604052348015600f57600080fd5b5061342a8061001f6000396000f3fe6080604052600436106100865760003560e01c80639e01dfbb116100595780639e01dfbb14610138578063a44f83e514610177578063a6afd5fd146101b4578063e0ced0e1146101df578063f69371451461021c57610086565b806329222d981461008b57806338ff13aa146100b65780634873d68d146100d2578063565d75391461010f575b600080fd5b34801561009757600080fd5b506100a0610259565b6040516100ad9190610c75565b60405180910390f35b6100d060048036038101906100cb9190610e27565b6102e7565b005b3480156100de57600080fd5b506100f960048036038101906100f49190610ef2565b6104a3565b6040516101069190610f4d565b60405180910390f35b34801561011b57600080fd5b5061013660048036038101906101319190610fa1565b6107de565b005b34801561014457600080fd5b5061015f600480360381019061015a9190610ff4565b6109f9565b60405161016e93929190611030565b60405180910390f35b34801561018357600080fd5b5061019e60048036038101906101999190611067565b610a30565b6040516101ab9190610f4d565b60405180910390f35b3480156101c057600080fd5b506101c9610a6c565b6040516101d69190610c75565b60405180910390f35b3480156101eb57600080fd5b50610206600480360381019061020191906110ba565b610afa565b60405161021391906110f6565b60405180910390f35b34801561022857600080fd5b50610243600480360381019061023e91906110ba565b610b39565b60405161025091906110f6565b60405180910390f35b606060008054806020026020016040519081016040528092919081815260200182805480156102dd57602002820191906000526020600020905b8160009054906101000a900473ffffffffffffffffffffffffffffffffffffffff1673ffffffffffffffffffffffffffffffffffffffff1681526020019060010190808311610293575b5050505050905090565b600084848484336040516102fa90610b78565b6103089594939291906111b1565b604051809103906000f080158015610324573d6000803e3d6000fd5b5090506003819080600181540180825580915050600190039060005260206000200160009091909190916101000a81548173ffffffffffffffffffffffffffffffffffffffff021916908373ffffffffffffffffffffffffffffffffffffffff160217905550600160003373ffffffffffffffffffffffffffffffffffffffff1673ffffffffffffffffffffffffffffffffffffffff16815260200190815260200160002060000160009054906101000a900460ff1661049c5760018060003373ffffffffffffffffffffffffffffffffffffffff1673ffffffffffffffffffffffffffffffffffffffff16815260200190815260200160002060000160006101000a81548160ff0219169083151502179055506000339080600181540180825580915050600190039060005260206000200160009091909190916101000a81548173ffffffffffffffffffffffffffffffffffffffff021916908373ffffffffffffffffffffffffffffffffffffffff1602179055505b5050505050565b60008273ffffffffffffffffffffffffffffffffffffffff163373ffffffffffffffffffffffffffffffffffffffff16036104e157600090506107d8565b600160008473ffffffffffffffffffffffffffffffffffffffff1673ffffffffffffffffffffffffffffffffffffffff16815260200190815260200160002060000160009054906101000a900460ff1661053e57600090506107d8565b60008290508073ffffffffffffffffffffffffffffffffffffffff166378e979256040518163ffffffff1660e01b8152600401602060405180830381865afa15801561058e573d6000803e3d6000fd5b505050506040513d601f19601f820116820180604052508101906105b29190611227565b4210156105c35760009150506107d8565b8373ffffffffffffffffffffffffffffffffffffffff168173ffffffffffffffffffffffffffffffffffffffff16637e5374866040518163ffffffff1660e01b8152600401602060405180830381865afa158015610625573d6000803e3d6000fd5b505050506040513d601f19601f820116820180604052508101906106499190611280565b73ffffffffffffffffffffffffffffffffffffffff161461066e5760009150506107d8565b60008173ffffffffffffffffffffffffffffffffffffffff166389a78f1a336040518263ffffffff1660e01b81526004016106a991906110f6565b602060405180830381865afa1580156106c6573d6000803e3d6000fd5b505050506040513d601f19601f820116820180604052508101906106ea91906112c2565b60ff16036106fc5760009150506107d8565b600260008573ffffffffffffffffffffffffffffffffffffffff1673ffffffffffffffffffffffffffffffffffffffff16815260200190815260200160002060008473ffffffffffffffffffffffffffffffffffffffff1673ffffffffffffffffffffffffffffffffffffffff16815260200190815260200160002060003373ffffffffffffffffffffffffffffffffffffffff1673ffffffffffffffffffffffffffffffffffffffff16815260200190815260200160002060009054906101000a900460ff16156107d25760009150506107d8565b60019150505b92915050565b60058160ff161115610825576040517f08c379a000000000000000000000000000000000000000000000000000000000815260040161081c9061133b565b60405180910390fd5b61082f83836104a3565b61086e576040517f08c379a0000000000000000000000000000000000000000000000000000000008152600401610865906113a7565b60405180910390fd5b6001600260008573ffffffffffffffffffffffffffffffffffffffff1673ffffffffffffffffffffffffffffffffffffffff16815260200190815260200160002060008473ffffffffffffffffffffffffffffffffffffffff1673ffffffffffffffffffffffffffffffffffffffff16815260200190815260200160002060003373ffffffffffffffffffffffffffffffffffffffff1673ffffffffffffffffffffffffffffffffffffffff16815260200190815260200160002060006101000a81548160ff0219169083151502179055508060ff16600160008573ffffffffffffffffffffffffffffffffffffffff1673ffffffffffffffffffffffffffffffffffffffff168152602001908152602001600020600101600082825461099591906113f6565b92505081905550600160008473ffffffffffffffffffffffffffffffffffffffff1673ffffffffffffffffffffffffffffffffffffffff16815260200190815260200160002060020160008154809291906109ef9061142a565b9190505550505050565b60016020528060005260406000206000915090508060000160009054906101000a900460ff16908060010154908060020154905083565b6002602052826000526040600020602052816000526040600020602052806000526040600020600092509250509054906101000a900460ff1681565b60606003805480602002602001604051908101604052809291908181526020018280548015610af057602002820191906000526020600020905b8160009054906101000a900473ffffffffffffffffffffffffffffffffffffffff1673ffffffffffffffffffffffffffffffffffffffff1681526020019060010190808311610aa6575b5050505050905090565b60038181548110610b0a57600080fd5b906000526020600020016000915054906101000a900473ffffffffffffffffffffffffffffffffffffffff1681565b60008181548110610b4957600080fd5b906000526020600020016000915054906101000a900473ffffffffffffffffffffffffffffffffffffffff1681565b611f828061147383390190565b600081519050919050565b600082825260208201905092915050565b6000819050602082019050919050565b600073ffffffffffffffffffffffffffffffffffffffff82169050919050565b6000610bdc82610bb1565b9050919050565b610bec81610bd1565b82525050565b6000610bfe8383610be3565b60208301905092915050565b6000602082019050919050565b6000610c2282610b85565b610c2c8185610b90565b9350610c3783610ba1565b8060005b83811015610c68578151610c4f8882610bf2565b9750610c5a83610c0a565b925050600181019050610c3b565b5085935050505092915050565b60006020820190508181036000830152610c8f8184610c17565b905092915050565b6000604051905090565b600080fd5b600080fd5b600080fd5b600080fd5b6000601f19601f8301169050919050565b7f4e487b7100000000000000000000000000000000000000000000000000000000600052604160045260246000fd5b610cfe82610cb5565b810181811067ffffffffffffffff82111715610d1d57610d1c610cc6565b5b80604052505050565b6000610d30610c97565b9050610d3c8282610cf5565b919050565b600067ffffffffffffffff821115610d5c57610d5b610cc6565b5b610d6582610cb5565b9050602081019050919050565b82818337600083830152505050565b6000610d94610d8f84610d41565b610d26565b905082815260208101848484011115610db057610daf610cb0565b5b610dbb848285610d72565b509392505050565b600082601f830112610dd857610dd7610cab565b5b8135610de8848260208601610d81565b91505092915050565b6000819050919050565b610e0481610df1565b8114610e0f57600080fd5b50565b600081359050610e2181610dfb565b92915050565b60008060008060808587031215610e4157610e40610ca1565b5b600085013567ffffffffffffffff811115610e5f57610e5e610ca6565b5b610e6b87828801610dc3565b945050602085013567ffffffffffffffff811115610e8c57610e8b610ca6565b5b610e9887828801610dc3565b9350506040610ea987828801610e12565b9250506060610eba87828801610e12565b91505092959194509250565b610ecf81610bd1565b8114610eda57600080fd5b50565b600081359050610eec81610ec6565b92915050565b60008060408385031215610f0957610f08610ca1565b5b6000610f1785828601610edd565b9250506020610f2885828601610edd565b9150509250929050565b60008115159050919050565b610f4781610f32565b82525050565b6000602082019050610f626000830184610f3e565b92915050565b600060ff82169050919050565b610f7e81610f68565b8114610f8957600080fd5b50565b600081359050610f9b81610f75565b92915050565b600080600060608486031215610fba57610fb9610ca1565b5b6000610fc886828701610edd565b9350506020610fd986828701610edd565b9250506040610fea86828701610f8c565b9150509250925092565b60006020828403121561100a57611009610ca1565b5b600061101884828501610edd565b91505092915050565b61102a81610df1565b82525050565b60006060820190506110456000830186610f3e565b6110526020830185611021565b61105f6040830184611021565b949350505050565b6000806000606084860312156110805761107f610ca1565b5b600061108e86828701610edd565b935050602061109f86828701610edd565b92505060406110b086828701610edd565b9150509250925092565b6000602082840312156110d0576110cf610ca1565b5b60006110de84828501610e12565b91505092915050565b6110f081610bd1565b82525050565b600060208201905061110b60008301846110e7565b92915050565b600081519050919050565b600082825260208201905092915050565b60005b8381101561114b578082015181840152602081019050611130565b60008484015250505050565b600061116282611111565b61116c818561111c565b935061117c81856020860161112d565b61118581610cb5565b840191505092915050565b600061119b82610bb1565b9050919050565b6111ab81611190565b82525050565b600060a08201905081810360008301526111cb8188611157565b905081810360208301526111df8187611157565b90506111ee6040830186611021565b6111fb6060830185611021565b61120860808301846111a2565b9695505050505050565b60008151905061122181610dfb565b92915050565b60006020828403121561123d5761123c610ca1565b5b600061124b84828501611212565b91505092915050565b61125d81611190565b811461126857600080fd5b50565b60008151905061127a81611254565b92915050565b60006020828403121561129657611295610ca1565b5b60006112a48482850161126b565b91505092915050565b6000815190506112bc81610f75565b92915050565b6000602082840312156112d8576112d7610ca1565b5b60006112e6848285016112ad565b91505092915050565b7f52617465206d757374206265206265747765656e203020616e6420352e000000600082015250565b6000611325601d8361111c565b9150611330826112ef565b602082019050919050565b6000602082019050818103600083015261135481611318565b9050919050565b7f596f752063616e277420766f74652e0000000000000000000000000000000000600082015250565b6000611391600f8361111c565b915061139c8261135b565b602082019050919050565b600060208201905081810360008301526113c081611384565b9050919050565b7f4e487b7100000000000000000000000000000000000000000000000000000000600052601160045260246000fd5b600061140182610df1565b915061140c83610df1565b9250828201905080821115611424576114236113c7565b5b92915050565b600061143582610df1565b91507fffffffffffffffffffffffffffffffffffffffffffffffffffffffffffffffff8203611467576114666113c7565b5b60018201905091905056fe608060405234801561001057600080fd5b50604051611f82380380611f82833981810160405281019061003291906103c1565b428311610074576040517f08c379a000000000000000000000000000000000000000000000000000000000815260040161006b906104d1565b60405180910390fd5b60008551116100b8576040517f08c379a00000000000000000000000000000000000000000000000000000000081526004016100af9061053d565b60405180910390fd5b60008451116100fc576040517f08c379a00000000000000000000000000000000000000000000000000000000081526004016100f3906105a9565b60405180910390fd5b6000821161013f576040517f08c379a000000000000000000000000000000000000000000000000000000000815260040161013690610615565b60405180910390fd5b846000908161014e919061084c565b50836001908161015e919061084c565b508260038190555080600460006101000a81548173ffffffffffffffffffffffffffffffffffffffff021916908373ffffffffffffffffffffffffffffffffffffffff16021790555081600581905550505050505061091e565b6000604051905090565b600080fd5b600080fd5b600080fd5b600080fd5b6000601f19601f8301169050919050565b7f4e487b7100000000000000000000000000000000000000000000000000000000600052604160045260246000fd5b61021f826101d6565b810181811067ffffffffffffffff8211171561023e5761023d6101e7565b5b80604052505050565b60006102516101b8565b905061025d8282610216565b919050565b600067ffffffffffffffff82111561027d5761027c6101e7565b5b610286826101d6565b9050602081019050919050565b60005b838110156102b1578082015181840152602081019050610296565b60008484015250505050565b60006102d06102cb84610262565b610247565b9050828152602081018484840111156102ec576102eb6101d1565b5b6102f7848285610293565b509392505050565b600082601f830112610314576103136101cc565b5b81516103248482602086016102bd565b91505092915050565b6000819050919050565b6103408161032d565b811461034b57600080fd5b50565b60008151905061035d81610337565b92915050565b600073ffffffffffffffffffffffffffffffffffffffff82169050919050565b600061038e82610363565b9050919050565b61039e81610383565b81146103a957600080fd5b50565b6000815190506103bb81610395565b92915050565b600080600080600060a086880312156103dd576103dc6101c2565b5b600086015167ffffffffffffffff8111156103fb576103fa6101c7565b5b610407888289016102ff565b955050602086015167ffffffffffffffff811115610428576104276101c7565b5b610434888289016102ff565b94505060406104458882890161034e565b93505060606104568882890161034e565b9250506080610467888289016103ac565b9150509295509295909350565b600082825260208201905092915050565b7f496e76616c69642067616d652073746172742074696d652e0000000000000000600082015250565b60006104bb601883610474565b91506104c682610485565b602082019050919050565b600060208201905081810360008301526104ea816104ae565b9050919050565b7f486f6d65207465616d2072657175697265642e00000000000000000000000000600082015250565b6000610527601383610474565b9150610532826104f1565b602082019050919050565b600060208201905081810360008301526105568161051a565b9050919050565b7f41776179207465616d2072657175697265642e00000000000000000000000000600082015250565b6000610593601383610474565b915061059e8261055d565b602082019050919050565b600060208201905081810360008301526105c281610586565b9050919050565b7f5374616b65206d75737420626520706f7369746976652e000000000000000000600082015250565b60006105ff601783610474565b915061060a826105c9565b602082019050919050565b6000602082019050818103600083015261062e816105f2565b9050919050565b600081519050919050565b7f4e487b7100000000000000000000000000000000000000000000000000000000600052602260045260246000fd5b6000600282049050600182168061068757607f821691505b60208210810361069a57610699610640565b5b50919050565b60008190508160005260206000209050919050565b60006020601f8301049050919050565b600082821b905092915050565b6000600883026107027fffffffffffffffffffffffffffffffffffffffffffffffffffffffffffffffff826106c5565b61070c86836106c5565b95508019841693508086168417925050509392505050565b6000819050919050565b600061074961074461073f8461032d565b610724565b61032d565b9050919050565b6000819050919050565b6107638361072e565b61077761076f82610750565b8484546106d2565b825550505050565b600090565b61078c61077f565b61079781848461075a565b505050565b5b818110156107bb576107b0600082610784565b60018101905061079d565b5050565b601f821115610800576107d1816106a0565b6107da846106b5565b810160208510156107e9578190505b6107fd6107f5856106b5565b83018261079c565b50505b505050565b600082821c905092915050565b600061082360001984600802610805565b1980831691505092915050565b600061083c8383610812565b9150826002028217905092915050565b61085582610635565b67ffffffffffffffff81111561086e5761086d6101e7565b5b610878825461066f565b6108838282856107bf565b600060209050601f8311600181146108b657600084156108a4578287015190505b6108ae8582610830565b865550610916565b601f1984166108c4866106a0565b60005b828110156108ec578489015182556001820191506020850194506020810190506108c7565b868310156109095784890151610905601f891682610812565b8355505b6001600288020188555050505b505050505050565b6116558061092d6000396000f3fe6080604052600436106100a75760003560e01c80637f394e6f116100645780637f394e6f1461018d57806389a78f1a146101b8578063ae989d36146101f5578063f71d96cb14610220578063f842e50e1461025d578063ff5a7ef814610286576100a7565b80633a4b66f1146100ac5780635fe8bbda146100d757806378e97925146100e15780637c968e731461010c5780637d79c192146101375780637e53748614610162575b600080fd5b3480156100b857600080fd5b506100c1610290565b6040516100ce9190610e08565b60405180910390f35b6100df610296565b005b3480156100ed57600080fd5b506100f661046f565b6040516101039190610e08565b60405180910390f35b34801561011857600080fd5b50610121610475565b60405161012e9190610e3f565b60405180910390f35b34801561014357600080fd5b5061014c610488565b6040516101599190610eea565b60405180910390f35b34801561016e57600080fd5b50610177610516565b6040516101849190610f4d565b60405180910390f35b34801561019957600080fd5b506101a261053c565b6040516101af9190610e3f565b60405180910390f35b3480156101c457600080fd5b506101df60048036038101906101da9190610fab565b61054f565b6040516101ec9190610e3f565b60405180910390f35b34801561020157600080fd5b5061020a61056f565b6040516102179190610eea565b60405180910390f35b34801561022c57600080fd5b5061024760048036038101906102429190611004565b6105fd565b6040516102549190610f4d565b60405180910390f35b34801561026957600080fd5b50610284600480360381019061027f919061105d565b61063c565b005b61028e610c16565b005b60055481565b6000600660003373ffffffffffffffffffffffffffffffffffffffff1673ffffffffffffffffffffffffffffffffffffffff16815260200190815260200160002060009054906101000a900460ff1660ff1614610328576040517f08c379a000000000000000000000000000000000000000000000000000000000815260040161031f906110e9565b60405180910390fd5b60035442111561036d576040517f08c379a000000000000000000000000000000000000000000000000000000000815260040161036490611155565b60405180910390fd5b60055434146103b1576040517f08c379a00000000000000000000000000000000000000000000000000000000081526004016103a8906111c1565b60405180910390fd5b6002600660003373ffffffffffffffffffffffffffffffffffffffff1673ffffffffffffffffffffffffffffffffffffffff16815260200190815260200160002060006101000a81548160ff021916908360ff1602179055506007339080600181540180825580915050600190039060005260206000200160009091909190916101000a81548173ffffffffffffffffffffffffffffffffffffffff021916908373ffffffffffffffffffffffffffffffffffffffff160217905550565b60035481565b600260009054906101000a900460ff1681565b6001805461049590611210565b80601f01602080910402602001604051908101604052809291908181526020018280546104c190611210565b801561050e5780601f106104e35761010080835404028352916020019161050e565b820191906000526020600020905b8154815290600101906020018083116104f157829003601f168201915b505050505081565b600460009054906101000a900473ffffffffffffffffffffffffffffffffffffffff1681565b600260019054906101000a900460ff1681565b60066020528060005260406000206000915054906101000a900460ff1681565b6000805461057c90611210565b80601f01602080910402602001604051908101604052809291908181526020018280546105a890611210565b80156105f55780601f106105ca576101008083540402835291602001916105f5565b820191906000526020600020905b8154815290600101906020018083116105d857829003601f168201915b505050505081565b6007818154811061060d57600080fd5b906000526020600020016000915054906101000a900473ffffffffffffffffffffffffffffffffffffffff1681565b600460009054906101000a900473ffffffffffffffffffffffffffffffffffffffff1673ffffffffffffffffffffffffffffffffffffffff163373ffffffffffffffffffffffffffffffffffffffff16146106cc576040517f08c379a00000000000000000000000000000000000000000000000000000000081526004016106c39061128d565b60405180910390fd5b6000471161070f576040517f08c379a0000000000000000000000000000000000000000000000000000000008152600401610706906112f9565b60405180910390fd5b81600260006101000a81548160ff021916908360ff16021790555080600260016101000a81548160ff021916908360ff16021790555060008160ff168360ff1611610770578260ff168260ff161161076857600061076b565b60025b610773565b60015b9050600047905060008260ff16036108955760005b60078054905081101561088f576000600782815481106107ab576107aa611319565b5b9060005260206000200160009054906101000a900473ffffffffffffffffffffffffffffffffffffffff1673ffffffffffffffffffffffffffffffffffffffff166005546040516107fb90611379565b60006040518083038185875af1925050503d8060008114610838576040519150601f19603f3d011682016040523d82523d6000602084013e61083d565b606091505b5050905080610881576040517f08c379a0000000000000000000000000000000000000000000000000000000008152600401610878906113da565b60405180910390fd5b508080600101915050610788565b50610c10565b600060646005836108a69190611429565b6108b0919061149a565b9050600081836108c091906114cb565b9050600080600090505b60078054905081101561098a578560ff1660066000600784815481106108f3576108f2611319565b5b9060005260206000200160009054906101000a900473ffffffffffffffffffffffffffffffffffffffff1673ffffffffffffffffffffffffffffffffffffffff1673ffffffffffffffffffffffffffffffffffffffff16815260200190815260200160002060009054906101000a900460ff1660ff160361097d578180610979906114ff565b9250505b80806001019150506108ca565b5060008183610999919061149a565b905060005b600780549050811015610b3b578660ff1660066000600784815481106109c7576109c6611319565b5b9060005260206000200160009054906101000a900473ffffffffffffffffffffffffffffffffffffffff1673ffffffffffffffffffffffffffffffffffffffff1673ffffffffffffffffffffffffffffffffffffffff16815260200190815260200160002060009054906101000a900460ff1660ff1603610b2e57600060078281548110610a5857610a57611319565b5b9060005260206000200160009054906101000a900473ffffffffffffffffffffffffffffffffffffffff1673ffffffffffffffffffffffffffffffffffffffff1683604051610aa690611379565b60006040518083038185875af1925050503d8060008114610ae3576040519150601f19603f3d011682016040523d82523d6000602084013e610ae8565b606091505b5050905080610b2c576040517f08c379a0000000000000000000000000000000000000000000000000000000008152600401610b2390611593565b60405180910390fd5b505b808060010191505061099e565b506000600460009054906101000a900473ffffffffffffffffffffffffffffffffffffffff1673ffffffffffffffffffffffffffffffffffffffff1685604051610b8490611379565b60006040518083038185875af1925050503d8060008114610bc1576040519150601f19603f3d011682016040523d82523d6000602084013e610bc6565b606091505b5050905080610c0a576040517f08c379a0000000000000000000000000000000000000000000000000000000008152600401610c01906115ff565b60405180910390fd5b50505050505b50505050565b6000600660003373ffffffffffffffffffffffffffffffffffffffff1673ffffffffffffffffffffffffffffffffffffffff16815260200190815260200160002060009054906101000a900460ff1660ff1614610ca8576040517f08c379a0000000000000000000000000000000000000000000000000000000008152600401610c9f906110e9565b60405180910390fd5b600354421115610ced576040517f08c379a0000000000000000000000000000000000000000000000000000000008152600401610ce490611155565b60405180910390fd5b6005543414610d31576040517f08c379a0000000000000000000000000000000000000000000000000000000008152600401610d28906111c1565b60405180910390fd5b6001600660003373ffffffffffffffffffffffffffffffffffffffff1673ffffffffffffffffffffffffffffffffffffffff16815260200190815260200160002060006101000a81548160ff021916908360ff1602179055506007339080600181540180825580915050600190039060005260206000200160009091909190916101000a81548173ffffffffffffffffffffffffffffffffffffffff021916908373ffffffffffffffffffffffffffffffffffffffff160217905550565b6000819050919050565b610e0281610def565b82525050565b6000602082019050610e1d6000830184610df9565b92915050565b600060ff82169050919050565b610e3981610e23565b82525050565b6000602082019050610e546000830184610e30565b92915050565b600081519050919050565b600082825260208201905092915050565b60005b83811015610e94578082015181840152602081019050610e79565b60008484015250505050565b6000601f19601f8301169050919050565b6000610ebc82610e5a565b610ec68185610e65565b9350610ed6818560208601610e76565b610edf81610ea0565b840191505092915050565b60006020820190508181036000830152610f048184610eb1565b905092915050565b600073ffffffffffffffffffffffffffffffffffffffff82169050919050565b6000610f3782610f0c565b9050919050565b610f4781610f2c565b82525050565b6000602082019050610f626000830184610f3e565b92915050565b600080fd5b6000610f7882610f0c565b9050919050565b610f8881610f6d565b8114610f9357600080fd5b50565b600081359050610fa581610f7f565b92915050565b600060208284031215610fc157610fc0610f68565b5b6000610fcf84828501610f96565b91505092915050565b610fe181610def565b8114610fec57600080fd5b50565b600081359050610ffe81610fd8565b92915050565b60006020828403121561101a57611019610f68565b5b600061102884828501610fef565b91505092915050565b61103a81610e23565b811461104557600080fd5b50565b60008135905061105781611031565b92915050565b6000806040838503121561107457611073610f68565b5b600061108285828601611048565b925050602061109385828601611048565b9150509250929050565b7f42657420616c726561647920706c616365642e00000000000000000000000000600082015250565b60006110d3601383610e65565b91506110de8261109d565b602082019050919050565b60006020820190508181036000830152611102816110c6565b9050919050565b7f42657474696e6720636c6f7365642e0000000000000000000000000000000000600082015250565b600061113f600f83610e65565b915061114a82611109565b602082019050919050565b6000602082019050818103600083015261116e81611132565b9050919050565b7f496e636f7272656374207374616b6520616d6f756e742e000000000000000000600082015250565b60006111ab601783610e65565b91506111b682611175565b602082019050919050565b600060208201905081810360008301526111da8161119e565b9050919050565b7f4e487b7100000000000000000000000000000000000000000000000000000000600052602260045260246000fd5b6000600282049050600182168061122857607f821691505b60208210810361123b5761123a6111e1565b5b50919050565b7f4f6e6c79206f7267616e6973657220616c6c6f7765642e000000000000000000600082015250565b6000611277601783610e65565b915061128282611241565b602082019050919050565b600060208201905081810360008301526112a68161126a565b9050919050565b7f436f6e74726163742062616c616e636520656d7074792e000000000000000000600082015250565b60006112e3601783610e65565b91506112ee826112ad565b602082019050919050565b60006020820190508181036000830152611312816112d6565b9050919050565b7f4e487b7100000000000000000000000000000000000000000000000000000000600052603260045260246000fd5b600081905092915050565b50565b6000611363600083611348565b915061136e82611353565b600082019050919050565b600061138482611356565b9150819050919050565b7f526566756e64206661696c65642e000000000000000000000000000000000000600082015250565b60006113c4600e83610e65565b91506113cf8261138e565b602082019050919050565b600060208201905081810360008301526113f3816113b7565b9050919050565b7f4e487b7100000000000000000000000000000000000000000000000000000000600052601160045260246000fd5b600061143482610def565b915061143f83610def565b925082820261144d81610def565b91508282048414831517611464576114636113fa565b5b5092915050565b7f4e487b7100000000000000000000000000000000000000000000000000000000600052601260045260246000fd5b60006114a582610def565b91506114b083610def565b9250826114c0576114bf61146b565b5b828204905092915050565b60006114d682610def565b91506114e183610def565b92508282039050818111156114f9576114f86113fa565b5b92915050565b600061150a82610def565b91507fffffffffffffffffffffffffffffffffffffffffffffffffffffffffffffffff820361153c5761153b6113fa565b5b600182019050919050565b7f5061796f7574206661696c65642e000000000000000000000000000000000000600082015250565b600061157d600e83610e65565b915061158882611547565b602082019050919050565b600060208201905081810360008301526115ac81611570565b9050919050565b7f4f7267616e697a6572207061796f7574206661696c65642e0000000000000000600082015250565b60006115e9601883610e65565b91506115f4826115b3565b602082019050919050565b60006020820190508181036000830152611618816115dc565b905091905056fea26469706673582212204b9c2fdd1c76ffd2bf439126f794bfd1436ae6d5bfa21088cdac58caecd44a1164736f6c634300081c0033a2646970667358221220437b5085b80074e3d86bf95324406da658e88fe39e22d41c5256209f22ddf38c64736f6c634300081c0033",
  "linkReferences": {},
  "deployedLinkReferences": {}
}