{
  "_format": "hh-sol-artifact-1",
  "contractName": "MarketsBet",
  "sourceName": "contracts/MarketsBet.sol",
  "abi": [
    {
      "inputs": [
        {
          "internalType": "address payable",
          "name": "_organiser",
          "type": "address"
        },
        {
          "internalType": "uint256",
          "name": "_startTime",
          "type": "uint256"
        },
        {
          "internalType": "uint256",
          "name": "_stake",
          "type": "uint256"
        }
      ],
      "stateMutability": "nonpayable",
      "type": "constructor"
    },
    {
      "anonymous": false,
      "inputs": [
        {
          "indexed": false,
          "internalType": "uint8",
          "name": "homeGoals",
          "type": "uint8"
        },
        {
          "indexed": false,
          "internalType": "uint8",
          "name": "awayGoals",
          "type": "uint8"
        }
      ],
      "name": "AllMarketsSettled",
      "type": "event"
    },
    {
      "anonymous": false,
      "inputs": [
        {
          "indexed": true,
          "internalType": "enum MarketsBet.Market",
          "name": "market",
          "type": "uint8"
        },
        {
          "indexed": true,
          "internalType": "address",
          "name": "bettor",
          "type": "address"
        }
      ],
      "name": "BetPlaced",
      "type": "event"
    },
    {
      "anonymous": false,
      "inputs": [
        {
          "indexed": true,
          "internalType": "enum MarketsBet.Market",
          "name": "market",
          "type": "uint8"
        },
        {
          "indexed": false,
          "internalType": "uint256",
          "name": "winners",
          "type": "uint256"
        },
        {
          "indexed": false,
          "internalType": "uint256",
          "name": "totalPool",
          "type": "uint256"
        },
        {
          "indexed": false,
          "internalType": "uint256",
          "name": "organiserFee",
          "type": "uint256"
        }
      ],
      "name": "MarketSettled",
      "type": "event"
    },
    {
      "inputs": [],
      "name": "betGG",
      "outputs": [],
      "stateMutability": "payable",
      "type": "function"
    },
    {
      "inputs": [],
      "name": "betUG_0_2",
      "outputs": [],
      "stateMutability": "payable",
      "type": "function"
    },
    {
      "inputs": [],
      "name": "betUG_3_PLUS",
      "outputs": [],
      "stateMutability": "payable",
      "type": "function"
    },
    {
      "inputs": [
        {
          "internalType": "enum MarketsBet.Market",
          "name": "",
          "type": "uint8"
        },
        {
          "internalType": "address",
          "name": "",
          "type": "address"
        }
      ],
      "name": "hasBet",
      "outputs": [
        {
          "internalType": "bool",
          "name": "",
          "type": "bool"
        }
      ],
      "stateMutability": "view",
      "type": "function"
    },
    {
      "inputs": [],
      "name": "isSettled",
      "outputs": [
        {
          "internalType": "bool",
          "name": "",
          "type": "bool"
        }
      ],
      "stateMutability": "view",
      "type": "function"
    },
    {
      "inputs": [],
      "name": "organiser",
      "outputs": [
        {
          "internalType": "address payable",
          "name": "",
          "type": "address"
        }
      ],
      "stateMutability": "view",
      "type": "function"
    },
    {
      "inputs": [
        {
          "internalType": "enum MarketsBet.Market",
          "name": "m",
          "type": "uint8"
        },
        {
          "internalType": "uint256",
          "name": "idx",
          "type": "uint256"
        }
      ],
      "name": "playerAt",
      "outputs": [
        {
          "internalType": "address",
          "name": "",
          "type": "address"
        }
      ],
      "stateMutability": "view",
      "type": "function"
    },
    {
      "inputs": [
        {
          "internalType": "enum MarketsBet.Market",
          "name": "m",
          "type": "uint8"
        }
      ],
      "name": "poolSize",
      "outputs": [
        {
          "internalType": "uint256",
          "name": "",
          "type": "uint256"
        }
      ],
      "stateMutability": "view",
      "type": "function"
    },
    {
      "inputs": [
        {
          "internalType": "uint8",
          "name": "homeGoals",
          "type": "uint8"
        },
        {
          "internalType": "uint8",
          "name": "awayGoals",
          "type": "uint8"
        }
      ],
      "name": "settleAll",
      "outputs": [],
      "stateMutability": "nonpayable",
      "type": "function"
    },
    {
      "inputs": [],
      "name": "stake",
      "outputs": [
        {
          "internalType": "uint256",
          "name": "",
          "type": "uint256"
        }
      ],
      "stateMutability": "view",
      "type": "function"
    },
    {
      "inputs": [],
      "name": "startTime",
      "outputs": [
        {
          "internalType": "uint256",
          "name": "",
          "type": "uint256"
        }
      ],
      "stateMutability": "view",
      "type": "function"
    },
    {
      "inputs": [
        {
          "internalType": "enum MarketsBet.Market",
          "name": "m",
          "type": "uint8"
        }
      ],
      "name": "totalBets",
      "outputs": [
        {
          "internalType": "uint256",
          "name": "",
          "type": "uint256"
        }
      ],
      "stateMutability": "view",
      "type": "function"
    }
  ],
  "bytecode": "0x608060405234801561001057600080fd5b50604051611cf3380380611cf383398181016040528101906100329190610215565b600073ffffffffffffffffffffffffffffffffffffffff168373ffffffffffffffffffffffffffffffffffffffff16036100a1576040517f08c379a0000000000000000000000000000000000000000000000000000000008152600401610098906102c5565b60405180910390fd5b4282116100e3576040517f08c379a00000000000000000000000000000000000000000000000000000000081526004016100da90610331565b60405180910390fd5b60008111610126576040517f08c379a000000000000000000000000000000000000000000000000000000000815260040161011d9061039d565b60405180910390fd5b826000806101000a81548173ffffffffffffffffffffffffffffffffffffffff021916908373ffffffffffffffffffffffffffffffffffffffff16021790555081600181905550806002819055505050506103bd565b600080fd5b600073ffffffffffffffffffffffffffffffffffffffff82169050919050565b60006101ac82610181565b9050919050565b6101bc816101a1565b81146101c757600080fd5b50565b6000815190506101d9816101b3565b92915050565b6000819050919050565b6101f2816101df565b81146101fd57600080fd5b50565b60008151905061020f816101e9565b92915050565b60008060006060848603121561022e5761022d61017c565b5b600061023c868287016101ca565b935050602061024d86828701610200565b925050604061025e86828701610200565b9150509250925092565b600082825260208201905092915050565b7f496e76616c6964206f7267616e69736572000000000000000000000000000000600082015250565b60006102af601183610268565b91506102ba82610279565b602082019050919050565b600060208201905081810360008301526102de816102a2565b9050919050565b7f496e76616c696420737461727454696d65000000000000000000000000000000600082015250565b600061031b601183610268565b9150610326826102e5565b602082019050919050565b6000602082019050818103600083015261034a8161030e565b9050919050565b7f5374616b65206d75737420626520706f73697469766500000000000000000000600082015250565b6000610387601683610268565b915061039282610351565b602082019050919050565b600060208201905081810360008301526103b68161037a565b9050919050565b611927806103cc6000396000f3fe6080604052600436106100a75760003560e01c80637e537486116100645780637e5374861461016a5780637f4580a91461019557806397d4d76f1461019f578063c8c3316b146101dc578063cb7d65af14610219578063db38382214610256576100a7565b8063143e5551146100ac5780632cffdacb146100b65780633270bb5b146100df5780633a4b66f11461010a5780634b5703381461013557806378e979251461013f575b600080fd5b6100b4610293565b005b3480156100c257600080fd5b506100dd60048036038101906100d89190611015565b6103ed565b005b3480156100eb57600080fd5b506100f4610597565b6040516101019190611070565b60405180910390f35b34801561011657600080fd5b5061011f6105aa565b60405161012c91906110a4565b60405180910390f35b61013d6105b0565b005b34801561014b57600080fd5b5061015461070a565b60405161016191906110a4565b60405180910390f35b34801561017657600080fd5b5061017f610710565b60405161018c9190611100565b60405180910390f35b61019d610734565b005b3480156101ab57600080fd5b506101c660048036038101906101c1919061117e565b61088e565b6040516101d39190611070565b60405180910390f35b3480156101e857600080fd5b5061020360048036038101906101fe91906111be565b6108bd565b60405161021091906110a4565b60405180910390f35b34801561022557600080fd5b50610240600480360381019061023b9190611217565b610901565b60405161024d9190611266565b60405180910390f35b34801561026257600080fd5b5061027d600480360381019061027891906111be565b61097f565b60405161028a91906110a4565b60405180910390f35b6001544211156102d8576040517f08c379a00000000000000000000000000000000000000000000000000000000081526004016102cf906112de565b60405180910390fd5b600254341461031c576040517f08c379a00000000000000000000000000000000000000000000000000000000081526004016103139061134a565b60405180910390fd5b6000600560008260028111156103355761033461136a565b5b60028111156103475761034661136a565b5b815260200190815260200160002060003373ffffffffffffffffffffffffffffffffffffffff1673ffffffffffffffffffffffffffffffffffffffff16815260200190815260200160002060009054906101000a900460ff16156103e0576040517f08c379a00000000000000000000000000000000000000000000000000000000081526004016103d7906113e5565b60405180910390fd5b6103ea60006109d0565b50565b60008054906101000a900473ffffffffffffffffffffffffffffffffffffffff1673ffffffffffffffffffffffffffffffffffffffff163373ffffffffffffffffffffffffffffffffffffffff161461047b576040517f08c379a000000000000000000000000000000000000000000000000000000000815260040161047290611451565b60405180910390fd5b600360009054906101000a900460ff16156104cb576040517f08c379a00000000000000000000000000000000000000000000000000000000081526004016104c2906114bd565b60405180910390fd5b600060028260ff168460ff166104e1919061150c565b11159050600060038360ff168560ff166104fb919061150c565b10159050600060018560ff1610158015610519575060018460ff1610155b9050610526600084610b4e565b610531600183610b4e565b61053c600282610b4e565b6001600360006101000a81548160ff0219169083151502179055507f2431acea335c9bd068c85b6a12a16f924cf40a59966376fa24121f0700d8af94858560405161058892919061154f565b60405180910390a15050505050565b600360009054906101000a900460ff1681565b60025481565b6001544211156105f5576040517f08c379a00000000000000000000000000000000000000000000000000000000081526004016105ec906112de565b60405180910390fd5b6002543414610639576040517f08c379a00000000000000000000000000000000000000000000000000000000081526004016106309061134a565b60405180910390fd5b6002600560008260028111156106525761065161136a565b5b60028111156106645761066361136a565b5b815260200190815260200160002060003373ffffffffffffffffffffffffffffffffffffffff1673ffffffffffffffffffffffffffffffffffffffff16815260200190815260200160002060009054906101000a900460ff16156106fd576040517f08c379a00000000000000000000000000000000000000000000000000000000081526004016106f4906113e5565b60405180910390fd5b61070760026109d0565b50565b60015481565b60008054906101000a900473ffffffffffffffffffffffffffffffffffffffff1681565b600154421115610779576040517f08c379a0000000000000000000000000000000000000000000000000000000008152600401610770906112de565b60405180910390fd5b60025434146107bd576040517f08c379a00000000000000000000000000000000000000000000000000000000081526004016107b49061134a565b60405180910390fd5b6001600560008260028111156107d6576107d561136a565b5b60028111156107e8576107e761136a565b5b815260200190815260200160002060003373ffffffffffffffffffffffffffffffffffffffff1673ffffffffffffffffffffffffffffffffffffffff16815260200190815260200160002060009054906101000a900460ff1615610881576040517f08c379a0000000000000000000000000000000000000000000000000000000008152600401610878906113e5565b60405180910390fd5b61088b60016109d0565b50565b60056020528160005260406000206020528060005260406000206000915091509054906101000a900460ff1681565b6000600460008360028111156108d6576108d561136a565b5b60028111156108e8576108e761136a565b5b8152602001908152602001600020805490509050919050565b60006004600084600281111561091a5761091961136a565b5b600281111561092c5761092b61136a565b5b8152602001908152602001600020828154811061094c5761094b611578565b5b9060005260206000200160009054906101000a900473ffffffffffffffffffffffffffffffffffffffff16905092915050565b60006002546004600084600281111561099b5761099a61136a565b5b60028111156109ad576109ac61136a565b5b8152602001908152602001600020805490506109c991906115a7565b9050919050565b6001600560008360028111156109e9576109e861136a565b5b60028111156109fb576109fa61136a565b5b815260200190815260200160002060003373ffffffffffffffffffffffffffffffffffffffff1673ffffffffffffffffffffffffffffffffffffffff16815260200190815260200160002060006101000a81548160ff02191690831515021790555060046000826002811115610a7457610a7361136a565b5b6002811115610a8657610a8561136a565b5b8152602001908152602001600020339080600181540180825580915050600190039060005260206000200160009091909190916101000a81548173ffffffffffffffffffffffffffffffffffffffff021916908373ffffffffffffffffffffffffffffffffffffffff1602179055503373ffffffffffffffffffffffffffffffffffffffff16816002811115610b1f57610b1e61136a565b5b7fd9bbce0a0620a8f7d5d81d2db9bd5dae7fd507bb4fd85e13303f0dcc38c4699d60405160405180910390a350565b600060046000846002811115610b6757610b6661136a565b5b6002811115610b7957610b7861136a565b5b8152602001908152602001600020905060006002548280549050610b9d91906115a7565b905060008103610bfe57836002811115610bba57610bb961136a565b5b7fdb82ce5eee0c2ebb9da7702452b407287f59157eb70ae8fe5cc0838c2aeb6f1a6000806000604051610bef9392919061162e565b60405180910390a25050610fd3565b82610d635760005b8280549050811015610d0b576000838281548110610c2757610c26611578565b5b9060005260206000200160009054906101000a900473ffffffffffffffffffffffffffffffffffffffff1673ffffffffffffffffffffffffffffffffffffffff16600254604051610c7790611696565b60006040518083038185875af1925050503d8060008114610cb4576040519150601f19603f3d011682016040523d82523d6000602084013e610cb9565b606091505b5050905080610cfd576040517f08c379a0000000000000000000000000000000000000000000000000000000008152600401610cf4906116f7565b60405180910390fd5b508080600101915050610c06565b50836002811115610d1f57610d1e61136a565b5b7fdb82ce5eee0c2ebb9da7702452b407287f59157eb70ae8fe5cc0838c2aeb6f1a6000836000604051610d5493929190611717565b60405180910390a25050610fd3565b60008280549050905060006064600584610d7d91906115a7565b610d87919061177d565b905060008184610d9791906117ae565b905060008382610da7919061177d565b905060005b8680549050811015610eaf576000878281548110610dcd57610dcc611578565b5b9060005260206000200160009054906101000a900473ffffffffffffffffffffffffffffffffffffffff1673ffffffffffffffffffffffffffffffffffffffff1683604051610e1b90611696565b60006040518083038185875af1925050503d8060008114610e58576040519150601f19603f3d011682016040523d82523d6000602084013e610e5d565b606091505b5050905080610ea1576040517f08c379a0000000000000000000000000000000000000000000000000000000008152600401610e989061182e565b60405180910390fd5b508080600101915050610dac565b5060008060009054906101000a900473ffffffffffffffffffffffffffffffffffffffff1673ffffffffffffffffffffffffffffffffffffffff1684604051610ef790611696565b60006040518083038185875af1925050503d8060008114610f34576040519150601f19603f3d011682016040523d82523d6000602084013e610f39565b606091505b5050905080610f7d576040517f08c379a0000000000000000000000000000000000000000000000000000000008152600401610f749061189a565b60405180910390fd5b886002811115610f9057610f8f61136a565b5b7fdb82ce5eee0c2ebb9da7702452b407287f59157eb70ae8fe5cc0838c2aeb6f1a868887604051610fc3939291906118ba565b60405180910390a2505050505050505b5050565b600080fd5b600060ff82169050919050565b610ff281610fdc565b8114610ffd57600080fd5b50565b60008135905061100f81610fe9565b92915050565b6000806040838503121561102c5761102b610fd7565b5b600061103a85828601611000565b925050602061104b85828601611000565b9150509250929050565b60008115159050919050565b61106a81611055565b82525050565b60006020820190506110856000830184611061565b92915050565b6000819050919050565b61109e8161108b565b82525050565b60006020820190506110b96000830184611095565b92915050565b600073ffffffffffffffffffffffffffffffffffffffff82169050919050565b60006110ea826110bf565b9050919050565b6110fa816110df565b82525050565b600060208201905061111560008301846110f1565b92915050565b6003811061112857600080fd5b50565b60008135905061113a8161111b565b92915050565b600061114b826110bf565b9050919050565b61115b81611140565b811461116657600080fd5b50565b60008135905061117881611152565b92915050565b6000806040838503121561119557611194610fd7565b5b60006111a38582860161112b565b92505060206111b485828601611169565b9150509250929050565b6000602082840312156111d4576111d3610fd7565b5b60006111e28482850161112b565b91505092915050565b6111f48161108b565b81146111ff57600080fd5b50565b600081359050611211816111eb565b92915050565b6000806040838503121561122e5761122d610fd7565b5b600061123c8582860161112b565b925050602061124d85828601611202565b9150509250929050565b61126081611140565b82525050565b600060208201905061127b6000830184611257565b92915050565b600082825260208201905092915050565b7f42657474696e6720636c6f736564000000000000000000000000000000000000600082015250565b60006112c8600e83611281565b91506112d382611292565b602082019050919050565b600060208201905081810360008301526112f7816112bb565b9050919050565b7f496e636f7272656374207374616b6520616d6f756e7400000000000000000000600082015250565b6000611334601683611281565b915061133f826112fe565b602082019050919050565b6000602082019050818103600083015261136381611327565b9050919050565b7f4e487b7100000000000000000000000000000000000000000000000000000000600052602160045260246000fd5b7f416c7265616479206265742074686973206d61726b6574000000000000000000600082015250565b60006113cf601783611281565b91506113da82611399565b602082019050919050565b600060208201905081810360008301526113fe816113c2565b9050919050565b7f4f6e6c79206f7267616e69736572000000000000000000000000000000000000600082015250565b600061143b600e83611281565b915061144682611405565b602082019050919050565b6000602082019050818103600083015261146a8161142e565b9050919050565b7f4d61726b65747320616c726561647920736574746c6564000000000000000000600082015250565b60006114a7601783611281565b91506114b282611471565b602082019050919050565b600060208201905081810360008301526114d68161149a565b9050919050565b7f4e487b7100000000000000000000000000000000000000000000000000000000600052601160045260246000fd5b60006115178261108b565b91506115228361108b565b925082820190508082111561153a576115396114dd565b5b92915050565b61154981610fdc565b82525050565b60006040820190506115646000830185611540565b6115716020830184611540565b9392505050565b7f4e487b7100000000000000000000000000000000000000000000000000000000600052603260045260246000fd5b60006115b28261108b565b91506115bd8361108b565b92508282026115cb8161108b565b915082820484148315176115e2576115e16114dd565b5b5092915050565b6000819050919050565b6000819050919050565b600061161861161361160e846115e9565b6115f3565b61108b565b9050919050565b611628816115fd565b82525050565b6000606082019050611643600083018661161f565b611650602083018561161f565b61165d604083018461161f565b949350505050565b600081905092915050565b50565b6000611680600083611665565b915061168b82611670565b600082019050919050565b60006116a182611673565b9150819050919050565b7f526566756e64206661696c656400000000000000000000000000000000000000600082015250565b60006116e1600d83611281565b91506116ec826116ab565b602082019050919050565b60006020820190508181036000830152611710816116d4565b9050919050565b600060608201905061172c600083018661161f565b6117396020830185611095565b611746604083018461161f565b949350505050565b7f4e487b7100000000000000000000000000000000000000000000000000000000600052601260045260246000fd5b60006117888261108b565b91506117938361108b565b9250826117a3576117a261174e565b5b828204905092915050565b60006117b98261108b565b91506117c48361108b565b92508282039050818111156117dc576117db6114dd565b5b92915050565b7f5061796f7574206661696c656400000000000000000000000000000000000000600082015250565b6000611818600d83611281565b9150611823826117e2565b602082019050919050565b600060208201905081810360008301526118478161180b565b9050919050565b7f4f7267616e6973657220666565206661696c6564000000000000000000000000600082015250565b6000611884601483611281565b915061188f8261184e565b602082019050919050565b600060208201905081810360008301526118b381611877565b9050919050565b60006060820190506118cf6000830186611095565b6118dc6020830185611095565b6118e96040830184611095565b94935050505056fea2646970667358221220d401d5f1413c6078a61eb2158e57459fc3a1375f4e8eaa3092621ee04b35f60864736f6c634300081c0033",
  "linkReferences": {},
  "deployedLinkReferences": {}
}