{
  "_format": "hh-sol-artifact-1",
  "contractName": "MarketsBet",
  "sourceName": "contracts/MarketsBet.sol",
  "abi": [
    {
      "inputs": [
        {
          "internalType": "address payable",
          "name": "_organiser",
          "type": "address"
        },
        {
          "internalType": "uint256",
          "name": "_startTime",
          "type": "uint256"
        },
        {
          "internalType": "uint256",
          "name": "_stake",
          "type": "uint256"
        },
        {
          "internalType": "address",
          "name": "_matchContract",
          "type": "address"
        }
      ],
      "stateMutability": "nonpayable",
      "type": "constructor"
    },
    {
      "anonymous": false,
      "inputs": [
        {
          "indexed": false,
          "internalType": "uint8",
          "name": "homeGoals",
          "type": "uint8"
        },
        {
          "indexed": false,
          "internalType": "uint8",
          "name": "awayGoals",
          "type": "uint8"
        }
      ],
      "name": "AllMarketsSettled",
      "type": "event"
    },
    {
      "anonymous": false,
      "inputs": [
        {
          "indexed": true,
          "internalType": "enum MarketsBet.Market",
          "name": "market",
          "type": "uint8"
        },
        {
          "indexed": true,
          "internalType": "address",
          "name": "bettor",
          "type": "address"
        }
      ],
      "name": "BetPlaced",
      "type": "event"
    },
    {
      "anonymous": false,
      "inputs": [
        {
          "indexed": true,
          "internalType": "enum MarketsBet.Market",
          "name": "market",
          "type": "uint8"
        },
        {
          "indexed": false,
          "internalType": "uint256",
          "name": "winners",
          "type": "uint256"
        },
        {
          "indexed": false,
          "internalType": "uint256",
          "name": "totalPool",
          "type": "uint256"
        },
        {
          "indexed": false,
          "internalType": "uint256",
          "name": "organiserFee",
          "type": "uint256"
        }
      ],
      "name": "MarketSettled",
      "type": "event"
    },
    {
      "inputs": [],
      "name": "betGG",
      "outputs": [],
      "stateMutability": "payable",
      "type": "function"
    },
    {
      "inputs": [],
      "name": "betUG_0_2",
      "outputs": [],
      "stateMutability": "payable",
      "type": "function"
    },
    {
      "inputs": [],
      "name": "betUG_3_PLUS",
      "outputs": [],
      "stateMutability": "payable",
      "type": "function"
    },
    {
      "inputs": [
        {
          "internalType": "enum MarketsBet.Market",
          "name": "",
          "type": "uint8"
        },
        {
          "internalType": "address",
          "name": "",
          "type": "address"
        }
      ],
      "name": "hasBet",
      "outputs": [
        {
          "internalType": "bool",
          "name": "",
          "type": "bool"
        }
      ],
      "stateMutability": "view",
      "type": "function"
    },
    {
      "inputs": [],
      "name": "isSettled",
      "outputs": [
        {
          "internalType": "bool",
          "name": "",
          "type": "bool"
        }
      ],
      "stateMutability": "view",
      "type": "function"
    },
    {
      "inputs": [],
      "name": "matchContract",
      "outputs": [
        {
          "internalType": "address",
          "name": "",
          "type": "address"
        }
      ],
      "stateMutability": "view",
      "type": "function"
    },
    {
      "inputs": [],
      "name": "organiser",
      "outputs": [
        {
          "internalType": "address payable",
          "name": "",
          "type": "address"
        }
      ],
      "stateMutability": "view",
      "type": "function"
    },
    {
      "inputs": [
        {
          "internalType": "enum MarketsBet.Market",
          "name": "m",
          "type": "uint8"
        },
        {
          "internalType": "uint256",
          "name": "idx",
          "type": "uint256"
        }
      ],
      "name": "playerAt",
      "outputs": [
        {
          "internalType": "address",
          "name": "",
          "type": "address"
        }
      ],
      "stateMutability": "view",
      "type": "function"
    },
    {
      "inputs": [
        {
          "internalType": "enum MarketsBet.Market",
          "name": "m",
          "type": "uint8"
        }
      ],
      "name": "poolSize",
      "outputs": [
        {
          "internalType": "uint256",
          "name": "",
          "type": "uint256"
        }
      ],
      "stateMutability": "view",
      "type": "function"
    },
    {
      "inputs": [
        {
          "internalType": "uint8",
          "name": "homeGoals",
          "type": "uint8"
        },
        {
          "internalType": "uint8",
          "name": "awayGoals",
          "type": "uint8"
        }
      ],
      "name": "settleAll",
      "outputs": [],
      "stateMutability": "nonpayable",
      "type": "function"
    },
    {
      "inputs": [],
      "name": "stake",
      "outputs": [
        {
          "internalType": "uint256",
          "name": "",
          "type": "uint256"
        }
      ],
      "stateMutability": "view",
      "type": "function"
    },
    {
      "inputs": [],
      "name": "startTime",
      "outputs": [
        {
          "internalType": "uint256",
          "name": "",
          "type": "uint256"
        }
      ],
      "stateMutability": "view",
      "type": "function"
    },
    {
      "inputs": [
        {
          "internalType": "enum MarketsBet.Market",
          "name": "m",
          "type": "uint8"
        }
      ],
      "name": "totalBets",
      "outputs": [
        {
          "internalType": "uint256",
          "name": "",
          "type": "uint256"
        }
      ],
      "stateMutability": "view",
      "type": "function"
    }
  ],
  "bytecode": "0x608060405234801561001057600080fd5b50604051611f26380380611f2683398181016040528101906100329190610304565b600073ffffffffffffffffffffffffffffffffffffffff168473ffffffffffffffffffffffffffffffffffffffff16036100a1576040517f08c379a0000000000000000000000000000000000000000000000000000000008152600401610098906103c8565b60405180910390fd5b600073ffffffffffffffffffffffffffffffffffffffff168173ffffffffffffffffffffffffffffffffffffffff1603610110576040517f08c379a000000000000000000000000000000000000000000000000000000000815260040161010790610434565b60405180910390fd5b428311610152576040517f08c379a0000000000000000000000000000000000000000000000000000000008152600401610149906104a0565b60405180910390fd5b60008211610195576040517f08c379a000000000000000000000000000000000000000000000000000000000815260040161018c9061050c565b60405180910390fd5b836000806101000a81548173ffffffffffffffffffffffffffffffffffffffff021916908373ffffffffffffffffffffffffffffffffffffffff160217905550826002819055508160038190555080600160006101000a81548173ffffffffffffffffffffffffffffffffffffffff021916908373ffffffffffffffffffffffffffffffffffffffff1602179055505050505061052c565b600080fd5b600073ffffffffffffffffffffffffffffffffffffffff82169050919050565b600061025d82610232565b9050919050565b61026d81610252565b811461027857600080fd5b50565b60008151905061028a81610264565b92915050565b6000819050919050565b6102a381610290565b81146102ae57600080fd5b50565b6000815190506102c08161029a565b92915050565b60006102d182610232565b9050919050565b6102e1816102c6565b81146102ec57600080fd5b50565b6000815190506102fe816102d8565b92915050565b6000806000806080858703121561031e5761031d61022d565b5b600061032c8782880161027b565b945050602061033d878288016102b1565b935050604061034e878288016102b1565b925050606061035f878288016102ef565b91505092959194509250565b600082825260208201905092915050565b7f496e76616c6964206f7267616e69736572000000000000000000000000000000600082015250565b60006103b260118361036b565b91506103bd8261037c565b602082019050919050565b600060208201905081810360008301526103e1816103a5565b9050919050565b7f496e76616c6964206d6174636800000000000000000000000000000000000000600082015250565b600061041e600d8361036b565b9150610429826103e8565b602082019050919050565b6000602082019050818103600083015261044d81610411565b9050919050565b7f496e76616c696420737461727454696d65000000000000000000000000000000600082015250565b600061048a60118361036b565b915061049582610454565b602082019050919050565b600060208201905081810360008301526104b98161047d565b9050919050565b7f5374616b65206d75737420626520706f73697469766500000000000000000000600082015250565b60006104f660168361036b565b9150610501826104c0565b602082019050919050565b60006020820190508181036000830152610525816104e9565b9050919050565b6119eb8061053b6000396000f3fe6080604052600436106100c25760003560e01c80637e5374861161007f578063a3a3503711610059578063a3a35037146101f7578063c8c3316b14610222578063cb7d65af1461025f578063db3838221461029c576100c2565b80637e537486146101855780637f4580a9146101b057806397d4d76f146101ba576100c2565b8063143e5551146100c75780632cffdacb146100d15780633270bb5b146100fa5780633a4b66f1146101255780634b5703381461015057806378e979251461015a575b600080fd5b6100cf6102d9565b005b3480156100dd57600080fd5b506100f860048036038101906100f391906110d9565b610433565b005b34801561010657600080fd5b5061010f610635565b60405161011c9190611134565b60405180910390f35b34801561013157600080fd5b5061013a610648565b6040516101479190611168565b60405180910390f35b61015861064e565b005b34801561016657600080fd5b5061016f6107a8565b60405161017c9190611168565b60405180910390f35b34801561019157600080fd5b5061019a6107ae565b6040516101a791906111c4565b60405180910390f35b6101b86107d2565b005b3480156101c657600080fd5b506101e160048036038101906101dc9190611242565b61092c565b6040516101ee9190611134565b60405180910390f35b34801561020357600080fd5b5061020c61095b565b6040516102199190611291565b60405180910390f35b34801561022e57600080fd5b50610249600480360381019061024491906112ac565b610981565b6040516102569190611168565b60405180910390f35b34801561026b57600080fd5b5061028660048036038101906102819190611305565b6109c5565b6040516102939190611291565b60405180910390f35b3480156102a857600080fd5b506102c360048036038101906102be91906112ac565b610a43565b6040516102d09190611168565b60405180910390f35b60025442111561031e576040517f08c379a0000000000000000000000000000000000000000000000000000000008152600401610315906113a2565b60405180910390fd5b6003543414610362576040517f08c379a00000000000000000000000000000000000000000000000000000000081526004016103599061140e565b60405180910390fd5b60006006600082600281111561037b5761037a61142e565b5b600281111561038d5761038c61142e565b5b815260200190815260200160002060003373ffffffffffffffffffffffffffffffffffffffff1673ffffffffffffffffffffffffffffffffffffffff16815260200190815260200160002060009054906101000a900460ff1615610426576040517f08c379a000000000000000000000000000000000000000000000000000000000815260040161041d906114a9565b60405180910390fd5b6104306000610a94565b50565b60008054906101000a900473ffffffffffffffffffffffffffffffffffffffff1673ffffffffffffffffffffffffffffffffffffffff163373ffffffffffffffffffffffffffffffffffffffff1614806104da5750600160009054906101000a900473ffffffffffffffffffffffffffffffffffffffff1673ffffffffffffffffffffffffffffffffffffffff163373ffffffffffffffffffffffffffffffffffffffff16145b610519576040517f08c379a000000000000000000000000000000000000000000000000000000000815260040161051090611515565b60405180910390fd5b600460009054906101000a900460ff1615610569576040517f08c379a000000000000000000000000000000000000000000000000000000000815260040161056090611581565b60405180910390fd5b600060028260ff168460ff1661057f91906115d0565b11159050600060038360ff168560ff1661059991906115d0565b10159050600060018560ff16101580156105b7575060018460ff1610155b90506105c4600084610c12565b6105cf600183610c12565b6105da600282610c12565b6001600460006101000a81548160ff0219169083151502179055507f2431acea335c9bd068c85b6a12a16f924cf40a59966376fa24121f0700d8af948585604051610626929190611613565b60405180910390a15050505050565b600460009054906101000a900460ff1681565b60035481565b600254421115610693576040517f08c379a000000000000000000000000000000000000000000000000000000000815260040161068a906113a2565b60405180910390fd5b60035434146106d7576040517f08c379a00000000000000000000000000000000000000000000000000000000081526004016106ce9061140e565b60405180910390fd5b6002600660008260028111156106f0576106ef61142e565b5b60028111156107025761070161142e565b5b815260200190815260200160002060003373ffffffffffffffffffffffffffffffffffffffff1673ffffffffffffffffffffffffffffffffffffffff16815260200190815260200160002060009054906101000a900460ff161561079b576040517f08c379a0000000000000000000000000000000000000000000000000000000008152600401610792906114a9565b60405180910390fd5b6107a56002610a94565b50565b60025481565b60008054906101000a900473ffffffffffffffffffffffffffffffffffffffff1681565b600254421115610817576040517f08c379a000000000000000000000000000000000000000000000000000000000815260040161080e906113a2565b60405180910390fd5b600354341461085b576040517f08c379a00000000000000000000000000000000000000000000000000000000081526004016108529061140e565b60405180910390fd5b6001600660008260028111156108745761087361142e565b5b60028111156108865761088561142e565b5b815260200190815260200160002060003373ffffffffffffffffffffffffffffffffffffffff1673ffffffffffffffffffffffffffffffffffffffff16815260200190815260200160002060009054906101000a900460ff161561091f576040517f08c379a0000000000000000000000000000000000000000000000000000000008152600401610916906114a9565b60405180910390fd5b6109296001610a94565b50565b60066020528160005260406000206020528060005260406000206000915091509054906101000a900460ff1681565b600160009054906101000a900473ffffffffffffffffffffffffffffffffffffffff1681565b60006005600083600281111561099a5761099961142e565b5b60028111156109ac576109ab61142e565b5b8152602001908152602001600020805490509050919050565b6000600560008460028111156109de576109dd61142e565b5b60028111156109f0576109ef61142e565b5b81526020019081526020016000208281548110610a1057610a0f61163c565b5b9060005260206000200160009054906101000a900473ffffffffffffffffffffffffffffffffffffffff16905092915050565b600060035460056000846002811115610a5f57610a5e61142e565b5b6002811115610a7157610a7061142e565b5b815260200190815260200160002080549050610a8d919061166b565b9050919050565b600160066000836002811115610aad57610aac61142e565b5b6002811115610abf57610abe61142e565b5b815260200190815260200160002060003373ffffffffffffffffffffffffffffffffffffffff1673ffffffffffffffffffffffffffffffffffffffff16815260200190815260200160002060006101000a81548160ff02191690831515021790555060056000826002811115610b3857610b3761142e565b5b6002811115610b4a57610b4961142e565b5b8152602001908152602001600020339080600181540180825580915050600190039060005260206000200160009091909190916101000a81548173ffffffffffffffffffffffffffffffffffffffff021916908373ffffffffffffffffffffffffffffffffffffffff1602179055503373ffffffffffffffffffffffffffffffffffffffff16816002811115610be357610be261142e565b5b7fd9bbce0a0620a8f7d5d81d2db9bd5dae7fd507bb4fd85e13303f0dcc38c4699d60405160405180910390a350565b600060056000846002811115610c2b57610c2a61142e565b5b6002811115610c3d57610c3c61142e565b5b8152602001908152602001600020905060006003548280549050610c61919061166b565b905060008103610cc257836002811115610c7e57610c7d61142e565b5b7fdb82ce5eee0c2ebb9da7702452b407287f59157eb70ae8fe5cc0838c2aeb6f1a6000806000604051610cb3939291906116f2565b60405180910390a25050611097565b82610e275760005b8280549050811015610dcf576000838281548110610ceb57610cea61163c565b5b9060005260206000200160009054906101000a900473ffffffffffffffffffffffffffffffffffffffff1673ffffffffffffffffffffffffffffffffffffffff16600354604051610d3b9061175a565b60006040518083038185875af1925050503d8060008114610d78576040519150601f19603f3d011682016040523d82523d6000602084013e610d7d565b606091505b5050905080610dc1576040517f08c379a0000000000000000000000000000000000000000000000000000000008152600401610db8906117bb565b60405180910390fd5b508080600101915050610cca565b50836002811115610de357610de261142e565b5b7fdb82ce5eee0c2ebb9da7702452b407287f59157eb70ae8fe5cc0838c2aeb6f1a6000836000604051610e18939291906117db565b60405180910390a25050611097565b60008280549050905060006064600584610e41919061166b565b610e4b9190611841565b905060008184610e5b9190611872565b905060008382610e6b9190611841565b905060005b8680549050811015610f73576000878281548110610e9157610e9061163c565b5b9060005260206000200160009054906101000a900473ffffffffffffffffffffffffffffffffffffffff1673ffffffffffffffffffffffffffffffffffffffff1683604051610edf9061175a565b60006040518083038185875af1925050503d8060008114610f1c576040519150601f19603f3d011682016040523d82523d6000602084013e610f21565b606091505b5050905080610f65576040517f08c379a0000000000000000000000000000000000000000000000000000000008152600401610f5c906118f2565b60405180910390fd5b508080600101915050610e70565b5060008060009054906101000a900473ffffffffffffffffffffffffffffffffffffffff1673ffffffffffffffffffffffffffffffffffffffff1684604051610fbb9061175a565b60006040518083038185875af1925050503d8060008114610ff8576040519150601f19603f3d011682016040523d82523d6000602084013e610ffd565b606091505b5050905080611041576040517f08c379a00000000000000000000000000000000000000000000000000000000081526004016110389061195e565b60405180910390fd5b8860028111156110545761105361142e565b5b7fdb82ce5eee0c2ebb9da7702452b407287f59157eb70ae8fe5cc0838c2aeb6f1a8688876040516110879392919061197e565b60405180910390a2505050505050505b5050565b600080fd5b600060ff82169050919050565b6110b6816110a0565b81146110c157600080fd5b50565b6000813590506110d3816110ad565b92915050565b600080604083850312156110f0576110ef61109b565b5b60006110fe858286016110c4565b925050602061110f858286016110c4565b9150509250929050565b60008115159050919050565b61112e81611119565b82525050565b60006020820190506111496000830184611125565b92915050565b6000819050919050565b6111628161114f565b82525050565b600060208201905061117d6000830184611159565b92915050565b600073ffffffffffffffffffffffffffffffffffffffff82169050919050565b60006111ae82611183565b9050919050565b6111be816111a3565b82525050565b60006020820190506111d960008301846111b5565b92915050565b600381106111ec57600080fd5b50565b6000813590506111fe816111df565b92915050565b600061120f82611183565b9050919050565b61121f81611204565b811461122a57600080fd5b50565b60008135905061123c81611216565b92915050565b600080604083850312156112595761125861109b565b5b6000611267858286016111ef565b92505060206112788582860161122d565b9150509250929050565b61128b81611204565b82525050565b60006020820190506112a66000830184611282565b92915050565b6000602082840312156112c2576112c161109b565b5b60006112d0848285016111ef565b91505092915050565b6112e28161114f565b81146112ed57600080fd5b50565b6000813590506112ff816112d9565b92915050565b6000806040838503121561131c5761131b61109b565b5b600061132a858286016111ef565b925050602061133b858286016112f0565b9150509250929050565b600082825260208201905092915050565b7f42657474696e6720636c6f736564000000000000000000000000000000000000600082015250565b600061138c600e83611345565b915061139782611356565b602082019050919050565b600060208201905081810360008301526113bb8161137f565b9050919050565b7f496e636f7272656374207374616b6520616d6f756e7400000000000000000000600082015250565b60006113f8601683611345565b9150611403826113c2565b602082019050919050565b60006020820190508181036000830152611427816113eb565b9050919050565b7f4e487b7100000000000000000000000000000000000000000000000000000000600052602160045260246000fd5b7f416c7265616479206265742074686973206d61726b6574000000000000000000600082015250565b6000611493601783611345565b915061149e8261145d565b602082019050919050565b600060208201905081810360008301526114c281611486565b9050919050565b7f4e6f7420617574686f7269736564000000000000000000000000000000000000600082015250565b60006114ff600e83611345565b915061150a826114c9565b602082019050919050565b6000602082019050818103600083015261152e816114f2565b9050919050565b7f4d61726b65747320616c726561647920736574746c6564000000000000000000600082015250565b600061156b601783611345565b915061157682611535565b602082019050919050565b6000602082019050818103600083015261159a8161155e565b9050919050565b7f4e487b7100000000000000000000000000000000000000000000000000000000600052601160045260246000fd5b60006115db8261114f565b91506115e68361114f565b92508282019050808211156115fe576115fd6115a1565b5b92915050565b61160d816110a0565b82525050565b60006040820190506116286000830185611604565b6116356020830184611604565b9392505050565b7f4e487b7100000000000000000000000000000000000000000000000000000000600052603260045260246000fd5b60006116768261114f565b91506116818361114f565b925082820261168f8161114f565b915082820484148315176116a6576116a56115a1565b5b5092915050565b6000819050919050565b6000819050919050565b60006116dc6116d76116d2846116ad565b6116b7565b61114f565b9050919050565b6116ec816116c1565b82525050565b600060608201905061170760008301866116e3565b61171460208301856116e3565b61172160408301846116e3565b949350505050565b600081905092915050565b50565b6000611744600083611729565b915061174f82611734565b600082019050919050565b600061176582611737565b9150819050919050565b7f526566756e64206661696c656400000000000000000000000000000000000000600082015250565b60006117a5600d83611345565b91506117b08261176f565b602082019050919050565b600060208201905081810360008301526117d481611798565b9050919050565b60006060820190506117f060008301866116e3565b6117fd6020830185611159565b61180a60408301846116e3565b949350505050565b7f4e487b7100000000000000000000000000000000000000000000000000000000600052601260045260246000fd5b600061184c8261114f565b91506118578361114f565b92508261186757611866611812565b5b828204905092915050565b600061187d8261114f565b91506118888361114f565b92508282039050818111156118a05761189f6115a1565b5b92915050565b7f5061796f7574206661696c656400000000000000000000000000000000000000600082015250565b60006118dc600d83611345565b91506118e7826118a6565b602082019050919050565b6000602082019050818103600083015261190b816118cf565b9050919050565b7f4f7267616e6973657220666565206661696c6564000000000000000000000000600082015250565b6000611948601483611345565b915061195382611912565b602082019050919050565b600060208201905081810360008301526119778161193b565b9050919050565b60006060820190506119936000830186611159565b6119a06020830185611159565b6119ad6040830184611159565b94935050505056fea2646970667358221220a5bf6d1a1dbfef147ede663dad33ccdcc549f1fadee7ba804b3f35bd4743c5ab64736f6c634300081c0033",
  "linkReferences": {},
  "deployedLinkReferences": {}
}